:100000000C94F3050C9424060C9424060C942406FA
:100010000C9424060C9424060C9424060C942406B8
:100020000C9424060C9424060C9424060C942406A8
:100030000C9424060C9424060C9424060C94240698
:100040000C9424060C9424060C9424060C94240688
:100050000C9424060C9424060C9424060C945B1433
:100060000C9424060C943D170C9411180C9424063F
:100070000C9424060C9424060C9424060C94240658
:100080000C9424060C9424060C9424060C94240648
:100090000C946A170C9450180C9424060C942406A3
:1000A0000C9424060C9424060C9424060C94240628
:1000B0000C9424060C9424060C9424060C94240618
:1000C0000C9424060C9424060C9424060C94971784
:1000D0000C948F180C9424060C94C4170C94CE180E
:1000E0000C942406546865206F766572616C6C20F0
:1000F000746573742073686F756C642070617373BA
:100100002E2E2E00696E74657261637469766520A7
:1001100074657374657220636F6D6D616E64733A9C
:10012000002020696E636C756465203C7061747496
:1001300065726E3E0020206578636C756465203CB6
:100140007061747465726E3E0020206D696E5F761A
:100150006572626F73697479203C62696E6172794D
:10016000206E756D6265723E0020206D61785F764D
:100170006572626F73697479203C62696E6172792D
:10018000206E756D6265723E00202072756E006390
:100190006F6D6D616E643E20000820080066697214
:1001A0006D776172652E696E6F0078003D3D00309D
:1001B0007831006669726D776172652E696E6F00C5
:1001C00078003D3D00307830003A003A313A200066
:1001D000206173736572742028003D00292000207F
:1001E00028003D00290070617373006661696C002E
:1001F0006669726D776172652E696E6F0078003C7A
:100200000079006669726D776172652E696E6F00A4
:1002100078003C3D0079006669726D776172652EE9
:10022000696E6F0078003D3D0079006669726D77F8
:100230006172652E696E6F007800213D007900665D
:1002400069726D776172652E696E6F0078003E3D50
:100250000079006669726D776172652E696E6F0054
:1002600078003E0079006669726D776172652E696B
:100270006E6F0078003C0079006669726D7761727C
:10028000652E696E6F0078003C3D007900666972EA
:100290006D776172652E696E6F0078003D3D007963
:1002A000006669726D776172652E696E6F00780005
:1002B000213D0079006669726D776172652E696E05
:1002C0006F0078003E3D0079006669726D7761725B
:1002D000652E696E6F0078003E0079003A003A3171
:1002E0003A2000206173736572742028003D002954
:1002F00020002028003D00290070617373006661B2
:10030000696C006669726D776172652E696E6F0047
:10031000746573745F7061737365735F696E737412
:10032000616E63652E7374617465003E3D005465B3
:1003300073743A3A444F4E455F534B4950006669D7
:10034000726D776172652E696E6F00746573745F8C
:100350006661696C735F696E7374616E63652E7339
:1003600074617465003E3D00546573743A3A444FBD
:100370004E455F534B4950006669726D77617265F7
:100380002E696E6F00746573745F736B6970735F51
:10039000696E7374616E63652E7374617465003E7B
:1003A0003D00546573743A3A444F4E455F534B4990
:1003B00050006669726D776172652E696E6F0074A8
:1003C0006573745F7061737365735F696E73746175
:1003D0006E63652E7374617465003C0054657374BC
:1003E0003A3A444F4E455F534B4950006669726D2F
:1003F000776172652E696E6F00746573745F6661F4
:10040000696C735F696E7374616E63652E7374617A
:100410007465003C00546573743A3A444F4E455F2E
:10042000534B4950006669726D776172652E696E33
:100430006F00746573745F736B6970735F696E735B
:1004400074616E63652E7374617465003C0054655D
:1004500073743A3A444F4E455F534B4950006669B6
:10046000726D776172652E696E6F00746573745F6B
:100470007061737365735F696E7374616E63652E0B
:100480007374617465003D3D00546573743A3A4479
:100490004F4E455F50415353006669726D776172EC
:1004A000652E696E6F00746573745F6661696C7345
:1004B0005F696E7374616E63652E73746174650039
:1004C0003D3D00546573743A3A444F4E455F504188
:1004D0005353006669726D776172652E696E6F00A5
:1004E000746573745F736B6970735F696E73746145
:1004F0006E63652E7374617465003D3D00546573D1
:10050000743A3A444F4E455F504153530066697206
:100510006D776172652E696E6F00746573745F70BC
:1005200061737365735F696E7374616E63652E7357
:100530007461746500213D00546573743A3A444F08
:100540004E455F50415353006669726D7761726525
:100550002E696E6F00746573745F6661696C735F9A
:10056000696E7374616E63652E73746174650021C6
:100570003D00546573743A3A444F4E455F504153C1
:1005800053006669726D776172652E696E6F0074D3
:100590006573745F736B6970735F696E7374616E9A
:1005A00063652E737461746500213D005465737436
:1005B0003A3A444F4E455F50415353006669726D5D
:1005C000776172652E696E6F00746573745F706118
:1005D000737365735F696E7374616E63652E737494
:1005E000617465003D3D00546573743A3A444F4E62
:1005F000455F4641494C006669726D776172652EB0
:10060000696E6F00746573745F6661696C735F69AE
:100610006E7374616E63652E7374617465003D3D25
:1006200000546573743A3A444F4E455F4641494C15
:10063000006669726D776172652E696E6F00746510
:1006400073745F736B6970735F696E7374616E63EB
:10065000652E7374617465003D3D00546573743A92
:100660003A444F4E455F4641494C006669726D778A
:100670006172652E696E6F00746573745F7061736B
:100680007365735F696E7374616E63652E737461F5
:10069000746500213D00546573743A3A444F4E45E9
:1006A0005F4641494C006669726D776172652E69DB
:1006B0006E6F00746573745F6661696C735F696EF9
:1006C0007374616E63652E737461746500213D00FF
:1006D000546573743A3A444F4E455F4641494C0065
:1006E0006669726D776172652E696E6F00746573ED
:1006F000745F736B6970735F696E7374616E636549
:100700002E737461746500213D00546573743A3A28
:10071000444F4E455F4641494C006669726D7761B2
:1007200072652E696E6F00746573745F70617373A8
:1007300065735F696E7374616E63652E7374617443
:1007400065003D3D00546573743A3A444F4E455F31
:10075000534B4950006669726D776172652E696E00
:100760006F00746573745F6661696C735F696E7343
:1007700074616E63652E7374617465003D3D005451
:100780006573743A3A444F4E455F534B4950006687
:1007900069726D776172652E696E6F00746573742E
:1007A0005F736B6970735F696E7374616E63652EDE
:1007B0007374617465003D3D00546573743A3A4446
:1007C0004F4E455F534B4950006669726D776172B9
:1007D000652E696E6F00746573745F706173736505
:1007E000735F696E7374616E63652E737461746593
:1007F00000213D00546573743A3A444F4E455F53AF
:100800004B4950006669726D776172652E696E6F33
:1008100000746573745F6661696C735F696E73748D
:10082000616E63652E737461746500213D005465CB
:1008300073743A3A444F4E455F534B4950006669D2
:10084000726D776172652E696E6F00746573745F87
:10085000736B6970735F696E7374616E63652E7319
:100860007461746500213D00546573743A3A444FD5
:100870004E455F534B4950003A003A313A20002030
:100880006173736572742028003D002920002028C0
:10089000003D00290070617373006661696C006639
:1008A00069726D776172652E696E6F00746573741D
:1008B0005F7061737365735F696E7374616E636596
:1008C0002E7374617465003D3D00546573743A3A4B
:1008D000444F4E455F50415353006669726D7761D6
:1008E00072652E696E6F00746573745F6661696C02
:1008F000735F696E7374616E63652E737461746582
:10090000003D3D00546573743A3A444F4E455F468E
:1009100041494C006669726D776172652E696E6F30
:1009200000746573745F736B6970735F696E737461
:10093000616E63652E7374617465003D3D0054659E
:1009400073743A3A444F4E455F534B4950006669C1
:10095000726D776172652E696E6F00746573745F76
:100960006173736572745F626F6F6C735F696E73CE
:1009700074616E63652E7374617465003D3D00544F
:100980006573743A3A444F4E455F50415353006685
:1009900069726D776172652E696E6F00746573742C
:1009A0005F6173736572745F696E74735F696E7390
:1009B00074616E63652E7374617465003D3D00540F
:1009C0006573743A3A444F4E455F50415353006645
:1009D00069726D776172652E696E6F0074657374EC
:1009E0005F6173736572745F737472696E67735F4E
:1009F000696E7374616E63652E7374617465003D16
:100A00003D00546573743A3A444F4E455F5041532C
:100A100053006669726D776172652E696E6F00743E
:100A20006573745F6D6574615F696E7374616E6325
:100A3000652E7374617465003D3D00546573743AAE
:100A40003A444F4E455F50415353006F7665726193
:100A50006C6C006D657461006173736572745F73B3
:100A60007472696E6773006173736572745F696E27
:100A70007473006173736572745F626F6F6C73007F
:100A8000736B697073006661696C73007061737376
:100A900065730074657374200020736B69707065F2
:100AA000642E00207061737365642E002066616996
:100AB0006C65642E00746573742073756D6D61725E
:100AC000793A2000207061737365642C20002066E1
:100AD00061696C65642C20616E64200020736B6911
:100AE000707065642C206F7574206F662000207410
:100AF0006573742873292E000C94F8060C949106E3
:100B00000C945F1F0C94ED160C946D1F0C94B3069F
:100B10000C9488160C9456080C9498060C94211E7C
:100B20000C94281E0C946B0E0C949B160C9432069D
:100B30000C940A070C943E060C944A060C94630C21
:100B40000C943E080C946E080C94E6060C948D19D7
:100B50000C9426060C946E060C9445080C945606CC
:100B60000C9467080C94CB060C94AB1A0C94980860
:100B70000C94A2060C94A9060C94511F0C94BC0F63
:100B80000C9488060C94D5060C9480060C94BD1A1F
:100B90000C94431F0C94AC1A0C94BA060C94B71620
:100BA0000C9475130C94F0170C945D080C94F313CB
:100BB0000C94C4060C9459140C941B150C941C151D
:100BC0000C94341F0C94DB160C9462060C94A90B45
:100BD0000C9477060C944C080C94DC060C94271F9C
:100BE000F3138D19591411241FBECFEFD1E2DEBFCC
:100BF000CDBF00E00CBF12E0A0E0B2E0E4E5F2E41B
:100C000000E00BBF02C007900D92A83FB107D9F7D3
:100C100016E0A8EFB2E001C01D92A136B107E1F7DE
:100C20001BE0C4EEDBE000E006C022970109FE01F4
:100C30000BBF0E941421C03ED10780E00807A9F72E
:100C40000E947B160C94B6200C940000FC0181E0FD
:100C500040815181FB01208131814217530709F006
:100C600080E00895FC0181E040815181FB012081F9
:100C70003181421753070CF080E00895FC0181E0B8
:100C8000DB014D915C9120813181421753070CF4B7
:100C900080E00895FC0181E040815181FB012081C9
:100CA00031814217530709F480E00895FC0181E087
:100CB00040815181FB0120813181421753070CF49F
:100CC00080E00895FC0181E0DB014D915C91208181
:100CD0003181421753070CF080E00895FC0181E058
:100CE0002081FB019081291708F480E00895FC0120
:100CF00081E02081FB019081291708F080E00895B0
:100D0000FC0181E02081FB019081291380E008959E
:100D1000FC0181E02081FB019081291301C080E06A
:100D2000089521E632E0FC01318320830C94211EDA
:100D3000CF93DF93EC010E949106CE01DF91CF911A
:100D40000C9419152DE632E0FC01318320830C94BC
:100D5000211ECF93DF93EC010E94A206CE01DF910A
:100D6000CF910C94191529E732E0FC0131832083DF
:100D70000C94211ECF93DF93EC010E94B306CE01A9
:100D8000DF91CF910C9419152FEA32E0FC013183E9
:100D900020830C94211ECF93DF93EC010E94C406A4
:100DA000CE01DF91CF910C9419152BEB32E0FC01B1
:100DB000318320830C94211ECF93DF93EC010E949A
:100DC000D506CE01DF91CF910C941915CF93DF9307
:100DD000EC010E94A514693E73408105910528F03D
:100DE000CE01DF91CF910C94851EDF91CF910895B4
:100DF000CF93DF93EC010E94A514693E73408105F7
:100E0000910528F0CE01DF91CF910C94811EDF91E6
:100E1000CF910895CF93DF93EC010E94A514693E12
:100E200073408105910528F0CE01DF91CF910C949C
:100E3000891EDF91CF91089564EE70E082E194E025
:100E40000E949E1564E071E082E194E00E949E158C
:100E500061E271E082E194E00E949E1565E371E039
:100E600082E194E00E949E1569E471E082E194E0E1
:100E70000E949E1569E671E082E194E00E949E1551
:100E800069E871E082E194E00C949E150F931F9342
:100E9000CF93DF936FE871E082E194E00E945415F4
:100EA000C0E0D0E082E194E00E948816892BD1F363
:100EB00082E194E00E94B7168C011816190694F787
:100EC0008F37910551F4209769F369E971E082E168
:100ED00094E00E9454152197E5CF8A30910589F05E
:100EE0008D30910571F0682F82E194E00E947715B2
:100EF000C035D10520F4FE01E85AFC4F008321964D
:100F0000D1CFC035D10510F0CFE4D0E0C85ADC4FC6
:100F1000188282E194E0DF91CF911F910F910C94A0
:100F20008815CF93DF93EC0109900020E9F7219712
:100F3000C81BD90BAE01BC0188E593E00E94E420F8
:100F4000009749F4C85ADC4F8981803211F481E05E
:100F500003C08823E1F380E0DF91CF910895E8E5B5
:100F6000F3E0CF01885593402191203221F02111E7
:100F7000F8CF01C00196FC01E85AFC4F20812032D5
:100F8000C9F3CF010895FC0120E030E00AC0220F30
:100F9000331F81E090E0413311F080E090E0280FB2
:100FA000391F4191842F8053823088F3C9010895FD
:100FB00085E192E00E949107882321F00E94AF070B
:100FC0000C94D41E8DE192E00E949107882321F0B9
:100FD0000E94AF070C94F51E85E292E00E949107F3
:100FE000811106C083E392E00E949107882339F0C3
:100FF0000E94AF070E94C30780931402089581E402
:1010000092E00E949107882319F01092100208952F
:1010100065E472E082E194E00E94751568E573E092
:1010200082E194E00E94751566E572E082E194E049
:101030000E94751582E194E00C94881540E056E911
:1010400060E070E082E194E00E940D190E941C07AC
:1010500004C00E9446070E94D807809110028111A7
:10106000F8CF08950C948D1E6115710531F0613033
:10107000710519F491E089270895089529EE32E069
:10108000FC01318320830C94211E25E832E0FC0111
:10109000318320830C943E08CF93DF93EC010E94B0
:1010A0004508CE01DF91CF910C94191523E932E068
:1010B000FC01318320830C943E08CF93DF93EC0135
:1010C0000E945608CE01DF91CF910C94191521EAA8
:1010D00032E0FC01318320830C943E08CF93DF93F0
:1010E000EC010E946708CE01DF91CF910C94191595
:1010F00088EF92E00E94D50684E093E00E94C40647
:1011000080E193E00E9467088CE193E00E9456081A
:1011100088E293E00E94450884E393E00E94B306CE
:1011200080E493E00E94A2068CE493E00C94910684
:10113000CF93DF93EC010E943E08CE01DF91CF9167
:101140000C94191542305105D1F03CF4411551056C
:1011500061F04130510541F50DC044305105C9F0F1
:101160009CF04530510501F519C021E0861797071D
:10117000E4F018C021E068177907BCF413C021E03F
:101180008617970791F00EC021E08617970769F43C
:1011900009C021E08617970744F404C021E06817CE
:1011A00079071CF020E001C00895822F0895423095
:1011B0005105D9F03CF44115510561F0413051051C
:1011C00091F50BC044305105F1F0B4F045305105B4
:1011D00051F520C00E94DB2019C00E94DB209C0139
:1011E00091E01216130604F51CC00E94DB209C013E
:1011F00091E0232BC9F015C00E94DB209C0191E0F7
:10120000232B91F40EC00E94DB209095991F992703
:10121000991F0AC00E94DB209C0191E01216130660
:101220001CF090E001C00895892F08956330710586
:1012300009F460C044F46130710569F10CF044C0F8
:10124000672B81F0C8C06530710509F47FC00CF4CC
:1012500067C06630710509F48FC06730710509F009
:10126000BAC0A2C08130910549F08230910551F099
:10127000009789F481E02091500307C081E020911C
:10128000440303C081E0209138039091F5022917AF
:1012900008F0A2C0A0C08130910549F082309105CC
:1012A00051F0009789F481E02091500307C081E05C
:1012B0002091440303C081E0209138039091F5020E
:1012C000291708F489C087C08130910549F0823020
:1012D000910551F0009771F481E02091500307C00F
:1012E00081E02091440303C081E020913803909174
:1012F000F40257C08130910549F08230910551F0D8
:10130000009771F481E02091500307C081E02091A3
:10131000440303C081E0209138039091F40259C046
:101320008130910549F08230910551F0009771F4B8
:1013300081E02091500307C081E02091440303C065
:1013400081E0209138039091F3022BC08130910508
:1013500049F08230910551F0009771F481E02091BD
:10136000500307C081E02091440303C081E0209135
:1013700038039091F3022DC08130910549F08230FD
:10138000910551F0009781F481E02091500307C04E
:1013900081E02091440303C081E0209138039091C3
:1013A000F5022917C9F017C08130910549F0823044
:1013B000910551F0892B79F481E02091500307C009
:1013C00081E02091440303C081E020913803909193
:1013D000F502291301C080E008954F925F926F9249
:1013E0007F928F929F92AF92BF92CF92DF92EF92B5
:1013F000FF920F931F93CF93DF932C014B013A0180
:10140000E901B501C901F7011995F82E8111BBC099
:101410008091590690915A06009709F4AFC00E9436
:10142000851EACC08091130285FD0FC0E091590666
:10143000F0915A06309709F4AAC0858185FD05C050
:10144000A6C08091130284FF25C0B20180911102D1
:10145000909112020E94541569EC71E08091110282
:10146000909112020E9454154AE050E0B40180911C
:101470001102909112020E941B166BEC71E0809198
:101480001102909112020E945415FF2071F066EE35
:1014900071E00DC0E0915906F0915A06309709F4B9
:1014A00076C0858184FDD1CF72C06BEE71E08091F2
:1014B0001102909112020E94541560ED71E080912A
:1014C0001102909112020E945415B30180911102F1
:1014D000909112020E9454156AED71E08091110200
:1014E000909112020E945415688179814AE050E07F
:1014F00080911102909112020E9473166CED71E0BE
:1015000080911102909112020E945415B8018091AD
:101510001102909112020E9454156FED71E08091BA
:101520001102909112020E945415B601809111028D
:10153000909112020E94541562EE71E080911102A6
:10154000909112020E945415F501608171814AE068
:1015500050E080911102909112020E94731664EE85
:1015600071E080911102909112020E9454158091B5
:101570001102909112020E94881509C080911402F4
:1015800084FD5FCF04C08091140285FD4BCF8F2D69
:10159000DF91CF911F910F91FF90EF90DF90CF904F
:1015A000BF90AF909F908F907F906F905F904F9083
:1015B0000895AF92BF92CF92DF92EF92FF920F9376
:1015C0001F93CF93DF9300D01F92CDB7DEB79A83DE
:1015D00089837C836B834230510509F446C044F40F
:1015E0004115510581F04130510509F0A3C024C0D7
:1015F0004430510509F46BC00CF450C0453051051E
:1016000009F098C07DC023E0A22EB12CAC0EBD1E07
:1016100031E0C32E32E0D32E42E3E42E46E0F42E36
:101620000FEF11E09E012F5F3F4F4DEF51E06AEB4E
:1016300070E080EF91E07CC003E0A02EB12CAC0EF6
:10164000BD1E85E1C82E82E0D82E9EE3E92E96E0ED
:10165000F92E02E112E09E012F5F3F4F40E152E080
:101660006BEB70E083E092E063C0A3E0AA2EB12CA4
:10167000AC0EBD1EB9E2CB2EB2E0DB2E16E2E12E9F
:1016800016E0F12E06E212E09E012F5F3F4F44E28A
:1016900052E06CEB70E087E192E04AC073E0A72E65
:1016A000B12CAC0EBD1EEDE3CE2EE2E0DE2EFAE450
:1016B000EF2EF6E0FF2E0AE312E09E012F5F3F4F70
:1016C00048E352E06DEB70E08BE292E031C043E022
:1016D000A42EB12CAC0EBD1E51E5C52E52E0D52E68
:1016E00066E5E62E66E0F62E0EE412E09E012F5F20
:1016F0003F4F4CE452E06EEB70E08FE392E018C095
:1017000093E0A92EB12CAC0EBD1E24E6C22E22E021
:10171000D22E32E6E32E36E0F32E02E612E09E01F0
:101720002F5F3F4F40E652E06FEB70E083E592E0C1
:101730000E94ED090F900F900F900F90DF91CF91C5
:101740001F910F91FF90EF90DF90CF90BF90AF90DF
:1017500008959F92AF92BF92CF92DF92EF92FF9245
:101760000F931F93CF93DF936C0100E010E0A090E4
:10177000F302B090F6029B2C36C0A801B701CE014F
:101780000E94D90AA801B701CE010E94A208F60161
:101790009481882381F09B1581F0C601DF91CF9160
:1017A0001F910F91FF90EF90DF90CF90BF90AF907F
:1017B0009F900C94851E9A11F0CFF6019482FFEF52
:1017C000EF1AFF0A82E0E816F104B9F62196C2305A
:1017D000D10521F0EE24EA94FE2CCFCF0F5F1F4FEE
:1017E0000630110519F0CFEFDFEFF4CFDF91CF9185
:1017F0001F910F91FF90EF90DF90CF90BF90AF902F
:101800009F900895AF92BF92CF92DF92EF92FF9296
:101810000F931F93CF93DF9300D01F92CDB7DEB706
:101820006115710521F061307105F1F51FC021E0EE
:1018300030E03A8329838B831C82AA24A394B12CA1
:10184000AC0EBD1EFFEACF2EF1E0DF2EA6E2EA2E9F
:10185000A6E0FA2E0CEA11E09E012D5F3F4F4AEA06
:1018600051E064E970E08DE991E01CC01A821982B0
:101870008B831C82AA24A394B12CAC0EBD1E65ECF4
:10188000C62E61E0D62E76E2E72E76E0F72E02EC49
:1018900011E09E012D5F3F4F40EC51E065E970E0A3
:1018A00083EB91E00E94ED090F900F900F900F9045
:1018B000DF91CF911F910F91FF90EF90DF90CF902C
:1018C000BF90AF9008959F92AF92BF92CF92DF9258
:1018D000EF92FF920F931F93CF93DF937C01C0E0B1
:1018E000D0E0BB24B394A090F302C090F6029C2CED
:1018F0002BC0DD24D394D022DB24BE018D2D0E9489
:10190000020CBE018D2D0E943408F70194818823BA
:1019100081F09C1581F0C701DF91CF911F910F914C
:10192000FF90EF90DF90CF90BF90AF909F900C947E
:10193000851E9A11F0CFF701948201501109C8F663
:101940002196C230D10519F001E010E0D2CFDF912D
:10195000CF911F910F91FF90EF90DF90CF90BF90AC
:10196000AF909F9008954F925F926F927F928F9267
:101970009F92AF92BF92CF92DF92EF92FF920F931E
:101980001F93CF93DF932C014B013A01E901B5017D
:10199000C901F7011995F82E8111B7C08091590638
:1019A00090915A06009709F4ABC00E94851EA8C00A
:1019B0008091130285FD0FC0E0915906F0915A06FF
:1019C000309709F4A6C0858185FD05C0A2C080912D
:1019D000130284FF25C0B20180911102909112027E
:1019E0000E9454156CED72E08091110290911202E8
:1019F0000E9454154AE050E0B40180911102909188
:101A000012020E941B166EED72E0809111029091FD
:101A100012020E945415FF2071F069EF72E00DC0B0
:101A2000E0915906F0915A06309709F472C0858109
:101A300084FDD1CF6EC06EEF72E080911102909163
:101A400012020E94541563EE72E08091110290918F
:101A500012020E945415B30180911102909112025A
:101A60000E9454156DEE72E0809111029091120265
:101A70000E9454156881798180911102909112021F
:101A80000E9475156FEE72E0809111029091120222
:101A90000E945415B80180911102909112020E9487
:101AA000541562EF72E080911102909112020E942F
:101AB0005415B60180911102909112020E945415A2
:101AC00065EF72E080911102909112020E9454150C
:101AD000F5016081718180911102909112020E9442
:101AE000751567EF72E080911102909112020E94C9
:101AF000541580911102909112020E94881509C01C
:101B00008091140284FD63CF04C08091140285FD8E
:101B10004FCF8F2DDF91CF911F910F91FF90EF90BD
:101B2000DF90CF90BF90AF909F908F907F906F90FD
:101B30005F904F900895AF92BF92CF92DF92EF9255
:101B4000FF920F931F93CF93DF9300D01F92CDB7D7
:101B5000DEB79A8389837C836B834230510509F415
:101B600046C044F44115510581F04130510509F05A
:101B7000A3C024C04430510509F46BC00CF450C01C
:101B80004530510509F098C07DC013E0A12EB12C5D
:101B9000AC0EBD1E07E7C02E02E0D02E87E2E82E75
:101BA0008FE1F82E05E712E09E012F5F3F4F43E7DC
:101BB00052E068EE70E086E692E07CC0F3E0AF2E83
:101BC000B12CAC0EBD1EABE8CA2EA2E0DA2EB4E3F7
:101BD000EB2EBFE1FB2E08E812E09E012F5F3F4F86
:101BE00046E852E069EE70E089E792E063C063E0A6
:101BF000A62EB12CAC0EBD1E7FE9C72E72E0D72EEB
:101C0000E3E4EE2EEFE1FE2E0CE912E09E012F5FE1
:101C10003F4F4AE952E06AEE70E08DE892E04AC038
:101C200033E0A32EB12CAC0EBD1E43EBC42E42E01C
:101C3000D42E51E5E52E5FE1F52E00EB12E09E017A
:101C40002F5F3F4F4EEA52E06BEE70E081EA92E088
:101C500031C083E0A82EB12CAC0EBD1E97ECC92E6E
:101C600092E0D92E2FE5E22E2FE1F22E04EC12E0C5
:101C70009E012F5F3F4F42EC52E06CEE70E085EB2F
:101C800092E018C0B3E0AB2EB12CAC0EBD1E1AED25
:101C9000C12E12E0D12E0DE6E02E0FE1F02E08ED60
:101CA00012E09E012F5F3F4F46ED52E06DEE70E077
:101CB00089EC92E00E94B30C0F900F900F900F9060
:101CC000DF91CF911F910F91FF90EF90DF90CF9018
:101CD000BF90AF9008957F928F929F92AF92BF92E4
:101CE000CF92DF92EF92FF920F931F93CF93DF93E8
:101CF0006C0100E010E08090F3029090F602792CE5
:101D000040C0A801888199810E949B0D82E0E80E65
:101D1000F11CF50160817181A801888199810E947F
:101D2000D708F6019481882391F0991591F0C601A6
:101D3000DF91CF911F910F91FF90EF90DF90CF90A7
:101D4000BF90AF909F908F907F900C94851E9811BC
:101D5000EECFF601748204C096E0E92E92E0F92EEF
:101D60005701F701608171816115710551F6229665
:101D700088819981892B81F70F5F1F4F06301105EC
:101D800019F0C6E0D2E0F4CFDF91CF911F910F910F
:101D9000FF90EF90DF90CF90BF90AF909F908F908B
:101DA0007F9008954F925F926F927F928F929F9251
:101DB000AF92BF92CF92DF92EF92FF920F931F9359
:101DC000CF93DF932C014B013A01E901B501C90121
:101DD000F7011995F82E8111B9C08091590690919B
:101DE0005A06009709F4ADC00E94851EAAC08091D2
:101DF000130285FD0FC0E0915906F0915A06309705
:101E000009F4A8C0858185FD05C0A4C08091130296
:101E100084FF25C0B20180911102909112020E94AC
:101E2000541568E778E080911102909112020E94A7
:101E300054154AE050E0B4018091110290911202D1
:101E40000E941B166AE778E08091110290911202BD
:101E50000E945415FF2071F065E978E00DC0E09113
:101E60005906F0915A06309709F474C0858184FDB3
:101E7000D1CF70C06AE978E080911102909112028E
:101E80000E9454156FE778E0809111029091120240
:101E90000E945415B30180911102909112020E9488
:101EA000541569E878E080911102909112020E9425
:101EB00054154AE050E0688180911102909112021D
:101EC0000E9421166BE878E0809111029091120235
:101ED0000E945415B80180911102909112020E9443
:101EE00054156EE878E080911102909112020E94E0
:101EF0005415B60180911102909112020E9454155E
:101F000061E978E080911102909112020E945415CB
:101F10004AE050E0F5016081809111029091120237
:101F20000E94211663E978E08091110290911202DB
:101F30000E94541580911102909112020E948815FE
:101F400009C08091140284FD61CF04C08091140205
:101F500085FD4DCF8F2DDF91CF911F910F91FF9078
:101F6000EF90DF90CF90BF90AF909F908F907F9039
:101F70006F905F904F9008959F92AF92BF92CF92D3
:101F8000DF92EF92FF920F931F93CF93DF93EC01B9
:101F90002091510630915206809155069091560637
:101FA000280F391F2F5F3F4F8091530690915406A1
:101FB000280F391F80915706909158062817390726
:101FC00009F0E8C09090F50280915003891105C096
:101FD00080914403891137C01BC064EFA62E62E0D4
:101FE000B62E7AECC72E78E0D72EE0E8EE2EE6E0AB
:101FF000FE2E07EC18E020E533E04CEA58E06BE8F1
:1020000071E08FE998E00E94D20E8111E1CFC2C049
:1020100035EFA32E32E0B32E4EE3C42E49E0D42E8A
:1020200050E8E52E56E0F52E0BE319E028E333E007
:1020300041E259E06DE871E084E199E00E94D20E3E
:1020400081111CC0A7C083EFA82E82E0B82E94E0B7
:10205000C92E99E0D92E20E8E22E26E0F22E01E0EA
:1020600019E024E433E047EE58E06CE871E08AEDD3
:1020700098E00E94D20E8111CBCF8CC080912C03AE
:10208000891105C080912003891121C01BC0B4EFC4
:10209000AB2EB2E0BB2E1FE7C12E19E0D12E00E817
:1020A000E02E06E0F02E0CE719E02CE233E04BE5E1
:1020B00059E06EE871E08EE499E00E94D20E811141
:1020C000E1CF68C080911403891121C01BC0E4EFE7
:1020D000AE2EE2E0BE2EFFEBCF2EF9E0DF2EA0E821
:1020E000EA2EA6E0FA2E0CEB19E020E233E04CE9F0
:1020F00059E06FE871E08FE899E00E94D20E8111FB
:10210000E1CF48C08091080389112AC01BC054EF59
:10211000A52E52E0B52E62E0C62E6AE0D62E70E8FB
:10212000E72E76E0F72E0FEF19E024E133E04CEDD7
:1021300059E060E971E08FEC99E00E94D20E8111C4
:10214000E1CF28C0CE01DF91CF911F910F91FF9079
:10215000EF90DF90CF90BF90AF909F900C94811E36
:1021600024EFA22E22E0B22E3BE3C32E3AE0D32E80
:1021700040E8E42E46E0F42E08E31AE028E033E0DD
:102180004FE15AE061E971E082E19AE00E94D20EEB
:102190008111D8CFDF91CF911F910F91FF90EF90D8
:1021A000DF90CF90BF90AF909F900895AF92BF9275
:1021B000CF92DF92EF92FF920F931F9363307105DE
:1021C00009F403C14CF46130710509F462C00CF0EC
:1021D000AEC0672B81F080C26530710509F491C1F2
:1021E0000CF441C16630710509F4D9C1673071053D
:1021F00009F072C222C281309105E9F08230910566
:1022000089F1009709F045C0E5EFAE2EE2E0BE2E61
:10221000FEE2CF2EF3E0DF2EAEE6EA2EA6E0FA2EA7
:102220000BE213E020E533E040E153E060E471E0CD
:1022300083E093E04FC255EFA52E52E0B52E68E63D
:10224000C62E63E0D62E7EE6E72E76E0F72E05E674
:1022500013E024E433E04BE453E061E471E08EE307
:1022600093E038C225EFA22E22E0B22E32EAC32E2E
:1022700033E0D32E4EE6E42E46E0F42E0FE913E0D1
:1022800028E333E045E853E062E471E088E793E057
:1022900021C281309105E9F08230910589F10097E2
:1022A00009F045C005EFA02E02E0B02E8CEDC82E3F
:1022B00083E0D82E97E7E92E96E0F92E0AED13E099
:1022C00020E533E04FEB53E066E471E082EB93E00E
:1022D00001C2A5EFAA2EA2E0BA2EB5E1CB2EB4E042
:1022E000DB2E17E7E12E16E0F12E03E114E024E4E3
:1022F00033E049EF53E067E471E08CEE93E0EAC12C
:1023000075EFA72E72E0B72EEEE4CE2EE4E0DE2EBF
:10231000F7E7EF2EF6E0FF2E0CE414E028E333E0BD
:1023200042E354E068E471E085E294E0D3C1813097
:102330009105E9F08230910589F1009709F045C0D7
:1023400044EFA42E42E0B42E59E8C52E54E0D52E19
:1023500060E8E62E66E0F62E06E814E020E533E0BD
:102360004BE654E06CE471E08EE594E0B3C194EF89
:10237000A92E92E0B92E23ECC22E24E0D22E30E812
:10238000E32E36E0F32E00EC14E024E433E046EADA
:1023900054E06DE471E089E994E09CC114EFA12E52
:1023A00012E0B12E0DEFC02E04E0D02E80E8E82E12
:1023B00086E0F82E0AEF14E028E333E040EE54E024
:1023C0006EE471E083ED94E085C181309105E9F020
:1023D0008230910589F1009709F045C0F4EFAF2EE6
:1023E000F2E0BF2EA8E3CA2EA5E0DA2EB8E8EB2E65
:1023F000B6E0FB2E05E315E020E533E04AE155E0C9
:1024000062E571E08DE095E065C164EFA62E62E0C3
:10241000B62E72E7C72E75E0D72EE8E8EE2EE6E07E
:10242000FE2E0FE615E024E433E045E555E063E5D4
:1024300071E088E495E04EC134EFA32E32E0B32E74
:102440004CEAC42E45E0D42E58E8E52E56E0F52E91
:1024500009EA15E028E333E04FE855E064E571E070
:1024600082E895E037C181309105E9F0823091052D
:1024700089F1009709F045C083EFA82E82E0B82EBD
:1024800097EEC92E95E0D92E20E8E22E26E0F22E16
:1024900004EE15E020E533E049EC55E068E571E035
:1024A0008CEB95E017C1B3EFAB2EB2E0BB2E11E27F
:1024B000C12E16E0D12E00E8E02E06E0F02E0EE14F
:1024C00016E024E433E044E056E069E571E087EF8C
:1024D00095E000C1E3EFAE2EE2E0BE2EFBE5CF2E8D
:1024E000F6E0DF2EA0E8EA2EA6E0FA2E08E516E0D8
:1024F00028E333E04EE356E06AE571E081E396E0DD
:10250000E9C081309105E9F08230910589F10097A9
:1025100009F045C053EFA52E52E0B52E66E9C62E50
:1025200066E0D62E78E8E72E76E0F72E03E916E08F
:1025300020E533E048E756E06EE571E08BE696E093
:10254000C9C023EFA22E22E0B22E30EDC32E36E01A
:10255000D32E48E8E42E46E0F42E0DEC16E024E4F9
:1025600033E043EB56E06FE571E086EA96E0B2C0F7
:1025700003EFA02E02E0B02E8AE0C82E87E0D82E0E
:1025800098E8E92E96E0F92E07E017E028E333E01B
:102590004DEE56E060E671E080EE96E09BC0813043
:1025A0009105E9F08230910589F1009709F045C065
:1025B000A5EFAA2EA2E0BA2EB5E4CB2EB7E0DB2E13
:1025C00010E8E12E16E0F12E02E417E020E533E0FA
:1025D00047E257E064E671E08AE197E07BC075EF7F
:1025E000A72E72E0B72EEFE7CE2EE7E0DE2EF0E862
:1025F000EF2EF6E0FF2E0CE717E024E433E042E68E
:1026000057E065E671E085E597E064C045EFA42EEC
:1026100042E0B42E59EBC52E57E0D52E60E8E62EE9
:1026200066E0F62E06EB17E028E333E04CE957E0CE
:1026300066E671E08FE897E04DC081309105E9F0E2
:102640008230910589F1892B09F046C095EFA92EBA
:1026500092E0B92E24EFC22E27E0D22E38E8E32EE6
:1026600036E0F32E01EF17E020E533E046ED57E0CA
:102670006AE671E089EC97E02DC015EFA12E12E01B
:10268000B12E0EE2C02E08E0D02E88E8E82E86E0BB
:10269000F82E0BE218E024E433E041E158E06BE669
:1026A00071E084E098E016C0F5EFAF2EF2E0BF2EA7
:1026B000A8E6CA2EA8E0DA2EB8E8EB2EB6E0FB2E8C
:1026C00005E618E028E333E04BE458E06CE671E0FF
:1026D0008EE398E00E94D20E1F910F91FF90EF9031
:1026E000DF90CF90BF90AF900895BF92CF92DF92CE
:1026F000EF92FF920F931F93CF93DF93EC010E9411
:10270000A5140091A8031091A9032091AA03309168
:10271000AB03601771078207930708F45AC00E9441
:10272000A5146C507E4F8F4F9F4F6093A8037093FA
:10273000A9038093AA039093AB03E12CF12CC090E2
:10274000F302D090F602BD2C28C0B801C7010E9448
:10275000D610B801C7010E9416099C81882371F028
:102760009D1571F0CE01DF91CF911F910F91FF90D8
:10277000EF90DF90CF90BF900C94851E9C11F2CF0C
:10278000BC820F5F1F4F08301105F9F62FEFE21AD8
:10279000F20A83E0E816F10419F000E010E0D5CF6A
:1027A0008091A8039091A903A091AA03B091AB03D3
:1027B000803D9740A105B10560F0CE01DF91CF913A
:1027C0001F910F91FF90EF90DF90CF90BF900C94EE
:1027D000811EDF91CF911F910F91FF90EF90DF90BD
:1027E000CF90BF9008954FE16CE87AE08CE493E0DD
:1027F0000E946B1E81E692E090934D0380934C0300
:102800004FE166E87AE080E493E00E946B1E8DE67B
:1028100092E090934103809340034FE160E87AE0B7
:1028200084E393E00E946B1E89E792E09093350366
:102830008093340363E77AE088E293E00E941A1FF2
:1028400085E892E0909329038093280367E67AE075
:102850008CE193E00E941A1F83E992E090931D039C
:1028600080931C0368E57AE080E193E00E941A1FE0
:1028700081EA92E090931103809310034FE163E5A6
:102880007AE084E093E00E946B1E8FEA92E09093DE
:102890000503809304034FE16BE47AE088EF92E054
:1028A0000E946B1E8BEB92E09093F9028093F802EA
:1028B00008950C9478081F920F920FB60F9211246E
:1028C0002F933F938F939F93AF93BF938091AC03CC
:1028D0009091AD03A091AE03B091AF033091B403DA
:1028E000232F2D5F2D3720F40196A11DB11D05C0AA
:1028F000232F2A570296A11DB11D2093B403809364
:10290000AC039093AD03A093AE03B093AF0380915B
:10291000B0039091B103A091B203B091B3030196BB
:10292000A11DB11D8093B0039093B103A093B20396
:10293000B093B303BF91AF919F918F913F912F912E
:102940000F900FBE0F901F9018950F931F938FB786
:10295000F8940091AC031091AD032091AE03309137
:10296000AF038FBFB801C9011F910F9108957894EB
:1029700084B5826084BD84B5816084BD85B5826084
:1029800085BD85B5816085BDEEE6F0E08081816022
:102990008083E1E8F0E01082808182608083808122
:1029A00081608083E0E8F0E0808181608083E1EBFA
:1029B000F0E0808184608083E0EBF0E080818160E2
:1029C0008083E1E9F0E080818260808380818160A2
:1029D0008083E0E9F0E0808181608083E1EAF0E0DB
:1029E000808182608083808181608083E0EAF0E082
:1029F000808181608083E1E2F1E080818260808378
:102A0000808181608083E0E2F1E080818160808369
:102A1000EAE7F0E080818460808380818260808347
:102A20008081816080838081806880831092C10072
:102A300008950C9417200895CF92DF92EF92FF92A1
:102A40000F931F93CF93DF936C01EB017A01E60E96
:102A5000F71E00E010E00BC06991D601ED91FC91EA
:102A60000190F081E02DC6011995080F191FCE15B0
:102A7000DF0591F7C801DF91CF911F910F91FF9072
:102A8000EF90DF90CF900895DB010D900020E9F7E3
:102A9000AD0141505109461B570BDC01ED91FC91F2
:102AA0000280F381E02D1994EF92FF920F931F9310
:102AB000CF93DF937C01EB0100E010E0FE01219653
:102AC0006491662351F0F701A081B181ED91FC91F1
:102AD000C7011995080F191FF1CFC801DF91CF91D8
:102AE0001F910F91FF90EF9008950C944415DC0115
:102AF000ED91FC910190F081E02D1994DB01ED91B5
:102B0000FC9111970190F081E02DBC01CD01199449
:102B10000F931F93CF93DF93EC016DE00E94771525
:102B20008C016AE0CE010E9477159C01200F311FB5
:102B3000C901DF91CF911F910F9108950F931F93BA
:102B4000CF93DF93EC010E9454158C01CE010E94BB
:102B500088159C01200F311FC901DF91CF911F9172
:102B60000F9108954F925F926F927F929F92AF92D2
:102B7000BF92CF92DF92EF92FF920F931F93CF936A
:102B8000DF93CDB7DEB7A1970FB6F894DEBF0FBEC7
:102B9000CDBF5C016A017B01922E19A281E08217F0
:102BA00010F08AE0982E8E010F5D1F4F492C512C9A
:102BB000612C712CC701B601A30192010E94F22081
:102BC0008C2D929E80191124015011098A3014F421
:102BD000805D01C0895CF801808369017A01C114BC
:102BE000D104E104F10431F7B801C5010E94441594
:102BF000A1960FB6F894DEBF0FBECDBFDF91CF9187
:102C00001F910F91FF90EF90DF90CF90BF90AF900A
:102C10009F907F906F905F904F90089521153105A0
:102C200041F4DC01ED91FC910190F081E02D642FE5
:102C300019940C94B2159A01AB0160E070E00C9409
:102C40000E169A01462F50E060E070E00C940E16CC
:102C5000CF92DF92EF92FF920F931F93CF93DF9368
:102C6000EC016A017B012115310579F4E881F981D4
:102C70000190F081E02D642FDF91CF911F910F9192
:102C8000FF90EF90DF90CF9019942A30310519F41E
:102C900077FD0EC02AE0B701A601CE01DF91CF91EA
:102CA0001F910F91FF90EF90DF90CF900C94B21591
:102CB0006DE20E9477158C0144275527BA014C1903
:102CC0005D096E097F092AE0CE010E94B215080F46
:102CD000191FC801DF91CF911F910F91FF90EF90C5
:102CE000DF90CF9008959A01AB01662757FD60955C
:102CF000762F0C9428160E94B7140E941E08C0EF6D
:102D0000D7E10E9432082097E1F30E94F017F9CF33
:102D1000FC0184859585FC01E05CFF4F20813181B9
:102D2000FC01EE5BFF4F80819181281B390B2F73D3
:102D30003327C9010895FC0184859585FC01E05C79
:102D4000FF4F40815181FC01EE5BFF4F20813181BB
:102D50004217530741F00190F081E02DE80FF91F71
:102D6000208130E002C02FEF3FEFC9010895FC0140
:102D700084859585FC01E05CFF4F40815181FC0119
:102D8000EE5BFF4F208131814217530781F0A08114
:102D9000B181A80FB91F8C91208131812F5F3F4FE6
:102DA0002F73332731832083282F30E002C02FEF89
:102DB0003FEFC9010895FC0186859785FC01E05C21
:102DC000FF4FDC01AE5BBF4F408151812D913C91A3
:102DD000119742175307C1F70895CF93DF93FC0172
:102DE00086859785DC01A05CBF4F2D913C911197A2
:102DF0002F5F3F4F2F733327EC01CE5BDF4F4881AE
:102E0000598124173507D9F30D90BC91A02DA80F37
:102E1000B91F6C93A685B785A05CBF4F11963C93F4
:102E20002E93A689B7892C9181E090E0058C02C091
:102E3000880F991F0A94E2F7282B2C9381E090E0E9
:102E4000DF91CF910895FB01E05CFF4F208131813C
:102E50002F5F3F4F2F733327DB01AE5BBF4F4D9189
:102E60005C912417350739F0A081B181A60FB71FF7
:102E70008C9331832083089508951F920F920FB68B
:102E80000F9211240BB60F922F933F934F935F93A2
:102E90006F937F938F939F93AF93BF93EF93FF9322
:102EA0008091C6006DE076E00E942317FF91EF91BC
:102EB000BF91AF919F918F917F916F915F914F9152
:102EC0003F912F910F900BBE0F900FBE0F901F9050
:102ED000189508951F920F920FB60F9211240BB6FA
:102EE0000F922F933F934F935F936F937F938F93A3
:102EF0009F93AF93BF93EF93FF938091CE0065E8CC
:102F000075E00E942317FF91EF91BF91AF919F91C0
:102F10008F917F916F915F914F913F912F910F9082
:102F20000BBE0F900FBE0F901F90189508951F9223
:102F30000F920FB60F9211240BB60F922F933F935F
:102F40004F935F936F937F938F939F93AF93BF93B1
:102F5000EF93FF938091D6006DEF74E00E942317EA
:102F6000FF91EF91BF91AF919F918F917F916F9161
:102F70005F914F913F912F910F900BBE0F900FBE1D
:102F80000F901F90189508951F920F920FB60F92F1
:102F900011240BB60F922F933F934F935F936F9330
:102FA0007F938F939F93AF93BF93EF93FF93809102
:102FB000360165E774E00E942317FF91EF91BF91FE
:102FC000AF919F918F917F916F915F914F913F91C1
:102FD0002F910F900BBE0F900FBE0F901F90189562
:102FE00082E194E00E948816892B11F00E943C1720
:102FF00083EF93E00E948816892B11F00E946917D5
:1030000084ED93E00E948816892B11F00E94961798
:1030100085EB93E00E948816892B11F00C94C3175E
:1030200008951F920F920FB60F9211240BB60F92B4
:103030002F933F938F939F93EF93FF9320910906D4
:1030400030910A0680910B0690910C0628173907DB
:1030500031F48091C1008F7D8093C10014C0E09154
:103060000B06F0910C06E753FA4F208180910B0676
:1030700090910C0601968F73992790930C0680937C
:103080000B062093C600FF91EF919F918F913F9186
:103090002F910F900BBE0F900FBE0F901F901895A1
:1030A0001F920F920FB60F9211240BB60F922F930F
:1030B0003F938F939F93EF93FF93209181053091DE
:1030C000820580918305909184052817390731F492
:1030D0008091C9008F7D8093C90014C0E091830561
:1030E000F0918405EF5BFA4F2081809183059091E8
:1030F000840501968F7399279093840580938305A7
:103100002093CE00FF91EF919F918F913F912F914E
:103110000F900BBE0F900FBE0F901F9018951F922F
:103120000F920FB60F9211240BB60F922F933F936D
:103130008F939F93EF93FF932091F9043091FA04BA
:103140008091FB049091FC042817390731F4809199
:10315000D1008F7D8093D10014C0E091FB04F091E9
:10316000FC04E754FB4F20818091FB049091FC0408
:1031700001968F7399279093FC048093FB0420930E
:10318000D600FF91EF919F918F913F912F910F90DA
:103190000BBE0F900FBE0F901F9018951F920F92AD
:1031A0000FB60F9211240BB60F922F933F938F936C
:1031B0009F93EF93FF93209171043091720480915B
:1031C0007304909174042817390731F48091310108
:1031D0008F7D8093310114C0E0917304F0917404E9
:1031E000EF5CFB4F208180917304909174040196F1
:1031F0008F739927909374048093730420933601FE
:10320000FF91EF919F918F913F912F910F900BBE66
:103210000F900FBE0F901F901895CF92DF92EF92F4
:10322000FF92CF93DF93EC016A017B01411581EEA0
:10323000580761057105F9F0EC89FD8981E090E09E
:103240000E8C02C0880F991F0A94E2F7808360E019
:1032500079E08DE390E0A70196010E94F2202150D1
:1032600031094109510956954795379527952115FB
:1032700080E1380798F0EC89FD89108260E874E8F5
:103280008EE190E0A70196010E94F22021503109C1
:10329000410951095695479537952795E889F98948
:1032A0003083EA89FB892083EE89FF89408181E0B0
:1032B00090E09C010A8C02C0220F331F0A94E2F7AF
:1032C000422B4083EE89FF8940819C010B8C02C018
:1032D000220F331F0A94E2F7422B4083EE89FF89C5
:1032E00040819C010C8C02C0220F331F0A94E2F72C
:1032F000422B4083EE89FF8920810D8C02C0880F0C
:10330000991F0A94E2F7809582238083DF91CF9101
:10331000FF90EF90DF90CF900895CF931092150417
:103320001092140488EE93E0A0E0B0E080931604BD
:1033300090931704A0931804B093190427EC32E07B
:1033400030931304209312044DE056E050931F0471
:1033500040931E0449EC55E050932104409320040F
:1033600045EC50E0509323044093220444EC50E099
:10337000509325044093240440EC50E050932704DC
:103380004093260441EC50E05093290440932804D4
:1033900046EC50E050932B0440932A04C4E0C093C1
:1033A0002C04F3E0F0932D04E7E0E0932E0475E0A5
:1033B00070932F0461E0609330041092F603109232
:1033C000F5038093F7039093F803A093F903B09368
:1033D000FA033093F4032093F30345E855E0509348
:1033E00000044093FF0341E455E0509302044093EE
:1033F00001044DEC50E050930404409303044CEC62
:1034000050E0509306044093050448EC50E050937C
:1034100008044093070449EC50E050930A04409399
:1034200009044EEC50E050930C0440930B04C093FD
:103430000D04F0930E04E0930F0470931004609356
:1034400011041092D7031092D6038093D80390935F
:10345000D903A093DA03B093DB033093D503209311
:10346000D4034DEF54E05093E1034093E00349EB64
:1034700054E05093E3034093E20345ED50E0509352
:10348000E5034093E40344ED50E05093E703409399
:10349000E60340ED50E05093E9034093E80341ED2B
:1034A00050E05093EB034093EA0346ED50E0509315
:1034B000ED034093EC03C093EE03F093EF03E0932E
:1034C000F0037093F1036093F2031092B80310922B
:1034D000B7038093B9039093BA03A093BB03B0934F
:1034E000BC033093B6032093B50385E794E0909333
:1034F000C2038093C10381E394E09093C40380935B
:10350000C30385E391E09093C6038093C50384E3EE
:1035100091E09093C8038093C70380E391E0909378
:10352000CA038093C90381E391E09093CC03809315
:10353000CB0386E391E09093CE038093CD03C093B9
:10354000CF03F093D003E093D1037093D203609341
:10355000D303CF9108950895CF93DF93EC01E881D1
:10356000F9810084F185E02D19958C81813011F469
:1035700083E08C83DF91CF9108959B01FC016281F0
:1035800073818481958197FF03C0C9010C94541500
:10359000C9010C9475150F931F93CF93DF93B62F2A
:1035A000A72FFA01422FEC010A811B812C813D815A
:1035B000E00FF11F50E037FF09C0BF018B2F9A2F9A
:1035C000DF91CF911F910F910C94B920BF018B2FE8
:1035D0009A2FDF91CF911F910F910C94CB20CF9315
:1035E000DF93FC0182819381A481B581B7FF04C080
:1035F000DF91CF910C94C220C82FD92FFE010190EA
:103600000020E9F73197EC1BFD0BCF01DF91CF9143
:103610000895AF92BF92CF92DF92EF92FF920F93F5
:103620001F93CF93DF93CDB7DEB728970FB6F894EB
:10363000DEBF0FBECDBF6C015B0100E010E083E098
:10364000E82EF12CE022F122E114F10481F424E0CF
:10365000A801BE016B5F7F4FC6010E94CB1A24E018
:10366000A801BE016F5F7F4FC5010E94CB1AE5E044
:10367000F0E0EC0FFD1FEE0DFF1D8081E1E0F0E0BA
:10368000EC0FFD1FEE0DFF1D9081891738F0981784
:1036900038F0882339F00F5F1F4FD1CF8FEF03C071
:1036A00081E001C080E028960FB6F894DEBF0FBE1F
:1036B000CDBFDF91CF911F910F91FF90EF90DF90E1
:1036C000CF90BF90AF9008952F923F924F925F920C
:1036D0006F927F928F929F92AF92BF92CF92DF9222
:1036E000EF92FF920F931F93CF93DF93CDB7DEB787
:1036F00061970FB6F894DEBF0FBECDBF4C016B01D2
:103700006DB67EB67F866E86DB010D900020E9F7F0
:103710008D0101501109061B170B0D870E94EF1A2E
:103720005C01F801FF27FA87E987CF0102969C0127
:103730002770332741E0232B09F440E053E09595AF
:1037400087955A95E1F7542E580E852D90E06DB669
:103750007EB6681A790A0FB6F8947EBE0FBE6DBEAB
:10376000EDB6FEB62FEFE21AF20A4DB75EB7481B70
:10377000590B0FB6F8945EBF0FBE4DBF8DB79EB705
:10378000019617018C01452D50E060E070E0C70103
:103790000E94D42081E0D7018C9341E081E090E049
:1037A00014C0242F269526952695F701E20FF11DCA
:1037B000242F27703C0102C0660C771C2A95E2F783
:1037C00093013081322B30834F5FF601E40FF11DFE
:1037D000319720812A3229F3E12CF12C95013327EE
:1037E0003C872B872F5F3F4F398B288B4A2C439484
:1037F000AA24A394B12CB6C037E0632E712C6E209E
:103800007F206114710489F4888999898E199F0930
:1038100008971CF4242D2E1901C028E0A701BE0131
:103820006F5F7F4FC4010E94CB1AE1E0F0E0EC0F24
:10383000FD1FE60DF71D7080452D50E060E070E043
:10384000C8010E94D42080E090E0A72DB0E0AC0138
:1038500047705527FC0123E0F595E7952A95E1F798
:10386000E20DF31D208130E0042E02C0359527952E
:103870000A94E2F720FF67C0F601E80FF91F2081E4
:103880002A3229F5282F382F369536953695F801A6
:10389000E30FF11DB50102C0660F771F4A95E2F7ED
:1038A0003081362B30832F5F322F36953695369503
:1038B000F801E30FF11D2770350102C0660C771C7B
:1038C0002A95E2F793013081322B30833CC03327B5
:1038D00027FD30952A173B07B1F5682F6F5F262F1C
:1038E000269526952695F801E20FF11D262F2770C3
:1038F000A50102C0440F551F2A95E2F79A013081B5
:10390000322B308320E030E014C0462F420F542F7A
:10391000569556955695F801E50FF11D47703501FE
:1039200002C0660C771C4A95E2F7A3015081542B24
:103930005083462F420FF601E40FF11D40812F5FA7
:103940003F4F4A3211F3019669847A8468167906EA
:103950000CF07DCF2FEFE21AF20A902F812F810118
:10396000292E382E6B847C846E147F040CF044CF97
:103970002D852F5F822F869586958695F101E80F1C
:10398000F11D808190E0277002C0959587952A955A
:10399000E2F781706E847F840FB6F8947EBE0FBE0E
:1039A0006DBE61960FB6F894DEBF0FBECDBFDF913E
:1039B000CF911F910F91FF90EF90DF90CF90BF902C
:1039C000AF909F908F907F906F905F904F903F90BF
:1039D0002F900895FF920F931F93CF93DF93EC01E5
:1039E000E0915906F0915A06848101E0833009F094
:1039F00000E011E0843009F010E0FF24F3948230FD
:103A000009F0F12C011105C011110FC0F1101AC0FD
:103A10006BC020915506309156062F5F3F4F309373
:103A2000560620935506112351F0209153063091EC
:103A300054062F5F3F4F3093540620935306FF20C8
:103A400009F4C8C020915106309152062F5F3F4FB4
:103A500030935206209351068091140283FFBAC01E
:103A60008091130283FDBBC0309709F4B3C08581F8
:103A700083FDB5C0AFC08091140282FFADC08091BC
:103A8000130282FDACC0309709F4A6C0858182FD87
:103A9000A6C0A2C08091140281FF26C080911302AB
:103AA00081FD9DC0309701F1858181FD98C01CC0CA
:103AB00069E97AE080911102909112020E949E15AC
:103AC000002341F063EA7AE08091110290911202A2
:103AD0000E949E15112341F06CEA7AE08091110258
:103AE000909112020E949E1580915B0690915C0657
:103AF000892B09F089C08091140280FF85C08091D4
:103B0000130280FD0AC0E0915906F0915A063097E1
:103B100009F47AC0858180FF77C065EB7AE08091F7
:103B20001102909112020E945415609155067091F5
:103B300056064AE050E080911102909112020E94D4
:103B40001B1664EC7AE080911102909112020E949F
:103B5000541560915306709154064AE050E08091EC
:103B60001102909112020E941B166EEC7AE0809175
:103B70001102909112020E945415609151067091A9
:103B800052064AE050E080911102909112020E9488
:103B90001B166CED7AE080911102909112020E9446
:103BA000541560915706709158064AE050E0809194
:103BB0001102909112020E941B166EEE7AE0809123
:103BC000110290911202DF91CF911F910F91FF90FE
:103BD0000C949E1501114FCF11115CCF85CF63E975
:103BE0007AE080911102909112020E945415BE0158
:103BF0006A5F7F4F80911102909112020E947E15A0
:103C0000FF2009F45DCF54CFDF91CF911F910F9129
:103C1000FF900895E0915B06F0915C06ABE5B6E09D
:103C20000DC0E817F90729F4828193818D939C9345
:103C30000895DF0112960280F381E02D309789F715
:103C400008952DED32E0FC01318320830C940A1E8F
:103C5000CF93DF93EC010E94211ECE01DF91CF9123
:103C60000C941915EF92FF920F931F93CF93DF934C
:103C70008C01FC011482CBE5D6E07C01F6E0EF0E6E
:103C8000F11C1CC06A5F7F4FC7010E94091B1816F8
:103C90008CF088819981F80193838283198308834A
:103CA00080915706909158060196909358068093FC
:103CB00057060AC00990D881C02D22966881798163
:103CC00061157105F9F6E5CFDF91CF911F910F9145
:103CD000FF90EF9008952DED32E0FC0131832083B9
:103CE000458327ED32E037832683AB01662757FDF6
:103CF0006095762F706840875187628773870C9430
:103D0000321E23E0FC012483089524E0FC01248377
:103D1000089522E0FC01248308951F93CF93DF933D
:103D2000CBE5D6E011E038C090935A06809359064F
:103D3000DC0114962C911497213039F4ED91FC910B
:103D40000280F381E02D199511C021110FC0DC0113
:103D5000ED91FC910190F081E02D1995E0915906CB
:103D6000F0915A068481811101C01483E0915906B3
:103D7000F0915A068481E881F981813059F082817D
:103D80009381998388838091590690915A060E9465
:103D9000EA1C02C0EF01229688819981009721F6E2
:103DA000DF91CF911F9108950F931F93CF93DF93CE
:103DB0008C01C0915B06D0915C060DC08C81823075
:103DC00039F4B801CE0106960E94641B811106C029
:103DD0000A80DB81C02D209789F702C01C82F8CFB2
:103DE000DF91CF911F910F910895FF920F931F9331
:103DF000CF93DF938C01C0915B06D0915C0662E0AB
:103E0000F62E0DC08C81811107C0B801CE01069637
:103E10000E94641B811106C00A80DB81C02D20979F
:103E200089F702C0FC82F8CFDF91CF911F910F91EB
:103E3000FF900895CF93DF93EC014FE10E946B1E3A
:103E400089EE92E099838883DF91CF910895FB01F9
:103E500060817181FC01808191810E94DB20892F2A
:103E6000881F8827881F0895FB0160817181FC01EC
:103E7000808191810E94DB209C0181E01216130653
:103E80000CF480E00895FB0160817181FC01808168
:103E900091810E94DB209C0181E0232B09F080E0CE
:103EA0000895FB0160817181FC01808191810E94F4
:103EB000DB209C0181E0232B09F480E00895FB01C5
:103EC00060817181FC01808191810E94DB20892FBA
:103ED0008095881F8827881F0895FB016081718164
:103EE000FC01808191810E94DB209C0181E01216FF
:103EF00013060CF080E008950F931F93CF93DF9388
:103F00008230910510F482E090E0E0915F06F0913C
:103F1000600620E030E0C0E0D0E023C04081518165
:103F200048175907A8F04817590761F4828193810F
:103F3000209719F09B838A832EC09093600680930C
:103F40005F0629C02115310529F04217530710F0EB
:103F5000A90102C0BE01DF0102811381EF019A01B4
:103F6000F8013097D9F62115310509F1281B390BD5
:103F70002430310590F412968D919C911397611520
:103F8000710521F0FB019383828304C09093600646
:103F900080935F06FD01329644C0FD01E20FF31FDE
:103FA00081939193225031092D933C933AC02091F3
:103FB0005D0630915E06232B41F420910202309180
:103FC000030230935E0620935D062091000230913B
:103FD00001022115310541F42DB73EB7409104028D
:103FE00050910502241B350BE0915D06F0915E06B1
:103FF000E217F307A0F42E1B3F0B2817390778F0C0
:10400000AC014E5F5F4F2417350748F04E0F5F1F1E
:1040100050935E0640935D068193919302C0E0E069
:10402000F0E0CF01DF91CF911F910F910895EF92B2
:10403000FF920F931F93CF93DF93009709F48FC0E4
:10404000DC01129713961C921E921297E0905F0665
:10405000F0906006E114F10489F42D913C911197E0
:10406000280F391F80915D0690915E068217930795
:1040700089F5B0935E06A0935D0671C0E70120E06C
:1040800030E001C0EA01CA17DB0738F44A815B81DE
:104090009E0141155105B1F722C0BC016250710962
:1040A000FB01D383C28300811181AC01400F511FFA
:1040B0004C175D0761F448815981400F511F4E5FD5
:1040C0005F4F518340834A815B8153834283211533
:1040D000310529F4B0936006A0935F0640C0F90152
:1040E000B383A283E90169917991C60FD71FAC17F9
:1040F000BD0779F4DC015E914E91460F571F4E5F6C
:104100005F4F5183408312968D919C9113979383B7
:104110008283A0E0B0E002C0D7017C01F701828178
:1041200093810097C9F7C701029620813181820FE0
:10413000931F20915D0630915E062817390779F4A8
:10414000109729F41092600610925F0604C013962F
:104150001C921E921297F0925E06E0925D06DF912D
:10416000CF911F910F91FF90EF900895F8940C94C8
:104170001821FB01DC0102C005900D924150504016
:10418000D8F70895FC0105900020E9F780959095F7
:104190008E0F9F1F0895FB01DC0102C001900D925C
:1041A00041505040D8F70895DC0101C06D93415053
:1041B0005040E0F70895FB01DC018D9101908019DA
:1041C0000110D9F3990B0895FB01DC0141505040D7
:1041D00030F08D910190801919F40020B9F7881BF7
:1041E000990B0895A1E21A2EAA1BBB1BFD010DC05D
:1041F000AA1FBB1FEE1FFF1FA217B307E407F50797
:1042000020F0A21BB30BE40BF50B661F771F881F72
:10421000991F1A9469F760957095809590959B0108
:10422000AC01BD01CF0108950790F691E02D1994DE
:104230001BE0C4EEDBE000E006C022970109FE01AE
:104240000BBF0E941421C63ED10780E00807A9F7E2
:04425000F894FFCF10
:104254000000610620005702590258025B02000068
:10426400011204013F696E636C75646500657863CF
:104274006C756465006D61785F766572626F7369F1
:104284007479006D696E5F766572626F73697479B3
:104294000072756E00756E6B6E6F776E20636F6D56
:1042A4006D616E643A2027006161006200000000C5
:1042B40000AB1AF8069106980600000000AB1AE657
:1042C40006A206A90600000000AB1A0A07B306BA44
:1042D4000600000000AB1AAC1A45084C08630C0039
:1042E400000000AB1AAC1A56085D08A90B000000C8
:1042F40000AB1AAC1A67086E086B0E00000000AB26
:104304001A7513C406CB0600000000AB1ABC0FD507
:1043140006DC0600000000ED161C158816B7169B77
:1043240016DB1600000000BD1A00000000AB1A1BCB
:1043340015211E281E00000000AB1AAC1A3E089876
:08434400081B1504030201002F
:00000001FF
