:100000000C947F050C94AC050C94AC050C94AC05D9
:100010000C94AC050C94AC050C94AC050C94AC059C
:100020000C94AC050C94AC050C94AC050C94AC058C
:100030000C94AC050C94AC050C94AC050C94AC057C
:100040000C94AC050C94AC050C94AC050C94AC056C
:100050000C94AC050C94AC050C94AC050C941A15DE
:100060000C94AC050C94D3150C94FF160C94AC05B1
:100070000C94AC050C94AC050C94AC050C94AC053C
:100080000C94AC050C94AC050C94AC050C94AC052C
:100090000C940C160C943E170C94AC050C94AC0507
:1000A0000C94AC050C94AC050C94AC050C94AC050C
:1000B0000C94AC050C94AC050C94AC050C94AC05FC
:1000C0000C94AC050C94AC050C94AC050C94451642
:1000D0000C947D170C94AC050C947E160C94BC17F4
:1000E0000C94AC05706173736573006661696C7321
:1000F00000736B697073006173736572745F626F14
:100100006F6C73006173736572745F696E747300F2
:100110006173736572745F737472696E6773006D77
:10012000657461006F766572616C6C005465737400
:100130003A3A444F4E455F50415353003D3D0074A1
:100140006573745F6D6574615F696E7374616E630E
:10015000652E7374617465006669726D776172658E
:100160002E696E6F00546573743A3A444F4E455F82
:1001700050415353003D3D00746573745F61737368
:100180006572745F737472696E67735F696E73749E
:10019000616E63652E7374617465006669726D7754
:1001A0006172652E696E6F00546573743A3A444FFC
:1001B0004E455F50415353003D3D00746573745F7D
:1001C0006173736572745F696E74735F696E737463
:1001D000616E63652E7374617465006669726D7714
:1001E0006172652E696E6F00546573743A3A444FBC
:1001F0004E455F50415353003D3D00746573745F3D
:100200006173736572745F626F6F6C735F696E7335
:1002100074616E63652E7374617465006669726DD6
:10022000776172652E696E6F00546573743A3A4453
:100230004F4E455F534B4950003D3D00746573740C
:100240005F736B6970735F696E7374616E63652E43
:100250007374617465006669726D776172652E6989
:100260006E6F00546573743A3A444F4E455F464191
:10027000494C003D3D00746573745F6661696C7341
:100280005F696E7374616E63652E7374617465006B
:100290006669726D776172652E696E6F0054657361
:1002A000743A3A444F4E455F50415353003D3D0030
:1002B000746573745F7061737365735F696E737473
:1002C000616E63652E7374617465006669726D7723
:1002D0006172652E696E6F0029003D00202800299B
:1002E00020003D00206173736572742028006661F0
:1002F000696C0070617373003A313A20003A00541F
:100300006573743A3A444F4E455F534B4950002150
:100310003D00746573745F736B6970735F696E73AE
:1003200074616E63652E7374617465006669726DC5
:10033000776172652E696E6F00546573743A3A4442
:100340004F4E455F534B495000213D007465737417
:100350005F6661696C735F696E7374616E63652E4D
:100360007374617465006669726D776172652E6978
:100370006E6F00546573743A3A444F4E455F534B69
:10038000495000213D00746573745F70617373653B
:10039000735F696E7374616E63652E7374617465E7
:1003A000006669726D776172652E696E6F005465C3
:1003B00073743A3A444F4E455F534B4950003D3DAC
:1003C00000746573745F736B6970735F696E7374C7
:1003D000616E63652E7374617465006669726D7712
:1003E0006172652E696E6F00546573743A3A444FBA
:1003F0004E455F534B4950003D3D00746573745F3B
:100400006661696C735F696E7374616E63652E7388
:1004100074617465006669726D776172652E696ECC
:100420006F00546573743A3A444F4E455F534B49DD
:1004300050003D3D00746573745F70617373657344
:100440005F696E7374616E63652E737461746500A9
:100450006669726D776172652E696E6F005465739F
:10046000743A3A444F4E455F4641494C00213D00A5
:10047000746573745F736B6970735F696E737461B5
:100480006E63652E7374617465006669726D776161
:1004900072652E696E6F00546573743A3A444F4E1C
:1004A000455F4641494C00213D00746573745F66A9
:1004B00061696C735F696E7374616E63652E7374CA
:1004C000617465006669726D776172652E696E6F21
:1004D00000546573743A3A444F4E455F4641494C67
:1004E00000213D00746573745F7061737365735FA1
:1004F000696E7374616E63652E73746174650066F2
:1005000069726D776172652E696E6F0054657374E0
:100510003A3A444F4E455F4641494C003D3D0074D8
:100520006573745F736B6970735F696E7374616E0A
:1005300063652E7374617465006669726D776172AC
:10054000652E696E6F00546573743A3A444F4E4598
:100550005F4641494C003D3D00746573745F6661C0
:10056000696C735F696E7374616E63652E73746119
:100570007465006669726D776172652E696E6F00D1
:10058000546573743A3A444F4E455F4641494C00B6
:100590003D3D00746573745F7061737365735F696B
:1005A0006E7374616E63652E737461746500666941
:1005B000726D776172652E696E6F00546573743A5F
:1005C0003A444F4E455F5041535300213D007465FE
:1005D00073745F736B6970735F696E7374616E635C
:1005E000652E7374617465006669726D77617265FA
:1005F0002E696E6F00546573743A3A444F4E455FEE
:100600005041535300213D00746573745F66616906
:100610006C735F696E7374616E63652E737461745D
:1006200065006669726D776172652E696E6F005440
:100630006573743A3A444F4E455F5041535300211D
:100640003D00746573745F7061737365735F696E89
:100650007374616E63652E7374617465006669728C
:100660006D776172652E696E6F00546573743A3AE6
:10067000444F4E455F50415353003D3D00746573F8
:10068000745F736B6970735F696E7374616E6365B9
:100690002E7374617465006669726D776172652E80
:1006A000696E6F00546573743A3A444F4E455F501B
:1006B000415353003D3D00746573745F6661696C1E
:1006C000735F696E7374616E63652E7374617465B4
:1006D000006669726D776172652E696E6F00546590
:1006E00073743A3A444F4E455F50415353003D3D79
:1006F00000746573745F7061737365735F696E73A3
:1007000074616E63652E7374617465006669726DE1
:10071000776172652E696E6F00546573743A3A445E
:100720004F4E455F534B4950003C00746573745FF6
:10073000736B6970735F696E7374616E63652E733A
:1007400074617465006669726D776172652E696E99
:100750006F00546573743A3A444F4E455F534B49AA
:1007600050003C00746573745F6661696C735F6907
:100770006E7374616E63652E73746174650066696F
:10078000726D776172652E696E6F00546573743A8D
:100790003A444F4E455F534B4950003C00746573DB
:1007A000745F7061737365735F696E7374616E6398
:1007B000652E7374617465006669726D7761726528
:1007C0002E696E6F00546573743A3A444F4E455F1C
:1007D000534B4950003E3D00746573745F736B6901
:1007E00070735F696E7374616E63652E7374617488
:1007F00065006669726D776172652E696E6F00546F
:100800006573743A3A444F4E455F534B4950003E2E
:100810003D00746573745F6661696C735F696E73C4
:1008200074616E63652E7374617465006669726DC0
:10083000776172652E696E6F00546573743A3A443D
:100840004F4E455F534B4950003E3D0074657374F5
:100850005F7061737365735F696E7374616E6365F6
:100860002E7374617465006669726D776172652EAE
:10087000696E6F0079003E0078006669726D77617D
:1008800072652E696E6F0079003E3D0078006669E2
:10089000726D776172652E696E6F007900213D007F
:1008A00078006669726D776172652E696E6F007986
:1008B000003D3D0078006669726D776172652E6952
:1008C0006E6F0079003C3D0078006669726D77615B
:1008D00072652E696E6F0079003C0078006669725F
:1008E0006D776172652E696E6F0029003D002028CA
:1008F000002920003D002061737365727420280078
:100900006661696C0070617373003A313A20003A95
:100910000079003E0078006669726D776172652E1D
:10092000696E6F0079003E3D0078006669726D77F0
:100930006172652E696E6F007900213D0078006656
:1009400069726D776172652E696E6F0079003D3D49
:100950000078006669726D776172652E696E6F004E
:1009600079003C3D0078006669726D776172652E92
:10097000696E6F0079003C0078006669726D77617E
:1009800072652E696E6F0029003D00202800292025
:10099000003D0020617373657274202800666169F0
:1009A0006C0070617373003A313A20003A0030787D
:1009B00030003D3D0078006669726D776172652E8A
:1009C000696E6F00307831003D3D007800666972D5
:1009D0006D776172652E696E6F0008200800636F85
:1009E0006D6D616E643E2000202072756E002020C7
:1009F0006D61785F766572626F73697479203C62AD
:100A0000696E617279206E756D6265723E0020209C
:100A10006D696E5F766572626F73697479203C628E
:100A2000696E617279206E756D6265723E0020207C
:100A30006578636C756465203C7061747465726E72
:100A40003E002020696E636C756465203C706174A3
:100A50007465726E3E00696E746572616374697666
:100A6000652074657374657220636F6D6D616E646B
:100A7000733A00546865206F766572616C6C2074FF
:100A80006573742073686F756C6420706173732E66
:100A90002E2E0020746573742873292E0020736B2A
:100AA00069707065642C206F7574206F662000205B
:100AB0006661696C65642C20616E64200020706141
:100AC000737365642C2000746573742073756D6D89
:100AD0006172793A2000206661696C65642E00209D
:100AE0007061737365642E0020736B697070656448
:100AF0002E00746573742000E5092619DE0911249F
:100B00001FBECFEFD1E2DEBFCDBF00E00CBF12E0D1
:100B1000A0E0B2E0E4EEF2E400E00BBF02C0079018
:100B20000D92AC3FB107D9F71BBE16E0ACEFB2E0B7
:100B300001C01D92A536B107E1F71AE0CCEFDAE06B
:100B400004C02297FE010E946121C83FD107C9F766
:100B50000E94D81B0C94B0060C940000CF93DF9336
:100B6000BC018230910510F462E070E0A091630650
:100B7000B0916406ED01E0E0F0E040E050E021C01B
:100B8000888199818617970769F48A819B813097BC
:100B900019F09383828304C0909364068093630664
:100BA000FE0134C06817790738F44115510519F072
:100BB0008417950708F4AC01FE018A819B819C0192
:100BC000E9012097E9F641155105A9F1CA01861BF3
:100BD000970B049708F4BA01E0E0F0E02AC08D9189
:100BE0009C91119784179507F9F46417750781F4A0
:100BF00012968D919C911397309719F0938382836D
:100C000004C09093640680936306FD0132964CC045
:100C1000CA01861B970BFD01E80FF91F61937193C1
:100C200002978D939C9340C0FD01828193819C012A
:100C3000D9011097A1F68091610690916206892BE7
:100C400041F480914F0290915002909362068093FC
:100C5000610640915102509152024115510541F4F3
:100C60004DB75EB780914D0290914E02481B590BD3
:100C70002091610630916206CA01821B930B861790
:100C8000970780F0AB014E5F5F4F8417950750F0D8
:100C9000420F531F5093620640936106F90161931E
:100CA000719302C0E0E0F0E0CF01DF91CF910895B1
:100CB000CF93DF93009709F450C0EC0122971B8279
:100CC0001A82A0916306B0916406109709F140E082
:100CD00050E0AC17BD0708F1BB83AA83FE01219148
:100CE0003191E20FF31FAE17BF0779F48D919C91FC
:100CF0001197280F391F2E5F3F4F39832883129693
:100D00008D919C9113979B838A834115510571F4B2
:100D1000D0936406C093630620C012968D919C9177
:100D20001397AD01009711F0DC01D3CFFA01D38303
:100D3000C28321913191E20FF31FCE17DF0769F4CF
:100D400088819981280F391F2E5F3F4FFA01318327
:100D500020838A819B8193838283DF91CF91089541
:100D6000F8940C946521FB01DC0102C005900D9202
:100D700041505040D8F70895FC0105900020E9F754
:100D8000809590958E0F9F1F0895FB01DC0102C096
:100D900001900D9241505040D8F70895DC0101C0F8
:100DA0006D9341505040E0F70895FB01DC018D91B7
:100DB000019080190110D9F3990B0895FB01DC0112
:100DC0004150504030F08D910190801919F400206D
:100DD000B9F7881B990B089542305105F1F0433063
:100DE00051053CF44115510571F04130510551F563
:100DF0000FC044305105D9F0443051059CF04530C6
:100E0000510501F519C020E086179707E4F418C0D2
:100E100020E068177907BCF013C020E08617970719
:100E200091F40EC020E08617970751F40CC020E023
:100E30008617970744F004C020E0681779071CF470
:100E400021E001C00895822F08956330710509F4EF
:100E500066C06430710554F46130710589F1623007
:100E600071050CF046C0672B91F0CCC06530710560
:100E700009F481C0653071050CF467C066307105F6
:100E800009F48FC06730710509F0BCC0A2C0813081
:100E9000910549F08230910551F0009789F420E0E6
:100EA0009091500307C020E090915C0303C020E0C4
:100EB000909168038091D902981708F4A4C0A0C04B
:100EC0008130910549F08230910579F0009789F4DD
:100ED00020E09091500303C020E090915C0380914A
:100EE000D902981708F08FC08BC020E0909168035A
:100EF000F6CF8130910549F08230910551F000978D
:100F000071F420E09091500307C020E090915C03C1
:100F100003C020E0909168038091DA0257C08130CD
:100F2000910549F08230910551F0009771F420E06D
:100F30009091500307C020E090915C0303C020E033
:100F4000909168038091DA0259C08130910549F08F
:100F50008230910551F0009771F420E09091500398
:100F600007C020E090915C0303C020E090916803EB
:100F70008091DB022BC08130910549F082309105D0
:100F800051F0009771F420E09091500307C020E0E9
:100F900090915C0303C020E0909168038091DB0294
:100FA0002DC08130910549F08230910551F00097B4
:100FB00081F420E09091500307C020E090915C0301
:100FC00003C020E0909168038091D9029817D9F46A
:100FD00017C08130910549F08230910551F0892B7D
:100FE00089F420E09091500307C020E090915C03C9
:100FF00003C020E0909168038091D902981719F0FE
:1010000021E001C020E0822F0895FC01DB0140E0D7
:10101000208131818D919C912817390709F441E095
:10102000842F0895FC01DB0140E0208131818D9106
:101030009C91281739070CF441E0842F0895DC01B6
:10104000FB0140E0208131818D919C912817390767
:101050000CF041E0842F0895FC01DB0140E0208189
:1010600031818D919C912817390709F041E0842F37
:101070000895FC01DB0140E0208131818D919C913C
:10108000281739070CF041E0842F0895DC01FB019B
:1010900040E0208131818D919C91281739070CF413
:1010A00041E0842F0895FC01DB0120E090818C91C8
:1010B000981708F021E0822F0895FC01DB0120E061
:1010C00090818C91981708F421E0822F0895FC01FB
:1010D000DB0120E090818C91981709F421E0822FA8
:1010E0000895FC01DB0120E090818C91981321E0B0
:1010F000822F0895FC0180EC92E091838083CF01E0
:101100000E94F81B0895FC0184EB92E09183808398
:10111000CF010E94F81B0895FC0188EA92E09183B8
:101120008083CF010E94F81B0895FC0180EE92E0BD
:1011300091838083CF010E94F81B0895FC0180EE0B
:1011400092E091838083CF010E94F81B0895FC01F7
:1011500080EE92E091838083CF010E94F81B089576
:10116000FC0182E792E091838083CF010E94F81B0B
:101170000895FC0186E692E091838083CF010E946E
:10118000F81B08950F931F938C0180EC92E0F801F7
:1011900091838083C8010E94F81BC8010E94E81B4C
:1011A0001F910F9108950F931F938C0184EB92E090
:1011B000F80191838083C8010E94F81BC8010E9436
:1011C000E81B1F910F9108950F931F938C0188EADC
:1011D00092E0F80191838083C8010E94F81BC80146
:1011E0000E94E81B1F910F9108950F931F938C018C
:1011F00080EE92E0F80191838083C8010E94F81B81
:10120000C8010E94E81B1F910F9108950F931F932F
:101210008C0180EE92E0F80191838083C8010E94E6
:10122000F81BC8010E94E81B1F910F9108950F93AE
:101230001F938C0180EE92E0F80191838083C801B6
:101240000E94F81BC8010E94E81B1F910F9108958E
:101250000F931F938C0182E792E0F80191838083C2
:10126000C8010E94F81BC8010E94E81B1F910F9142
:1012700008950F931F938C0186E692E0F801918305
:101280008083C8010E94F81BC8010E94E81B1F91BF
:101290000F9108958130910509F06AC06F5F7F4F0B
:1012A00009F08BC08CE493E064EE70E04FE10E94A3
:1012B000F92080EC92E090934D0380934C0388E5F5
:1012C00093E06BEE70E04FE10E94F92084EB92E036
:1012D000909359038093580384E693E061EF70E0A4
:1012E0004FE10E94F92088EA92E090936503809391
:1012F000640380E793E067EF70E00E9410218AE9C1
:1013000092E090937103809370038CE793E064E024
:1013100071E00E9410218CE892E090937D0380930D
:101320007C0388E893E060E171E00E9410218EE781
:1013300092E0909389038093880384E993E06FE1BE
:1013400071E04FE10E94F92082E792E090939503CB
:101350008093940380EA93E064E271E04FE10E949D
:10136000F92086E692E09093A1038093A00308956C
:10137000892B19F56F5F7F4F01F580EA93E00E949A
:10138000B90884E993E00E94B00888E893E00E94DD
:10139000A7088CE793E00E949E0880E793E00E94F4
:1013A000950884E693E00E948C0888E593E00E940B
:1013B00083088CE493E00E947A08089580E090E02E
:1013C0006FEF7FEF0E944A09089581E090E06FEF90
:1013D0007FEF0E944A0908954F925F926F927F9229
:1013E0008F929F92AF92BF92CF92DF92EF92FF9235
:1013F0000F931F93CF93DF93EC014B012A01390127
:10140000F701C901B5011995F82E882349F4809197
:101410005706909158060097B1F00E94EF1B13C039
:1014200080915E0285FFADC080915F0285FD1DC089
:10143000E0915706F0915806309709F4A2C08581D3
:1014400085FD13C09EC080915E0284FF9AC080918A
:101450005F0284FD0AC0E0915706F091580630976C
:1014600009F48FC0858184FF8CC0809160029091C7
:101470006102BE010E946E1A809160029091610229
:101480006DEF72E00E946E1A80916002909161028D
:10149000B4014AE050E00E945F1B8091600290918D
:1014A000610268EF72E00E946E1A80916002909172
:1014B0006102FF2019F46EEE72E002C063EF72E089
:1014C0000E946E1A809160029091610264EE72E057
:1014D0000E946E1A8091600290916102B2010E9496
:1014E0006E1A809160029091610262EE72E00E9439
:1014F0006E1A8091600290916102F30160814AE06E
:1015000050E00E94701B80916002909161026FED2B
:1015100072E00E946E1A8091600290916102B8019F
:101520000E946E1A80916002909161026CED72E0EF
:101530000E946E1A8091600290916102B6010E9431
:101540006E1A80916002909161026AED72E00E94D1
:101550006E1A8091600290916102F50160814AE00B
:1015600050E00E94701B809160029091610268EDD2
:1015700072E00E946E1A80916002909161020E9456
:10158000A41A8F2DDF91CF911F910F91FF90EF90B3
:10159000DF90CF90BF90AF909F908F907F906F9093
:1015A0005F904F9008959F92AF92BF92CF92DF923B
:1015B000EF92FF920F931F93CF93DF93EC018091F3
:1015C0005F069091600620915B0630915C06820F69
:1015D000931F019620915D0630915E06820F931F46
:1015E0002091590630915A068217930709F0D4C00A
:1015F0009090D902809150038915D9F08BEC92E03C
:101600006BE871E040EB52E020E533E00DEA12E0D8
:10161000B7E6EB2EB8E0FB2EADE9CA2EA2E0DA2E3B
:10162000FAEDAF2EF2E0BF2E0E94EC09882309F4F8
:10163000B3C080915C038915D9F080E992E06CE831
:1016400071E046E752E02CE533E003E712E0E7E61D
:10165000EE2EE8E0FE2EB3E6CB2EB2E0DB2EABEDB5
:10166000AA2EA2E0BA2E0E94EC09882309F494C0A5
:1016700086E592E06DE871E04CE352E028E633E065
:1016800009E312E0F7E6EF2EF8E0FF2EE9E2CE2EB6
:10169000E2E0DE2EB9EDAB2EB2E0BB2E0E94EC09EB
:1016A000882309F479C0809174038915B9F08CE11D
:1016B00092E06EE871E04BEF51E024E733E008EF91
:1016C00011E0A8EECA2EA1E0DA2EFAEDAF2EF2E07C
:1016D000BF2E0E94EC09882309F45EC0809180032C
:1016E0008915D9F08BED91E06FE871E04BEB51E09B
:1016F00020E833E008EB11E0E7E6EE2EE8E0FE2E0E
:10170000B8EACB2EB1E0DB2EAAEDAA2EA2E0BA2ECB
:101710000E94EC09882309F43FC080918C0389154D
:10172000D1F08BE991E060E971E048E751E02CE805
:1017300033E005E711E0F7E6EF2EF8E0FF2EE5E6EF
:10174000CE2EE1E0DE2EBAEDAB2EB2E0BB2E0E9433
:10175000EC09882309F1809198038915D1F088E577
:1017600091E061E971E04FE351E028E933E00CE3F7
:1017700011E0A7E6EA2EA8E0FA2EFCE2CF2EF1E077
:10178000DF2EEAEDAE2EE2E0BE2E0E94EC098823A9
:1017900019F0CE010E94EB1BDF91CF911F910F91A9
:1017A000FF90EF90DF90CF90BF90AF909F90089503
:1017B000AF92BF92CF92DF92EF92FF920F931F935F
:1017C0006330710509F4E2C0643071055CF4613086
:1017D000710509F459C0623071050CF096C0672B91
:1017E00091F026C26530710509F456C16530710566
:1017F0000CF411C16630710509F493C167307105AD
:1018000009F016C2CFC181309105C1F08230910537
:1018100041F10097C9F587E698E060E471E04CE497
:1018200058E020E533E009E418E0A3E5EA2EA8E05B
:10183000FA2EF9E3CF2EF8E0DF2EF4C18CE298E027
:1018400061E471E042E158E02CE533E00FE018E09C
:10185000E3E5EE2EE8E0FE2EBFEFCB2EB7E0DB2E69
:10186000E1C182EF97E062E471E048ED57E028E6DD
:1018700033E005ED17E0A3E5EA2EA8E0FA2EF5EC3B
:10188000CF2EF7E0DF2ECEC181309105C1F082303E
:10189000910541F10097C9F588EB97E066E471E0A6
:1018A0004DE957E020E533E00BE917E0EDE5EE2EDA
:1018B000E8E0FE2EBBE8CB2EB7E0DB2EB3C18EE70F
:1018C00097E067E471E044E657E02CE533E002E698
:1018D00017E0ADE5EA2EA8E0FA2EF2E5CF2EF7E00C
:1018E000DF2EA0C185E497E068E471E04BE257E0A9
:1018F00028E633E009E217E0EDE5EE2EE8E0FE2E03
:10190000B9E1CB2EB7E0DB2E8DC181309105C1F05E
:101910008230910541F10097C9F58CE097E06CE4C5
:1019200071E041EF56E020E533E00EEE16E0A7E669
:10193000EA2EA8E0FA2EFEEDCF2EF6E0DF2E66C0EE
:1019400081ED96E06DE471E047EB56E02CE533E085
:1019500004EB16E0E7E6EE2EE8E0FE2EB4EACB2E2E
:10196000B6E0DB2E53C087E996E06EE471E04DE708
:1019700056E028E633E00AE716E0A7E6EA2EA8E0FC
:10198000FA2EFAE6CF2EF6E0DF2E40C08130910528
:10199000C1F08230910541F10097E9F58DE596E0BF
:1019A00062E571E042E456E020E533E00FE316E043
:1019B000E1E7EE2EE8E0FE2EBFE2CB2EB6E0DB2E16
:1019C00025C082E296E063E571E048E056E02CE550
:1019D00033E005E016E0A1E7EA2EA8E0FA2EF5EFE5
:1019E000CF2EF5E0DF2E12C088EE95E064E571E0C1
:1019F0004EEC55E028E633E00BEC15E0E1E7EE2E87
:101A0000E8E0FE2EBBEBCB2EB5E0DB2EAAEDAA2E36
:101A1000A2E0BA2E0BC181309105C1F08230910550
:101A200041F10097C9F58EEA95E068E571E043E978
:101A300055E020E533E000E915E0F7E6EF2EF8E0A9
:101A4000FF2EE0E8CE2EE5E0DE2E66C083E795E0CF
:101A500069E571E049E555E02CE533E006E515E080
:101A6000B7E6EB2EB8E0FB2EA6E4CA2EA5E0DA2EF0
:101A700053C089E395E06AE571E04FE155E028E65F
:101A800033E00CE115E0F7E6EF2EF8E0FF2EECE096
:101A9000CE2EE5E0DE2E40C081309105C1F08230CF
:101AA000910541F10097E9F58FEF94E06EE571E063
:101AB00044EE54E020E533E001EE14E0B1E7EB2E14
:101AC000B8E0FB2EA1EDCA2EA4E0DA2E25C084ECEE
:101AD00094E06FE571E04AEA54E02CE533E007EA70
:101AE00014E0F1E7EF2EF8E0FF2EE7E9CE2EE4E078
:101AF000DE2E12C08AE894E060E671E040E754E030
:101B000028E633E00DE614E0B1E7EB2EB8E0FB2E5B
:101B1000ADE5CA2EA4E0DA2EFBEDAF2EF2E0BF2E2B
:101B200085C081309105C1F08230910541F1009767
:101B3000C9F580E594E064E671E045E354E020E512
:101B400033E002E314E0E7E6EE2EE8E0FE2EB2E238
:101B5000CB2EB4E0DB2E66C085E194E065E671E053
:101B60004BEF53E02CE533E008EF13E0A7E6EA2E55
:101B7000A8E0FA2EF8EECF2EF3E0DF2E53C08BED67
:101B800093E066E671E041EC53E028E633E00EEBCB
:101B900013E0E7E6EE2EE8E0FE2EBEEACB2EB3E041
:101BA000DB2E40C081309105C1F08230910541F1BA
:101BB000892BF1F581EA93E06AE671E046E853E0AB
:101BC00020E533E003E813E0A1E7EA2EA8E0FA2ECF
:101BD000F3E7CF2EF3E0DF2E25C086E693E06BE639
:101BE00071E04CE453E02CE533E009E413E0E1E775
:101BF000EE2EE8E0FE2EB9E3CB2EB3E0DB2E12C0D2
:101C00008CE293E06CE671E042E153E028E633E0D9
:101C10000FE013E0A1E7EA2EA8E0FA2EFFEFCF2EA7
:101C2000F2E0DF2EE9EDAE2EE2E0BE2E0E94EC09DE
:101C30001F910F91FF90EF90DF90CF90BF90AF90EA
:101C40000895CF92DF92EF92FF920F931F93CF935D
:101C5000DF937C010E9462152091AC033091AD03AB
:101C60004091AE035091AF03621773078407950745
:101C700008F448C00E9462156C507E4F8F4F9F4FF2
:101C80006093AC037093AD038093AE039093AF0366
:101C9000D090D802C090DB0200E010E020C0C80164
:101CA000BE010E94D80BC801BE010E942507F701A2
:101CB0009481882319F09D1539F002C09C1521F0FC
:101CC000C7010E94EF1B1EC0F701D4822196C830C5
:101CD000D10529F70F5F1F4F0330110519F0C0E040
:101CE000D0E0DDCF8091AC039091AD03A091AE0325
:101CF000B091AF03805D9740A040B04018F0C7019D
:101D00000E94EB1BDF91CF911F910F91FF90EF90FD
:101D1000DF90CF900895CF93DF93EC010E9462157E
:101D2000695E73408040904018F0CE010E94EF1B26
:101D3000DF91CF910895CF93DF93EC010E9462155C
:101D4000695E73408040904018F0CE010E94EB1B0A
:101D5000DF91CF9108954F925F926F927F928F9211
:101D60009F92AF92BF92CF92DF92EF92FF920F932A
:101D70001F93CF93DF93EC013B012A014901F70147
:101D8000C901B5011995F82E882349F480915706A9
:101D9000909158060097B1F00E94EF1B13C08091FC
:101DA0005E0285FFABC080915F0285FD1DC0E091A2
:101DB0005706F0915806309709F4A0C0858185FD3B
:101DC00013C09CC080915E0284FF98C080915F0226
:101DD00084FD0AC0E0915706F0915806309709F447
:101DE0008DC0858184FF8AC08091600290916102DC
:101DF000BE010E946E1A80916002909161026FE0B4
:101E000079E00E946E1A8091600290916102B301A4
:101E10004AE050E00E945F1B809160029091610255
:101E20006AE079E00E946E1A8091600290916102EE
:101E3000FF2019F460E079E002C065E079E00E94DB
:101E40006E1A809160029091610266EF78E00E94C4
:101E50006E1A8091600290916102B2010E946E1A26
:101E6000809160029091610264EF78E00E946E1AA6
:101E7000F4016081718180916002909161020E9401
:101E8000D51B809160029091610261EF78E00E9421
:101E90006E1A8091600290916102B8010E946E1AE0
:101EA00080916002909161026EEE78E00E946E1A5D
:101EB0008091600290916102B6010E946E1A809139
:101EC0006002909161026CEE78E00E946E1AF5015A
:101ED0006081718180916002909161020E94D51BA6
:101EE00080916002909161026AEE78E00E946E1A21
:101EF00080916002909161020E94A41A8F2DDF915F
:101F0000CF911F910F91FF90EF90DF90CF90BF90F6
:101F1000AF909F908F907F906F905F904F900895BB
:101F2000AF92BF92CF92DF92EF92FF920F931F93E7
:101F3000DF93CF9300D00F92CDB7DEB79A8389831A
:101F40007C836B834230510509F440C04330510516
:101F500044F44115510591F04130510509F08CC010
:101F600021C04430510509F459C0443051050CF4E6
:101F700041C04530510509F07FC064C08DED98E047
:101F800068EE70E04BED58E09E012F5F3F4F09ED8A
:101F900018E0BEEFEB2EBCE1FB2EA7EDCA2EA8E0A9
:101FA000DA2E63C08AEC98E069EE70E048EC58E005
:101FB0009E012F5F3F4F05EC18E0FFEEEF2EFCE196
:101FC000FF2EE3ECCE2EE8E0DE2E4FC086EB98E04D
:101FD0006AEE70E044EB58E09E012F5F3F4F01EB4B
:101FE00018E0B1EEEB2EBCE1FB2EAFEACA2EA8E062
:101FF000DA2E3BC082EA98E06BEE70E040EA58E0EF
:102000009E012F5F3F4F0DE918E0F3EDEF2EFCE14D
:10201000FF2EEBE9CE2EE8E0DE2E27C08EE898E01A
:102020006CEE70E04CE858E09E012F5F3F4F09E8EE
:1020300018E0B4ECEB2EBCE1FB2EA7E8CA2EA8E01A
:10204000DA2E13C08AE798E06DEE70E048E758E0BA
:102050009E012F5F3F4F06E718E0F5EBEF2EFCE106
:10206000FF2EE4E7CE2EE8E0DE2EB3E0AB2EB12C5F
:10207000AC0EBD1E0E94AB0E0F900F900F900F90F4
:10208000CF91DF911F910F91FF90EF90DF90CF9054
:10209000BF90AF9008954230510501F14330510592
:1020A0003CF44115510571F041305105B1F50EC0B8
:1020B0004430510509F144305105BCF0453051051B
:1020C00061F522C00E94D506892F1AC00E94D5064C
:1020D0009C0180E01216130604F11DC00E94D50673
:1020E0009C0180E0232BC9F416C00E94D5069C01F8
:1020F00080E0232B91F00FC00E94D506892F809598
:10210000881F8827881F08950E94D5069C0180E0BB
:102110001216130614F481E008950895AF92BF9249
:10212000CF92DF92EF92FF920F931F93CF93DF93A3
:102130006C01B090D802A090DB02EE24FF2434C0E2
:10214000F80180819181A7010E94900F68817981B7
:10215000F80180819181A7010E944B10F6019481C2
:10216000882319F09B1539F002C09A1521F0C60199
:102170000E94EF1B1CC0F601B4822296688179810F
:1021800061157105E9F60E5F1F4FF801808191819D
:10219000892B19F0C4E5D2E0F1CF0894E11CF11CC1
:1021A000F6E0EF16F10419F004E512E0EECFDF914E
:1021B000CF911F910F91FF90EF90DF90CF90BF9044
:1021C000AF9008954F925F926F927F928F929F92FD
:1021D000AF92BF92CF92DF92EF92FF920F931F9335
:1021E000CF93DF93EC013B012A014901F701C901BB
:1021F000B5011995F82E882349F4809157069091DE
:1022000058060097B1F00E94EF1B13C080915E0248
:1022100085FFAFC080915F0285FD1DC0E09157062C
:10222000F0915806309709F4A4C0858185FD13C04C
:10223000A0C080915E0284FF9CC080915F0284FDFB
:102240000AC0E0915706F0915806309709F491C002
:10225000858184FF8EC08091600290916102BE01F1
:102260000E946E1A80916002909161026CEA79E09E
:102270000E946E1A8091600290916102B3014AE05F
:1022800050E00E945F1B809160029091610267EABA
:1022900079E00E946E1A8091600290916102FF20A5
:1022A00019F46DE979E002C062EA79E00E946E1AE1
:1022B000809160029091610263E979E00E946E1A58
:1022C0008091600290916102B2010E946E1A809129
:1022D00060029091610261E979E00E946E1AF40156
:1022E0006081718180916002909161024AE050E0CA
:1022F0000E94C21B80916002909161026EE879E0B9
:102300000E946E1A8091600290916102B8010E9451
:102310006E1A80916002909161026BE879E00E94F0
:102320006E1A8091600290916102B6010E946E1A4D
:10233000809160029091610269E879E00E946E1AD2
:10234000F5016081718180916002909161024AE0A3
:1023500050E00E94C21B809160029091610267E888
:1023600079E00E946E1A80916002909161020E9451
:10237000A41A8F2DDF91CF911F910F91FF90EF90B5
:10238000DF90CF90BF90AF909F908F907F906F9095
:102390005F904F900895AF92BF92CF92DF92EF92ED
:1023A000FF920F931F93DF93CF9300D00F92CDB77F
:1023B000DEB79A8389837C836B834230510509F4AD
:1023C00040C04330510544F44115510591F041306E
:1023D000510509F08CC021C04430510509F459C0A1
:1023E000443051050CF441C04530510509F07FC01F
:1023F00064C08AE799E06AEB70E048E759E09E0123
:102400002F5F3F4F06E719E0E2E1EE2EE8E0FE2EF7
:10241000B4E7CB2EB9E0DB2E63C087E699E06BEB27
:1024200070E045E659E09E012F5F3F4F02E619E05C
:10243000AFE1EA2EA8E0FA2EF0E6CF2EF9E0DF2E8B
:102440004FC083E599E06CEB70E041E559E09E01F7
:102450002F5F3F4F0EE419E0E5E0EE2EE8E0FE2EA0
:10246000BCE4CB2EB9E0DB2E3BC08FE399E06DEBF3
:1024700070E04DE359E09E012F5F3F4F0AE319E002
:10248000ACE2EA2EA8E0FA2EF8E3CF2EF9E0DF2E38
:1024900027C08BE299E06EEB70E049E259E09E01C3
:1024A0002F5F3F4F06E219E0E9E3EE2EE8E0FE2E53
:1024B000B4E2CB2EB9E0DB2E13C087E199E06FEBDD
:1024C00070E045E159E09E012F5F3F4F03E119E0C5
:1024D000A6E4EA2EA8E0FA2EF1E1CF2EF9E0DF2EF5
:1024E000E3E0AE2EB12CAC0EBD1E0E94E2100F90A8
:1024F0000F900F900F90CF91DF911F910F91FF9050
:10250000EF90DF90CF90BF90AF900895AF92BF92C1
:10251000CF92DF92EF92FF920F931F93CF93DF93AF
:102520006C01B090D802A090DB02EE24FF242CC0F6
:10253000C801BE01A7010E94CB11C801BE01A701BD
:102540000E94EC06F6019481882319F09B1539F05E
:1025500002C09A1521F0C6010E94EF1B18C0F601B7
:10256000B4822196C230D10519F70F5F1F4F023098
:10257000110519F0CFEFDFEFDBCF0894E11CF11C60
:10258000F6E0EF16F10419F00FEF1FEFF3CFDF9134
:10259000CF911F910F91FF90EF90DF90CF90BF9060
:1025A000AF900895AF92BF92CF92DF92EF92FF92D9
:1025B0000F931F93DF93CF93CDB7DEB728970FB656
:1025C000F894DEBF0FBECDBF6115710521F06130FB
:1025D0007105E1F51DC089831A8281E090E09C833A
:1025E0008B838DEC99E064E970E04BEC59E09E013F
:1025F0002F5F3F4F08EC19E0A5E0EA2EA8E0FA2E85
:10260000F4ECCF2EF9E0DF2EE3E0AE2EB12C1AC0B1
:102610008D831E8218861F8287EB99E065E970E042
:1026200045EB59E09E012B5F3F4F02EB19E0B5E00F
:10263000EB2EB8E0FB2EAEEACA2EA9E0DA2EF7E0C8
:10264000AF2EB12CAC0EBD1E0E94E21028960FB624
:10265000F894DEBF0FBECDBFCF91DF911F910F91D8
:10266000FF90EF90DF90CF90BF90AF9008959F9232
:10267000AF92BF92CF92DF92EF92FF920F931F9390
:10268000CF93DF936C01B090D802A090DB02C0E042
:10269000D0E0992493942CC0012F10E0E114F104B0
:1026A00009F011E0812FBE010E94D212209731F073
:1026B000C130D10511F0102F01C01925F601848118
:1026C000112319F08B1539F002C08A1521F0C601CB
:1026D0000E94EF1B11C0F601B4820894E11CF11CAA
:1026E000F2E0EF16F104C1F62196C230D10521F0D7
:1026F000012FEE24FF24D1CFDF91CF911F910F91B5
:10270000FF90EF90DF90CF90BF90AF909F90089593
:10271000CF93DF93EC010E946215695E73408040A5
:10272000904018F0CE010E94F31BDF91CF910895E5
:102730000E94221E0895CF93DF93BC01EC01099003
:102740000020E9F72197C81BD90B8CEF92E0AE016E
:102750000E94DE06009711F080E009C0C450DD4FF2
:102760004881403219F080E0442309F481E0DF9190
:10277000CF91089580E092E00E949B138823E9F0B6
:1027800020E030E002C02F5F3F4FF901E450FD4FE1
:10279000E081E03221F4F901E450FD4F05C0EE2361
:1027A00091F7F9CF2F5F3F4F81918032D9F3C90163
:1027B00084509D4F0E944620089588E092E00E9438
:1027C0009B138823E9F020E030E002C02F5F3F4FE9
:1027D000F901E450FD4FE081E03221F4F901E450C9
:1027E000FD4F05C0EE2391F7F9CF2F5F3F4F819149
:1027F0008032D9F3C90184509D4F0E94242008954E
:1028000080E192E00E949B13882381F120E030E078
:1028100002C02F5F3F4FF901E450FD4FE081E032ED
:1028200021F4F901E450FD4F05C0EE2391F7F9CFF3
:102830002F5F3F4F81918032D9F3F901E450FD4F72
:1028400020E030E00BC0220F331F80E090E04133E6
:1028500011F481E090E0280F391F31964081842FD8
:102860008053823080F320935E0208958EE192E0DF
:102870000E949B13882381F120E030E002C02F5F8B
:102880003F4FF901E450FD4FE081E03221F4F901BE
:10289000E450FD4F05C0EE2391F7F9CF2F5F3F4F76
:1028A00081918032D9F3F901E450FD4F20E030E00E
:1028B0000BC0220F331F80E090E0413311F481E020
:1028C00090E0280F391F31964081842F8053823049
:1028D00080F320935F0208958CE292E00E949B13A4
:1028E000882319F010925302089589ED95E060E372
:1028F00072E00E94D51B89ED95E06CEF72E00E94BA
:10290000D51B89ED95E063E472E00E94D51B89ED4B
:1029100095E00E94A41A08950F931F93CF93DF931D
:1029200089ED95E06EED79E00E946E1A00E010E00E
:1029300089ED95E00E948118892BD1F389ED95E00E
:102940000E94B218EC011816190694F78F379105FA
:1029500061F40115110561F389ED95E06AED79E007
:102960000E946E1A01501040E3CF8A30910591F019
:102970008D30910579F089ED95E06C2F0E94911AC8
:102980000035110520F4F801E450FD4FC0830F5FBE
:102990001F4FCECFF8010035110510F0EFE4F0E045
:1029A000E450FD4F108289ED95E00E94A41ADF915A
:1029B000CF911F910F9108950F931F9309ED15E08B
:1029C000C80163E77AE00E94C41AC80166E57AE0AC
:1029D0000E94C41AC80162E47AE00E94C41AC801C5
:1029E0006EE27AE00E94C41AC8016EE07AE00E94AA
:1029F000C41AC8016EEE79E00E94C41AC80168EEDC
:102A000079E00E94C41A1F910F91089589ED95E015
:102A100040E855E260E070E00E94FB170E94DC1481
:102A200004C00E948C140E94BA1380915302882320
:102A3000C1F708951F920F920FB60F9211242F9392
:102A40003F938F939F93AF93BF938091B4039091E3
:102A5000B503A091B603B091B7033091B8030196C6
:102A6000A11DB11D232F2D5F2D3720F02D5701966D
:102A7000A11DB11D2093B8038093B4039093B503B7
:102A8000A093B603B093B7038091B0039091B103C4
:102A9000A091B203B091B3030196A11DB11D809323
:102AA000B0039093B103A093B203B093B303BF916B
:102AB000AF919F918F913F912F910F900FBE0F90EB
:102AC0001F9018958FB7F8942091B4033091B503F7
:102AD0004091B6035091B7038FBFB901CA01089561
:102AE000789484B5826084BD84B5816084BD85B5E9
:102AF000826085BD85B5816085BDEEE6F0E08081B0
:102B000081608083E1E8F0E01082808182608083D0
:102B1000808181608083E0E8F0E080818160808353
:102B2000E1EBF0E0808184608083E0EBF0E0808185
:102B300081608083E1E9F0E0808182608083808130
:102B400081608083E0E9F0E0808181608083E1EA58
:102B5000F0E0808182608083808181608083E0EA10
:102B6000F0E0808181608083E1E2F1E08081826039
:102B70008083808181608083E0E2F1E080818160F8
:102B80008083EAE7F0E080818460808380818260D6
:102B900080838081816080838081806880831092BF
:102BA000C100089508951F920F920FB60F920BB6B1
:102BB0000F9211242F933F934F938F939F93EF93F3
:102BC000FF934091C6002091F9033091FA032F5FE3
:102BD0003F4F2F7330708091FB039091FC032817B7
:102BE000390759F0E091F903F091FA03E754FC4FEB
:102BF00040833093FA032093F903FF91EF919F9163
:102C00008F914F913F912F910F900BBE0F900FBE60
:102C10000F901F90189508951F920F920FB60F9264
:102C20000BB60F9211242F933F934F938F939F9343
:102C3000EF93FF934091CE00209181043091820464
:102C40002F5F3F4F2F7330708091830490918404E5
:102C50002817390759F0E0918104F0918204EF5B65
:102C6000FB4F40833093820420938104FF91EF91C6
:102C70009F918F914F913F912F910F900BBE0F908D
:102C80000FBE0F901F90189508951F920F920FB6C8
:102C90000F920BB60F9211242F933F934F938F9364
:102CA0009F93EF93FF934091D600209109053091B7
:102CB0000A052F5F3F4F2F73307080910B05909165
:102CC0000C052817390759F0E0910905F0910A051C
:102CD000E753FB4F408330930A0520930905FF918A
:102CE000EF919F918F914F913F912F910F900BBE3C
:102CF0000F900FBE0F901F90189508951F920F927E
:102D00000FB60F920BB60F9211242F933F934F9350
:102D10008F939F93EF93FF934091360120919105FC
:102D2000309192052F5F3F4F2F7330708091930544
:102D3000909194052817390759F0E0919105F09189
:102D40009205EF5AFA4F40833093920520939105F4
:102D5000FF91EF919F918F914F913F912F910F9004
:102D60000BBE0F900FBE0F901F901895E091E505D8
:102D7000F091E605E05CFF4F8191919120813181D6
:102D8000821B930B8F739070892B11F00E94D215C8
:102D9000E0910406F0910506E05CFF4F819191916E
:102DA00020813181821B930B8F739070892B11F0DE
:102DB0000E940B16E0912306F0912406E05CFF4F81
:102DC0008191919120813181821B930B8F7390703F
:102DD000892B11F00E944416E0914206F0914306BF
:102DE000E05CFF4F8191919120813181821B930B97
:102DF0008F739070892B11F00E947D1608951F9299
:102E00000F920FB60F920BB60F9211242F933F9390
:102E10008F939F93EF93FF9320913D0430913E0455
:102E200080913F04909140042817390731F4809134
:102E3000C1008F7D8093C10014C0E0913F04F091E8
:102E40004004E350FC4F208180913F049091400466
:102E500001968F7390709093400480933F04209369
:102E6000C600FF91EF919F918F913F912F910F900D
:102E70000BBE0F900FBE0F901F9018951F920F92D0
:102E80000FB60F920BB60F9211242F933F938F938F
:102E90009F93EF93FF932091C5043091C6048091D6
:102EA000C7049091C8042817390731F48091C900EC
:102EB0008F7D8093C90014C0E091C704F091C804CD
:102EC000EB57FB4F20818091C7049091C804019675
:102ED0008F7390709093C8048093C7042093CE00A2
:102EE000FF91EF919F918F913F912F910F900BBE8A
:102EF0000F900FBE0F901F9018951F920F920FB654
:102F00000F920BB60F9211242F933F938F939F93A1
:102F1000EF93FF9320914D0530914E0580914F0521
:102F2000909150052817390731F48091D1008F7D99
:102F30008093D10014C0E0914F05F0915005E35FFC
:102F4000FA4F208180914F059091500501968F7323
:102F500090709093500580934F052093D600FF9179
:102F6000EF919F918F913F912F910F900BBE0F90FA
:102F70000FBE0F901F9018951F920F920FB60F92D1
:102F80000BB60F9211242F933F938F939F93EF9340
:102F9000FF932091D5053091D6058091D70590916A
:102FA000D8052817390731F4809131018F7D80933E
:102FB000310114C0E091D705F091D805EB56FA4FD6
:102FC00020818091D7059091D80501968F739070DC
:102FD0009093D8058093D70520933601FF91EF9108
:102FE0009F918F913F912F910F900BBE0F900FBE2D
:102FF0000F901F901895AF92BF92DF92EF92FF92C1
:103000000F931F93CF93DF93EC017A018B01DD24A3
:10301000403081EE580780E0680780E0780711F0C3
:10302000DD24D39491E0A92EB12CEC89FD89DD201B
:1030300069F0C5010E8C02C0880F991F0A94E2F74F
:10304000808360E079E08DE390E005C0108260E865
:1030500074E88EE190E0A80197010E943D21215083
:10306000304040405040569547953795279580E130
:103070002030380720F0DD2011F0DD24D6CFE8899C
:10308000F9893083EA89FB892083EE89FF894081B1
:1030900021E030E0C9010A8C02C0880F991F0A9410
:1030A000E2F7482B4083EE89FF894081C9010B8CF0
:1030B00002C0880F991F0A94E2F7482B4083EE89DB
:1030C000FF894081C9010C8C02C0880F991F0A94A6
:1030D000E2F7482B4083EE89FF8980810D8C02C086
:1030E000220F331F0A94E2F7209528232083DF91D3
:1030F000CF911F910F91FF90EF90DF90BF90AF9015
:103100000895DC011C96ED91FC911D97E05CFF4F4A
:103110002191319180819181281B390B2F7330705F
:10312000C9010895DC011C96ED91FC911D97E05CAE
:10313000FF4F20813181E054F040DF01AE5BBF4F93
:103140008D919C9111972817390719F42FEF3FEFB4
:1031500007C08D919C91E80FF91F8081282F30E0E6
:10316000C9010895DC011C96ED91FC911D97E05C6E
:10317000FF4F20813181E054F040DF01AE5BBF4F53
:103180008D919C9111972817390719F42FEF3FEF74
:1031900010C08D919C911197E80FF91F20818D919E
:1031A0009C91119701968F73907011969C938E93BA
:1031B00030E0C9010895FC0186859785DC01A05C9B
:1031C000BF4FFC01EE5BFF4F2D913C911197808129
:1031D000918128173907C1F70895CF93DF93EC0148
:1031E000EE85FF85E05CFF4F20813181E054F040A7
:1031F0002F5F3F4F2F733070DF01AE5BBF4F8D915C
:103200009C91119728173907D1F3E05CFF4F80811B
:103210009181E054F040E80FF91F6083EE85FF854F
:10322000E05CFF4F31832083EE89FF89208181E0BC
:1032300090E00D8C02C0880F991F0A94E2F7282BAA
:10324000208381E090E0DF91CF9108951F93109249
:10325000DC051092DB0528EE33E040E050E02093DF
:10326000DD053093DE054093DF055093E0056CECFF
:1032700072E07093DA056093D90589EB93E090933F
:10328000E6058093E5058DEF93E09093E805809344
:10329000E70585EC90E09093EA058093E90584ECDE
:1032A00090E09093EC058093EB0580EC90E0909398
:1032B000EE058093ED0581EC90E09093F00580930E
:1032C000EF0586EC90E09093F2058093F10514E011
:1032D0001093F305B3E0B093F405A7E0A093F505D0
:1032E000F5E0F093F605E1E0E093F7051092FB05B9
:1032F0001092FA052093FC053093FD054093FE05DE
:103300005093FF057093F9056093F80581E494E00C
:10331000909305068093040685E894E09093070651
:10332000809306068DEC90E0909309068093080642
:103330008CEC90E090930B0680930A0688EC90E06A
:1033400090930D0680930C0689EC90E090930F0605
:1033500080930E068EEC90E09093110680931006F9
:1033600010931206B0931306A0931406F09315065B
:10337000E093160610921A061092190620931B0667
:1033800030931C0640931D0650931E06709318063A
:103390006093170689EC94E09093240680932306AB
:1033A0008DE095E0909326068093250685ED90E0CC
:1033B000909328068093270684ED90E090932A0648
:1033C0008093290680ED90E090932C0680932B0645
:1033D00081ED90E090932E0680932D0686ED90E08F
:1033E0009093300680932F0610933106B0933206E7
:1033F000A0933306F0933406E09335061092390615
:103400001092380620933A0630933B0640933C06D0
:1034100050933D06709337066093360681E595E03C
:10342000909343068093420685E995E09093450684
:103430008093440685E391E0909347068093460687
:1034400084E391E0909349068093480680E391E0FD
:1034500090934B0680934A0681E391E090934D064A
:1034600080934C0686E391E090934F0680934E063E
:1034700010935006B0935106A0935206F093530652
:10348000E09354061F910895CF92DF92EF92FF923E
:103490000F931F93CF93DF937C016B018A01C0E0F0
:1034A000D0E00FC0D6016D916D01D701ED91FC9177
:1034B0000190F081E02DC7011995C80FD91F015067
:1034C00010400115110571F7CE01DF91CF911F91C9
:1034D0000F91FF90EF90DF90CF900895EF92FF92C1
:1034E0000F931F93CF93DF937C018B01C0E0D0E05B
:1034F000F8010F5F1F4F6491662359F0D701ED91DA
:10350000FC910190F081E02DC7011995C80FD91FDA
:10351000EFCFCE01DF91CF911F910F91FF90EF90F0
:103520000895DC01ED91FC910190F081E02D199559
:1035300008959C01DB01ED91FC910190F081E02D5B
:10354000CB01B90119950895EF92FF920F931F9344
:103550008C01DC01ED91FC910190F081E02D6DE09A
:1035600019957C01D801ED91FC910190F081E02D3D
:10357000C8016AE019959C012E0D3F1DC9011F91DC
:103580000F91FF90EF900895EF92FF920F931F938A
:103590007C010E946E1A8C01C7010E94A41A9C0132
:1035A000200F311FC9011F910F91FF90EF900895D7
:1035B000CF93DF93DB010D900020E9F71197A61B55
:1035C000B70BEC01E881F9810280F381E02DAD01B8
:1035D0001995DF91CF9108954F925F927F928F92CC
:1035E0009F92AF92BF92CF92DF92EF92FF920F9392
:1035F0001F93DF93CF93CDB7DEB7A1970FB6F894A3
:10360000DEBF0FBECDBF2C01742ECB01223008F4DB
:103610002AE019A231E2C32ED12CCC0EDD1E822E5F
:103620009924AA24BB24672D752FA50194010E941B
:103630003D2179018A01C801B701A50194010E94C9
:103640001E21472D461B0894C108D1084A3014F4A6
:10365000405D01C0495CF6014083E114F1040105BD
:10366000110521F07E2C5F2DC801DDCFC201B6010E
:103670000E94D81AA1960FB6F894DEBF0FBECDBF38
:10368000CF91DF911F910F91FF90EF90DF90CF903E
:10369000BF90AF909F908F907F905F904F900895D4
:1036A000DC012115310541F4ED91FC910190F0818F
:1036B000E02D642F199508950E94EC1A0895EF9259
:1036C000FF920F931F939A017B0100E010E0B80175
:1036D000A7010E94501B1F910F91FF90EF9008953A
:1036E000EF92FF920F931F939A01E62EFF2400E0C2
:1036F00010E0B801A7010E94501B1F910F91FF908D
:10370000EF900895CF92DF92EF92FF920F931F9365
:10371000CF93DF93EC016A017B012115310541F460
:10372000E881F9810190F081E02D642F19951FC087
:103730002A303105D1F477FF17C0E881F981019073
:10374000F081E02D6DE219958C0144275527BA01CF
:103750004C195D096E097F09CE012AE00E94EC1A1E
:103760009801280F391F04C02AE00E94EC1A9C011E
:10377000C901DF91CF911F910F91FF90EF90DF90E2
:10378000CF900895EF92FF920F931F937B019A01C0
:103790000027F7FC0095102FB801A7010E94821B9B
:1037A0001F910F91FF90EF9008950E94D81A0895ED
:1037B000CF93DF930E9470150E940615C6EBD6E1E9
:1037C0000E9498132097E1F30E94B616F9CF08954E
:1037D0000E945806089523E0FC012483089524E004
:1037E000FC012483089522E0FC01248308950895B8
:1037F000CF93DF93EC018EEE92E099838883E09182
:103800005506F0915606A5E5B6E00DC0228133813C
:10381000EC17FD0721F42C9311963C9306C0DF01B1
:103820001296C901FC01309789F7DF91CF91089575
:10383000CF93DF93EC018EEE92E099838883E09141
:103840005506F0915606A5E5B6E00DC022813381FC
:10385000EC17FD0721F42C9311963C9306C0DF0171
:103860001296C901FC01309789F7DF91CF91089535
:10387000CF93DF93EC01E881F9810084F185E02D9D
:1038800019958C81813011F483E08C83DF91CF9185
:103890000895CF93DF93EC018EEE92E099838883B5
:1038A000E0915506F0915606A5E5B6E00DC0EC177F
:1038B000FD0729F4828193818D939C9307C0DF01DA
:1038C00012960280F381E02D309789F7DF91CF9136
:1038D0000895CF93DF93DC018EEE92E011969C93D6
:1038E0008E93E0915506F0915606C5E5D6E00FC0DF
:1038F000EA17FB0739F412968D919C9113979983DF
:10390000888307C0EF0122960280F381E02D309773
:1039100079F7CD010E94E81BDF91CF910895CF93F5
:10392000DF93DC018EEE92E011969C938E93E091F2
:103930005506F0915606C5E5D6E00FC0EA17FB071D
:1039400039F412968D919C9113979983888307C0BF
:10395000EF0122960280F381E02D309779F7CD01B7
:103960000E94E81BDF91CF910895DC01FB0160818B
:1039700071818D919C910E94D5069C0180E0121668
:1039800013060CF481E00895DC01FB016081718174
:103990008D919C910E94D506292F2095822F881FFA
:1039A0008827881F0895DC01FB01608171818D915A
:1039B0009C910E94D5069C0180E0232B09F081E0B8
:1039C0000895DC01FB01608171818D919C910E94C1
:1039D000D5069C0180E0232B09F481E00895DC01E9
:1039E000FB01608171818D919C910E94D5069C01A3
:1039F00080E0121613060CF081E00895DC01FB0153
:103A0000608171818D919C910E94D506892F881FBC
:103A10008827881F0895FF920F931F93CF93DF93FA
:103A2000EC01E0915706F09158068481FF24833021
:103A300011F4FF24F39400E0843009F401E010E075
:103A4000823009F411E0FF2029F4002371F41123DE
:103A5000C1F479C080915B0690915C0601969093C9
:103A60005C0680935B06002349F080915D0690918F
:103A70005E06019690935E0680935D06112309F41D
:103A8000D4C080915F069091600601969093600685
:103A900080935F0680915E0283FFC7C080915F02C2
:103AA00083FD23C0309709F4C0C0858183FD1DC00C
:103AB000BCC080915E0282FFBBC080915F0282FD2C
:103AC00014C0309709F4B4C0858182FD0EC0B0C027
:103AD00080915E0281FF37C080915F0281FD05C049
:103AE000309789F1858181FF2EC08091600290918D
:103AF000610262EF7AE00E946E1A2696809160025F
:103B000090916102BE010E94991A112341F08091A7
:103B100060029091610268EE7AE00E94C41AFF2070
:103B200041F080916002909161026FED7AE00E9415
:103B3000C41A002341F0809160029091610266ED09
:103B40007AE00E94C41A8091550690915606892BFE
:103B500009F072C080915E0280FF6EC080915F02AA
:103B600080FD0AC0E0915706F0915806309709F49D
:103B700063C0858180FF60C0809160029091610286
:103B800067EC7AE00E946E1A60915B0670915C06A9
:103B900080916002909161024AE050E00E945F1BB8
:103BA00080916002909161026DEB7AE00E946E1A42
:103BB00060915D0670915E06809160029091610255
:103BC0004AE050E00E945F1B809160029091610288
:103BD0006FEA7AE00E946E1A60915F06709160064B
:103BE00080916002909161024AE050E00E945F1B68
:103BF00080916002909161026DE97AE00E946E1AF4
:103C00006091590670915A0680916002909161020C
:103C10004AE050E00E945F1B809160029091610237
:103C200063E97AE00E94C41A07C0FF2009F041CF7F
:103C3000002309F488CF4CCFDF91CF911F910F91D2
:103C4000FF9008951F93CF93DF93C5E5D6E011E071
:103C50003AC0B0935806A093570614968C911497C7
:103C6000813049F4ED91FC9111970280F381E02DB0
:103C7000CD01199512C0882381F4ED91FC91119723
:103C80000190F081E02DCD011995E0915706F0915A
:103C900058068481882309F41483E0915706F09133
:103CA00058068481E881F981813059F082819381BD
:103CB0009983888380915706909158060E940B1D26
:103CC00002C0EF012296A881B981109711F6DF9109
:103CD000CF911F910895FC01228133814481558148
:103CE00057FF05C0CB01B9010E946E1A0895CB01A0
:103CF000B9010E94D51B0895FC0182819381A481A2
:103D0000B581B7FF04C00E94BC06DC0108C0FC01FD
:103D1000DC010D900020E9F71197AE1BBF0BCD0120
:103D20000895FC0182819381A481B581480F591FB8
:103D3000B7FF07C0CB01BA01422F50E00E94B30683
:103D40000895CB01BA01422F50E00E94C5060895A4
:103D50002F923F924F925F926F927F928F929F929B
:103D6000AF92BF92CF92DF92EF92FF920F931F9389
:103D7000DF93CF93CDB7DEB761970FB6F894DEBF70
:103D80000FBECDBF9D878C874B010DB71EB71F8718
:103D90000E87DB010D900020E9F711971A2F161BF3
:103DA00019870E947C1E782E3985232F30E03B87AF
:103DB0002A87A9014E5F5F4F20E0CA01877090708B
:103DC000892B09F021E033E0559547953A95E1F7C5
:103DD000322E340E832D90E06DB77EB7681B790BC1
:103DE0000FB6F8947EBF0FBE6DBF0DB71EB70F5F45
:103DF0001F4FEDB7FEB7E81BF90B0FB6F894FEBFE7
:103E00000FBEEDBFEDB6FEB60894E11CF11C5801E3
:103E1000C80160E070E0432D50E00E94CE0681E0D2
:103E2000F801808391E041E050E013C0892F86952E
:103E300086958695F801E80FF11D27703070BA015C
:103E400002C0660F771F2A95E2F78081862B808358
:103E50009F5F292F30E0F401E20FF31F319780813B
:103E60008A3221F3CC24DD24472C5524C20101964B
:103E7000998B888B272C239491E0692E712CAEC0EE
:103E80008601077010700115110591F488899989D0
:103E90008C199D09089714F028E002C0222D2C19D6
:103EA0008C859D85BE016F5F7F4FA6010E94911E8C
:103EB000E1E0F0E0EC0FFD1F0E0F1F1FF801108175
:103EC000C70160E070E0432D50E00E94CE0640E064
:103ED00050E061E0A12FB0E0FA0183E0F595E795AD
:103EE0008A95E1F7EA0DFB1D808190E09A01277029
:103EF000307002C0959587952A95E2F780FF5FC0E4
:103F0000F401E40FF51F80818A3231F5842F242FCC
:103F1000269526952695F701E20FF11D87708301FE
:103F200002C0000F111F8A95E2F72081202B208309
:103F3000862F869586958695F701E80FF11D862FC9
:103F40008770930102C0220F331F8A95E2F7C901DF
:103F50002081282B208333C0992787FD90958A17CD
:103F60009B0769F5862F869586958695F701E80F5C
:103F7000F11D862F8770830102C0000F111F8A95E3
:103F8000E2F72081202B2083362F13C03F5F832F41
:103F9000869586958695F701E80FF11D832F87702A
:103FA000830102C0000F111F8A95E2F72081202BA8
:103FB0002083F401E30FF11D80818A3239F34F5FD2
:103FC0005F4F6F5F2A853B85241735070CF084CF40
:103FD0000894C11CD11CC50157017C014C145D041F
:103FE0000CF04ECF29852F5F822F8695869586957A
:103FF000A80EB11CF501808190E0277002C0959554
:1040000087952A95E2F781700E851F850FB6F89483
:104010001EBF0FBE0DBF61960FB6F894DEBF0FBE78
:10402000CDBFCF91DF911F910F91FF90EF90DF9067
:10403000CF90BF90AF909F908F907F906F905F9048
:104040004F903F902F900895FF920F931F93CF931F
:10405000DF938C01C0915506D091560642E0F42EB4
:104060000DC08C81882339F4CE010696B8010E94D8
:10407000A81E8111FC820A80DB81C02D209789F760
:10408000DF91CF911F910F91FF9008950F931F9390
:10409000CF93DF938C01C0915506D09156060DC089
:1040A0008C81823039F4CE010696B8010E94A81E98
:1040B00081111C820A80DB81C02D209789F7DF9156
:1040C000CF911F910F9108956F927F928F929F923F
:1040D000AF92BF92CF92DF92FF920F931F93DF9325
:1040E000CF93CDB7DEB728970FB6F894DEBF0FBEDB
:1040F000CDBF5C016B0100E010E03E010894611C43
:10410000711C65E0862E912C8C0E9D1E53E0F52EC1
:10411000F02261F4C501B301A80124E00E94911EC0
:10412000C601B401A80124E00E94911EEF2DF0E029
:10413000D301AE0FBF1FAC91E80DF91DE081AE17A2
:1041400058F0EA1710F481E008C0AA2311F480E0C7
:1041500004C00F5F1F4FDACF8FEF28960FB6F89489
:10416000DEBF0FBECDBFCF91DF911F910F91FF90AA
:10417000DF90CF90BF90AF909F908F907F906F9087
:104180000895EF92FF920F931F93CF93DF938C01CB
:10419000FC01148276E0E72EF12CE80EF91EC5E54D
:1041A000D6E00BC06A5F7F4FC7010E9464201816DB
:1041B0004CF40990D881C02D2296688179816115CF
:1041C000710581F788819981F8019383828319832E
:1041D00008838091590690915A06019690935A0649
:1041E00080935906DF91CF911F910F91FF90EF902F
:1041F0000895FC012EEE32E03183208345832AEFBF
:1042000032E037832683882777FD8095982F906842
:104210006087718782879387CF010E94C1200895AC
:104220000F931F938C014FE10E94F92080EE92E0E2
:10423000F801918380831F910F910895629FD001AF
:10424000739FF001829FE00DF11D649FE00DF11D51
:10425000929FF00D839FF00D749FF00D659FF00D00
:104260009927729FB00DE11DF91F639FB00DE11DED
:10427000F91FBD01CF0111240895A1E21A2EAA1B36
:10428000BB1BFD010DC0AA1FBB1FEE1FFF1FA21706
:10429000B307E407F50720F0A21BB30BE40BF50B03
:1042A000661F771F881F991F1A9469F7609570958C
:1042B000809590959B01AC01BD01CF010895EE0F53
:1042C000FF1F0590F491E02D19941AE0CCEFDAE08D
:1042D00004C0FE010E9461212296CE3FD107C9F79A
:0442E000F894FFCF80
:1042E400696E636C756465006578636C75646500FC
:1042F4006D61785F766572626F73697479006D6958
:104304006E5F766572626F736974790072756E00A0
:10431400756E6B6E6F776E20636F6D6D616E643A50
:104324002027002700006100616100620020006511
:10433400060000014502460248024B0200003F010C
:10434400D90500000000F71BD30AB9083909000099
:104354000000F71B210EB008280900000000F71B1D
:10436400381CA70817098E1000000000F71B381C22
:104374009E080609861200000000F71B381C9508E9
:10438400F508371300000000F71B88138C08E408B5
:1043940000000000F71B8B0E8308D3080000000008
:1043A400F71B9B0E7A08C20800000000ED18441A9F
:1043B4008118B2189218DB180102030400000000EF
:1043C400F71B381C491C8F1CE71B00000000F71B5F
:0C43D400E71B181C691C000000006B1E99
:00000001FF
