:100000000C9490000C94B8000C94B8000C94B800B8
:100010000C94B8000C94B8000C94B8000C94B80080
:100020000C94B8000C94B8000C94B8000C94B80070
:100030000C94B8000C94B8000C94B8000C94B80060
:100040000C9405050C94B8000C9475050C944F05A0
:100050000C94B8000C94B8000C94B8000C94B80040
:100060000C94B8000C94B800417373657274696F96
:100070006E2000706173736564006661696C65640D
:1000800000292000202800292C2066696C652000AA
:100090002C206C696E6520003100213D00780076CF
:1000A0006974726F2E696E6F003D3D00696E636FFB
:1000B00072726563740054657374200020736B69F9
:1000C000707065642E00207061737365642E00206B
:1000D0006661696C65642E00546573742073756D78
:1000E0006D6172793A2000207061737365642C2011
:1000F00000206661696C65642C20616E64200020BC
:10010000736B69707065642C206F7574206F662046
:100110000020746573742873292E0000A705A307B7
:1001200011241FBECFEFD8E0DEBFCDBF11E0A0E0AD
:10013000B1E0EAE5F2E102C005900D92A834B10702
:10014000D9F722E0A8E4B1E001C01D92A431B207C2
:10015000E1F710E0CFE8D0E004C02197FE010E9453
:100160000C09CE38D107C9F70E9414060C94200957
:100170000C940000EF92FF920F931F93CF93DF93A5
:100180008C017B01C0E0D0E0F701EC0FFD1F649112
:10019000662361F0D801ED91FC910190F081E02D92
:1001A000C8010995892B11F02196EECFCE01DF9180
:1001B000CF911F910F91FF90EF900895CF92DF9212
:1001C000EF92FF920F931F93CF93DF936C017A010D
:1001D0008B01C0E0D0E0CE15DF0589F0D8016D912C
:1001E0008D01D601ED91FC910190F081E02DC601C9
:1001F0000995892B11F47E0102C02196ECCFC7012D
:10020000DF91CF911F910F91FF90EF90DF90CF90F2
:100210000895FC01918D828D981761F0828DDF0128
:10022000A80FB11D5D968C91928D9F5F9F73928FE9
:1002300090E008958FEF9FEF0895FC01918D828DDE
:10024000981731F0828DE80FF11D858D90E00895AB
:100250008FEF9FEF0895FC01918D228D892F90E003
:10026000805C9F4F821B91098F73992708958DE5BC
:1002700091E00E942B0121E0892B09F420E0822FDC
:100280000895FC01848DDF01A80FB11DA35ABF4F53
:100290002C91848D90E001968F739927848FA68985
:1002A000B7892C93A089B1898C9180648C93938DAC
:1002B000848D981306C00288F389E02D80818F7D9C
:1002C00080830895EF92FF920F931F93CF93DF9354
:1002D000EC0181E0888F9B8D8C8D981305C0E88997
:1002E000F989808185FD24C0F62E0B8D10E00F5F0B
:1002F0001F4F0F731127E02E8C8DE8120CC00FB624
:1003000007FCFACFE889F989808185FFF5CFCE0116
:100310000E944101F1CF8B8DFE01E80FF11DE35AE0
:10032000FF4FF0820B8FEA89FB898081806207C0D2
:10033000EE89FF896083E889F98980818064808300
:1003400081E090E0DF91CF911F910F91FF90EF90AE
:100350000895CF93DF93EC01888D8823C9F0EA8953
:10036000FB89808185FD05C0A889B9898C9186FDAE
:100370000FC00FB607FCF5CF808185FFF2CFA889AB
:10038000B9898C9185FFEDCFCE010E944101E7CF65
:10039000DF91CF91089580E090E0892B29F00E94B1
:1003A000370181110C9400000895CF93DF93EC0185
:1003B000E881F9810084F185E02D09958C818130F7
:1003C00011F483E08C83DF91CF910895089508950F
:1003D0002EE231E0FC0131832083E0915001F09165
:1003E0005101A0E5B1E0309771F0E817F90729F461
:1003F000828193818D939C930895DF0112960280F0
:10040000F381E02DF0CF08952EE231E0FC0131833D
:100410002083E0915001F0915101A0E5B1E03097C7
:1004200071F0E817F90729F4828193818D939C93E9
:100430000895DF0112960280F381E02DF0CF089538
:10044000FC0181E0DB014D915C91208131814217FB
:10045000530709F480E00895FC0181E0DB014D9130
:100460005C91208131814217530709F080E00895A3
:100470000E9412096115710579F0FB0101900020BD
:10048000E9F73197AF01461B570BDC01ED91FC9169
:100490000280F381E02D099480E090E008954F926E
:1004A0005F926F927F92EF92FF920F931F93CF9381
:1004B000DF93CDB7DEB7A1970FB6F894DEBF0FBEBE
:1004C000CDBF7C01FA01CB0119A2223008F42AE049
:1004D0008E010F5D1F4F422E512C612C712CBF01DC
:1004E000A30192010E94EA08F901CA010150110911
:1004F0006A3014F4605D01C0695CD8016C93232BF1
:10050000242B252B61F7B801C7010E943A02A1965E
:100510000FB6F894DEBF0FBECDBFDF91CF911F9114
:100520000F91FF90EF907F906F905F904F900895A4
:10053000CF92DF92EF92FF920F931F93CF93DF93AF
:100540006B01770FEE08FF08F7FE1FC0EC01E88192
:10055000F9810190F081E02D6DE209958C0144272D
:100560005527BA014C195D096E097F092AE0CE01B1
:100570000E944F02800F911FDF91CF911F910F9129
:10058000FF90EF90DF90CF9008952AE0B701A60189
:10059000DF91CF911F910F91FF90EF90DF90CF905F
:1005A0000C944F020F931F93CF93DF93EC010E94A3
:1005B000BA008C0164E471E0CE010E943A02800F1F
:1005C000911FDF91CF911F910F9108952F923F922C
:1005D0004F925F926F927F928F929F92AF92BF9253
:1005E000CF92DF92EF92FF920F931F93CF93DF93FF
:1005F00000D0CDB7DEB71C017A8369832A013901A7
:10060000B501C901F7010995F82EE0915201F09169
:100610005301811109C0309709F482C084E08483BA
:10062000828584FD07C07CC0309709F479C082853B
:1006300085FF76C068E670E08DE591E00E94BA0023
:10064000FF2009F000C06AE770E08DE591E00E94AC
:10065000BA0064EE70E08DE591E00E94BA0065E8B2
:1006600070E08DE591E00E94BA00B2018DE591E065
:100670000E94BA006BE970E08DE591E00E94BA003B
:10068000D3016D917C918DE591E00E94980261E823
:1006900070E08DE591E00E94BA00B8018DE591E02F
:1006A0000E94BA0064E870E08DE591E00E94BA0013
:1006B000B6018DE591E00E94BA006BE970E08DE52E
:1006C00091E00E94BA00F501608171818DE591E0B1
:1006D0000E94980267E870E08DE591E00E94BA0000
:1006E000B1018DE591E00E94BA0060E970E08DE50E
:1006F00091E00E94BA0089819A81AC0160E070E0CB
:100700002AE08DE591E00E944F02D401ED91FC9129
:100710008F2D099569E171E08DE591E00E94D2028B
:100720008F2D0F900F90DF91CF911F910F91FF9020
:10073000EF90DF90CF90BF90AF909F908F907F9081
:100740006F905F904F903F902F9008958F929F925F
:10075000AF92BF92CF92DF92EF92FF920F931F93CF
:10076000CF93DF9300D000D000D0CDB7DEB781E0CB
:1007700090E09A83898327EE31E03E832D839C832A
:100780008B8328E930E00AE910E04DE950E08FE979
:1007900090E0BE016B5F7F4F4B01625071095B01BE
:1007A000690120E2E22E22E0F22E9E012F5F3F4FF0
:1007B0006DE070E00E94E60226960FB6F894DEBF68
:1007C0000FBECDBFDF91CF911F910F91FF90EF90A2
:1007D000DF90CF90BF90AF909F908F9008958F92B1
:1007E0009F92AF92BF92CF92DF92EF92FF920F93C0
:1007F0001F93CF93DF9300D000D000D0CDB7DEB7EA
:1008000081E090E09A83898327EE31E03E832D8357
:100810009C838B8328E930E009EA10E04DE950E041
:100820008FE990E0BE016B5F7F4F4B016250710911
:100830005B0169012CE2E22E22E0F22E9E012F5F85
:100840003F4F67E070E00E94E60226960FB6F894EC
:10085000DEBF0FBECDBFDF91CF911F910F91FF90F3
:10086000EF90DF90CF90BF90AF909F908F900895C2
:10087000FC01CB0124816281738121110C94BA00A7
:100880000C943A028F929F92AF92BF92CF92DF92D6
:10089000EF92FF920F931F93CF93DF93CDB7DEB705
:1008A00028970FB6F894DEBF0FBECDBF7C01DC01E8
:1008B00014961C9200E511E0D801ED91FC9130975F
:1008C00009F463C0D70119968C91811103C020E00F
:1008D00030E002C022E030E08185282B578140853E
:1008E000F701878190852130310551F022303105A3
:1008F00061F0232BB9F4652F742F0E9417090DC0E6
:10090000652F742F0E94E10808C0BC01852F942F29
:100910000E94E1089195819591090097B1F10CF041
:100920005AC033C06C01A52EB42E812CF82DF37063
:100930009F2EA1F444E050E0B601CE0105960E943E
:10094000D80884E0C80ED11C44E050E0B501CE01C7
:1009500001960E94D808A4E0AA0EB11C292D30E00F
:10096000E5E0F0E0EC0FFD1FE20FF31F8081E1E016
:10097000F0E0EC0FFD1FE20FF31F9081891728F0C4
:10098000981748F183948111D1CFF801808191812A
:10099000D70113969C938E931297F182E0828091F7
:1009A0004801909149010196909349018093480133
:1009B00028960FB6F894DEBF0FBECDBFDF91CF9162
:1009C0001F910F91FF90EF90DF90CF90BF90AF906D
:1009D0009F908F900895F801008111810E5F1F4F45
:1009E0006BCFCF93DF93EC010E940402CE01DF9125
:1009F000CF910C944008CF93DF93EC010E94E80163
:100A0000CE01DF91CF910C9440081F920F920FB648
:100A10000F9211242F933F938F939F93AF93BF9384
:100A20008091590190915A01A0915B01B0915C01B4
:100A30003091580123E0230F2D3720F40196A11D9A
:100A4000B11D05C026E8230F0296A11DB11D2093FC
:100A500058018093590190935A01A0935B01B09380
:100A60005C018091540190915501A0915601B09183
:100A700057010196A11DB11D80935401909355011A
:100A8000A0935601B0935701BF91AF919F918F9161
:100A90003F912F910F900FBE0F901F9018951F92AE
:100AA0000F920FB60F9211242F933F934F935F93A2
:100AB0006F937F938F939F93AF93BF93EF93FF9326
:100AC0008DE591E00E944101FF91EF91BF91AF91BF
:100AD0009F918F917F916F915F914F913F912F9156
:100AE0000F900FBE0F901F9018951F920F920FB688
:100AF0000F9211242F938F939F93EF93FF93E09185
:100B00006D01F0916E018081E0917301F0917401AB
:100B100082FD12C09081809176018F5F8F7320914A
:100B20007701821751F0E0917601F0E0E35AFE4F31
:100B3000958F8093760101C08081FF91EF919F9105
:100B40008F912F910F900FBE0F901F901895CF92FD
:100B5000DF92EF92FF920F931F93CF93DF93EDE518
:100B6000F1E01382128288EE93E0A0E0B0E084838B
:100B70009583A683B7838AE091E09183808385EC97
:100B800090E09587848784EC90E09787868780EC57
:100B900090E0918B808B81EC90E0938B828B82EC48
:100BA00090E0958B848B86EC90E0978B868B118EF2
:100BB000128E138E148E8EEA90E0C5E0D2E02EE203
:100BC000C22E21E0D22ED982C88238E2E32E31E053
:100BD000F32EFE82ED8298878F8301E009871FE163
:100BE0001A87CE010E9442048AE391E099838883A8
:100BF0008CEA90E0CAEFD1E0D982C882FE82ED8211
:100C000098878F8309871A87CE010E9442048AE160
:100C100091E099838883DF91CF911F910F91FF908D
:100C2000EF90DF90CF900895789484B5826084BD72
:100C300084B5816084BD85B5826085BD85B58160E0
:100C400085BD80916E00816080936E00109281005E
:100C50008091810082608093810080918100816019
:100C600080938100809180008160809380008091DA
:100C7000B10084608093B1008091B0008160809366
:100C8000B00080917A00846080937A0080917A002D
:100C9000826080937A0080917A00816080937A00EC
:100CA00080917A00806880937A001092C100E09170
:100CB0006D01F0916E0182E08083E0916901F09115
:100CC0006A011082E0916B01F0916C018FEC8083DE
:100CD00010927501E0917101F091720186E08083BC
:100CE000E0916F01F0917001808180618083E091DB
:100CF0006F01F0917001808188608083E0916F01C5
:100D0000F0917001808180688083E0916F01F091A3
:100D1000700180818F7D8083CC24C39480E5E82E90
:100D200081E0F82EF70180819181009709F4F5C0E8
:100D30009093530180935201DC0114962C911497E7
:100D4000213039F4ED91FC910280F381E02D099579
:100D500011C021110FC0DC01ED91FC910190F081D7
:100D6000E02D0995E0915201F091530184818111A8
:100D700001C0C482C0915201D09153018C81D7012E
:100D8000ED91FC911197813009F4C2C08281938169
:100D90008D939C938C8101E0833009F000E011E099
:100DA000843009F010E0DD24D394823009F0D12C96
:100DB000011105C011110EC0D11017C057C080918C
:100DC0004E0190914F01019690934F0180934E01F7
:100DD000112349F080914C0190914D01019690931F
:100DE0004D0180934C01DD2081F080914A0190916A
:100DF0004B01019690934B0180934A01209709F48F
:100E000035C08A8583FD0AC099C0002309F48CC0CF
:100E1000209709F42BC08A8582FF92C066EB70E0B0
:100E20008DE591E00E94BA00ED81FE810190F08194
:100E3000E02D6DE571E0CE0105960995DD2031F0DC
:100E40006CEB70E08DE591E00E94D202002331F05E
:100E500066EC70E08DE591E00E94D202112331F042
:100E60006FEC70E08DE591E00E94D202809150011C
:100E700090915101892B09F055CF68ED70E08DE517
:100E800091E00E94BA0040914E0150914F0160E004
:100E900070E02AE08DE591E00E944F0267EE70E07D
:100EA0008DE591E00E94BA0040914C0150914D01B6
:100EB00060E070E02AE08DE591E00E944F0261EF72
:100EC00070E08DE591E00E94BA0040914A01509196
:100ED0004B0160E070E02AE08DE591E00E944F0256
:100EE0006FEF70E08DE591E00E94BA0040914801FB
:100EF0005091490160E070E02AE08DE591E00E94A8
:100F00004F0261E171E08DE591E00E94D2020ACFCB
:100F10007F01B2E0EB0EF11C05CF1092530110924D
:100F200052010E94CB01FACE112309F49FCF2097E2
:100F300009F49CCF8A8581FF99CF70CF01116BCFC7
:100F40001111F8CF93CF8AEF91E00E94040285E05F
:100F500092E00C94E801CF93DF938230910510F476
:100F600082E090E0E0911202F091130220E030E084
:100F7000C0E0D0E0309711F1408151814817590706
:100F8000C0F04817590761F482819381209719F0C6
:100F90009B838A832BC0909313028093120226C0F6
:100FA0002115310519F04217530718F49A01BE01B3
:100FB000DF01EF010280F381E02DDCCF2115310547
:100FC00009F1281B390B2430310590F412968D91CC
:100FD0009C9113976115710521F0FB019383828326
:100FE00004C09093130280931202FD01329644C014
:100FF000FD01E20FF31F81939193225031092D934C
:101000003C933AC02091100230911102232B41F4FD
:1010100020910201309103013093110220931002BC
:1010200020910001309101012115310541F42DB7C6
:101030003EB74091040150910501241B350BE0910E
:101040001002F0911102E217F307A0F42E1B3F0BE0
:101050002817390778F0AC014E5F5F4F241735072A
:1010600048F04E0F5F1F509311024093100281937E
:10107000919302C0E0E0F0E0CF01DF91CF910895BD
:101080000F931F93CF93DF93009709F48CC0FC015B
:1010900032971382128200911202109113020115ED
:1010A000110581F420813181820F931F209110025C
:1010B000309111022817390779F5F0931102E09366
:1010C000100271C0D80140E050E0AE17BF0750F4E5
:1010D00012962D913C911397AD012115310509F11F
:1010E000D901F3CF9D01DA013383228360817181BD
:1010F000860F971F8217930769F4EC0128813981C5
:10110000260F371F2E5F3F4F318320838A819B81BB
:1011100093838283452B29F4F0931302E093120208
:1011200042C01396FC93EE931297ED0149915991A9
:101130009E01240F351FE217F30771F4808191811E
:10114000840F951F029611969C938E9382819381B2
:1011500013969C938E931297E0E0F0E0D8011296DC
:101160008D919C911397009719F0F8018C01F6CF9F
:101170008D919C9198012E5F3F4F820F931F20917C
:101180001002309111022817390769F4309729F4B9
:10119000109213021092120202C013821282109354
:1011A000110200931002DF91CF911F910F910895CA
:1011B000FB01DC0102C005900D9241505040D8F770
:1011C0000895FB01DC018D91059080190110D9F380
:1011D000990B0895A1E21A2EAA1BBB1BFD010DC09D
:1011E000AA1FBB1FEE1FFF1FA217B307E407F507D7
:1011F00020F0A21BB30BE40BF50B661F771F881FB3
:10120000991F1A9469F760957095809590959B0148
:10121000AC01BD01CF010895EE0FFF1F0590F491C1
:10122000E02D099481E090E0F8940C942009FB01F2
:10123000DC018D91019080190110D9F3990B08956B
:1012400010E0CFE8D0E004C0FE010E940C09219616
:0A125000C039D107C9F7F894FFCFA9
:10125A00000014028000000000006201DE002B0181
:10126A0009011D01A90100000000E601D5010402DF
:10127A00F104A60300000000380400000000E601A3
:10128A0038020000000000000000E601D501E80174
:08129A00FB04EF030D0A000044
:00000001FF
