:100000000C9441050C9469050C9469050C946905E0
:100010000C9469050C9469050C9469050C946905A8
:100020000C9469050C9469050C9469050C94690598
:100030000C9469050C9469050C9469050C94690588
:100040000C94A71D0C9469050C94121A0C94591A5F
:100050000C9469050C9469050C9469050C94690568
:100060000C9469050C94690570617373657300667F
:1000700061696C7300736B6970730061737365728F
:10008000745F626F6F6C73006173736572745F6924
:100090006E7473006173736572745F737472696EEA
:1000A0006773006D657461006F766572616C6C00DA
:1000B000546573743A3A444F4E455F504153530070
:1000C0003D3D00746573745F6D6574615F696E7347
:1000D00074616E63652E7374617465006669726D18
:1000E000776172652E696E6F00546573743A3A4495
:1000F0004F4E455F50415353003D3D00746573744E
:100100005F6173736572745F737472696E67735F36
:10011000696E7374616E63652E73746174650066D5
:1001200069726D776172652E696E6F0054657374C4
:100130003A3A444F4E455F50415353003D3D0074A1
:100140006573745F6173736572745F696E74735FF6
:10015000696E7374616E63652E7374617465006695
:1001600069726D776172652E696E6F005465737484
:100170003A3A444F4E455F50415353003D3D007461
:100180006573745F6173736572745F626F6F6C73B4
:100190005F696E7374616E63652E7374617465005C
:1001A0006669726D776172652E696E6F0054657352
:1001B000743A3A444F4E455F534B4950003D3D0021
:1001C000746573745F736B6970735F696E73746168
:1001D0006E63652E7374617465006669726D776114
:1001E00072652E696E6F00546573743A3A444F4ECF
:1001F000455F4641494C003D3D00746573745F6640
:1002000061696C735F696E7374616E63652E73747C
:10021000617465006669726D776172652E696E6FD3
:1002200000546573743A3A444F4E455F50415353FE
:10023000003D3D00746573745F7061737365735F37
:10024000696E7374616E63652E73746174650066A4
:1002500069726D776172652E696E6F0029003D00CD
:100260002028002920003D002061737365727420EE
:1002700028006661696C0070617373003A313A203E
:10028000003A00546573743A3A444F4E455F534BFD
:10029000495000213D00746573745F736B6970731E
:1002A0005F696E7374616E63652E7374617465004B
:1002B0006669726D776172652E696E6F0054657341
:1002C000743A3A444F4E455F534B495000213D002C
:1002D000746573745F6661696C735F696E73746172
:1002E0006E63652E7374617465006669726D776103
:1002F00072652E696E6F00546573743A3A444F4EBE
:10030000455F534B495000213D00746573745F7025
:1003100061737365735F696E7374616E63652E7369
:1003200074617465006669726D776172652E696EBD
:100330006F00546573743A3A444F4E455F534B49CE
:1003400050003D3D00746573745F736B6970735F3B
:10035000696E7374616E63652E7374617465006693
:1003600069726D776172652E696E6F005465737482
:100370003A3A444F4E455F534B4950003D3D00745F
:100380006573745F6661696C735F696E7374616EC7
:1003900063652E7374617465006669726D7761724E
:1003A000652E696E6F00546573743A3A444F4E453A
:1003B0005F534B4950003D3D00746573745F70613D
:1003C000737365735F696E7374616E63652E7374A6
:1003D000617465006669726D776172652E696E6F12
:1003E00000546573743A3A444F4E455F4641494C58
:1003F00000213D00746573745F736B6970735F698E
:100400006E7374616E63652E7374617465006669E2
:10041000726D776172652E696E6F00546573743A00
:100420003A444F4E455F4641494C00213D007465BA
:1004300073745F6661696C735F696E7374616E6318
:10044000652E7374617465006669726D776172659B
:100450002E696E6F00546573743A3A444F4E455F8F
:100460004641494C00213D00746573745F706173AF
:100470007365735F696E7374616E63652E73746107
:100480007465006669726D776172652E696E6F00C2
:10049000546573743A3A444F4E455F4641494C00A7
:1004A0003D3D00746573745F736B6970735F696E53
:1004B0007374616E63652E7374617465006669722E
:1004C0006D776172652E696E6F00546573743A3A88
:1004D000444F4E455F4641494C003D3D00746573B5
:1004E000745F6661696C735F696E7374616E636576
:1004F0002E7374617465006669726D776172652E22
:10050000696E6F00546573743A3A444F4E455F46C6
:1005100041494C003D3D00746573745F70617373B5
:1005200065735F696E7374616E63652E7374617455
:1005300065006669726D776172652E696E6F005431
:100540006573743A3A444F4E455F5041535300210E
:100550003D00746573745F736B6970735F696E736C
:1005600074616E63652E7374617465006669726D83
:10057000776172652E696E6F00546573743A3A4400
:100580004F4E455F5041535300213D0074657374D5
:100590005F6661696C735F696E7374616E63652E0B
:1005A0007374617465006669726D776172652E6936
:1005B0006E6F00546573743A3A444F4E455F504134
:1005C000535300213D00746573745F7061737365EC
:1005D000735F696E7374616E63652E7374617465A5
:1005E000006669726D776172652E696E6F00546581
:1005F00073743A3A444F4E455F50415353003D3D6A
:1006000000746573745F736B6970735F696E737484
:10061000616E63652E7374617465006669726D77CF
:100620006172652E696E6F00546573743A3A444F77
:100630004E455F50415353003D3D00746573745FF8
:100640006661696C735F696E7374616E63652E7346
:1006500074617465006669726D776172652E696E8A
:100660006F00546573743A3A444F4E455F5041539E
:1006700053003D3D00746573745F706173736573FF
:100680005F696E7374616E63652E73746174650067
:100690006669726D776172652E696E6F005465735D
:1006A000743A3A444F4E455F534B4950003C0074F6
:1006B0006573745F736B6970735F696E7374616E79
:1006C00063652E7374617465006669726D7761721B
:1006D000652E696E6F00546573743A3A444F4E4507
:1006E0005F534B4950003C00746573745F666169E9
:1006F0006C735F696E7374616E63652E737461747D
:1007000065006669726D776172652E696E6F00545F
:100710006573743A3A444F4E455F534B4950003C21
:1007200000746573745F7061737365735F696E7372
:1007300074616E63652E7374617465006669726DB1
:10074000776172652E696E6F00546573743A3A442E
:100750004F4E455F534B4950003E3D0074657374E6
:100760005F736B6970735F696E7374616E63652E1E
:100770007374617465006669726D776172652E6964
:100780006E6F00546573743A3A444F4E455F534B55
:100790004950003E3D00746573745F6661696C7317
:1007A0005F696E7374616E63652E73746174650046
:1007B0006669726D776172652E696E6F005465733C
:1007C000743A3A444F4E455F534B4950003E3D000A
:1007D000746573745F7061737365735F696E73744E
:1007E000616E63652E7374617465006669726D77FE
:1007F0006172652E696E6F0079003E00780066694F
:10080000726D776172652E696E6F0079003E3D00F2
:1008100078006669726D776172652E696E6F007916
:1008200000213D0078006669726D776172652E69FE
:100830006E6F0079003D3D0078006669726D7761EA
:1008400072652E696E6F0079003C3D007800666924
:10085000726D776172652E696E6F0079003C007869
:10086000006669726D776172652E696E6F0029008E
:100870003D002028002920003D002061737365722F
:10088000742028006661696C0070617373003A31EE
:100890003A20003A0079003E0078006669726D7770
:1008A0006172652E696E6F0079003E3D00780066CA
:1008B00069726D776172652E696E6F007900213DF6
:1008C0000078006669726D776172652E696E6F00DF
:1008D00079003D3D0078006669726D776172652E22
:1008E000696E6F0079003C3D0078006669726D7733
:1008F0006172652E696E6F0079003C007800666950
:10090000726D776172652E696E6F0029003D00205F
:1009100028002920003D002061737365727420282F
:10092000006661696C0070617373003A313A2000AF
:100930003A00307830003D3D0078006669726D778E
:100940006172652E696E6F00307831003D3D007830
:10095000006669726D776172652E696E6F0008209E
:100960000800636F6D6D616E643E2000202072751B
:100970006E0020206D61785F766572626F736974B6
:1009800079203C62696E617279206E756D62657264
:100990003E0020206D696E5F766572626F736974C8
:1009A00079203C62696E617279206E756D62657244
:1009B0003E0020206578636C756465203C7061742E
:1009C0007465726E3E002020696E636C75646520EC
:1009D0003C7061747465726E3E00696E746572611C
:1009E00063746976652074657374657220636F6DD6
:1009F0006D616E64733A00546865206F766572614C
:100A00006C6C20746573742073686F756C642070EF
:100A10006173732E2E2E0020746573742873292E33
:100A20000020736B69707065642C206F7574206F83
:100A3000662000206661696C65642C20616E64200C
:100A400000207061737365642C20007465737420DA
:100A500073756D6D6172793A2000206661696C650D
:100A6000642E00207061737365642E0020736B69BF
:100A7000707065642E00746573742000A209BF1B3A
:100A80009B0911241FBECFEFD8E0DEBFCDBF11E020
:100A9000A0E0B1E0E8E1FDE302C005900D92AC3FBB
:100AA000B107D9F713E0ACEFB1E001C01D92A03758
:100AB000B107E1F71AE0C0E8DAE004C02297FE01CE
:100AC0000E947B1ECC37D107C9F70E94D4140C9426
:100AD0006D060C940000CF93DF93BC01823091052A
:100AE00010F462E070E0A0916E03B0916F03ED012D
:100AF000E0E0F0E040E050E021C088819981861775
:100B0000970769F48A819B81309719F093838283D8
:100B100004C090936F0380936E03FE0134C0681786
:100B2000790738F44115510519F08417950708F431
:100B3000AC01FE018A819B819C01E9012097E9F6C5
:100B400041155105A9F1CA01861B970B049708F4BA
:100B5000BA01E0E0F0E02AC08D919C9111978417D2
:100B60009507F9F46417750781F412968D919C919D
:100B70001397309719F09383828304C090936F0387
:100B800080936E03FD0132964CC0CA01861B970B01
:100B9000FD01E80FF91F6193719302978D939C9368
:100BA00040C0FD01828193819C01D9011097A1F67B
:100BB00080916C0390916D03892B41F480914F01DA
:100BC0009091500190936D0380936C03409151017B
:100BD000509152014115510541F44DB75EB78091D6
:100BE0004D0190914E01481B590B20916C0330919F
:100BF0006D03CA01821B930B8617970780F0AB0128
:100C00004E5F5F4F8417950750F0420F531F50936C
:100C10006D0340936C03F9016193719302C0E0E0AE
:100C2000F0E0CF01DF91CF910895CF93DF9300974C
:100C300009F450C0EC0122971B821A82A0916E0326
:100C4000B0916F03109709F140E050E0AC17BD0779
:100C500008F1BB83AA83FE0121913191E20FF31FBA
:100C6000AE17BF0779F48D919C911197280F391F0A
:100C70002E5F3F4F3983288312968D919C91139755
:100C80009B838A834115510571F4D0936F03C09300
:100C90006E0320C012968D919C911397AD01009721
:100CA00011F0DC01D3CFFA01D383C28321913191BA
:100CB000E20FF31FCE17DF0769F488819981280FAF
:100CC000391F2E5F3F4FFA01318320838A819B8138
:100CD00093838283DF91CF910895F8940C947F1EC3
:100CE000FB01DC0102C005900D9241505040D8F745
:100CF0000895FC0105900020E9F7809590958E0FEE
:100D00009F1F0895FB01DC0102C001900D9241502C
:100D10005040D8F70895DC0101C06D934150504018
:100D2000E0F70895FB01DC018D910190801901101D
:100D3000D9F3990B0895FB01DC014150504030F08C
:100D40008D910190801919F40020B9F7881B990B37
:100D5000089542305105F1F0433051053CF44115FE
:100D6000510571F04130510551F50FC04430510526
:100D7000D9F0443051059CF04530510501F519C0BA
:100D800020E086179707E4F418C020E06817790779
:100D9000BCF013C020E08617970791F40EC020E046
:100DA0008617970751F40CC020E08617970744F088
:100DB00004C020E0681779071CF421E001C0089501
:100DC000822F08956330710509F466C0643071059F
:100DD00054F46130710589F1623071050CF046C040
:100DE000672B91F0CCC06530710509F481C0653086
:100DF00071050CF467C06630710509F48FC0673067
:100E0000710509F0BCC0A2C08130910549F0823063
:100E1000910551F0009789F420E09091500207C0AD
:100E200020E090915C0203C020E0909168028091E4
:100E3000C901981708F4A4C0A0C08130910549F0F9
:100E40008230910579F0009789F420E0909150026A
:100E500003C020E090915C028091C901981708F0CE
:100E60008FC08BC020E090916802F6CF8130910551
:100E700049F08230910551F0009771F420E0909193
:100E8000500207C020E090915C0203C020E09091E6
:100E900068028091CA0157C08130910549F08230C3
:100EA000910551F0009771F420E09091500207C035
:100EB00020E090915C0203C020E090916802809154
:100EC000CA0159C08130910549F08230910551F035
:100ED000009771F420E09091500207C020E09091BB
:100EE0005C0203C020E0909168028091CB012BC08E
:100EF0008130910549F08230910551F0009771F4ED
:100F000020E09091500207C020E090915C0203C065
:100F100020E0909168028091CB012DC08130910535
:100F200049F08230910551F0009781F420E09091D2
:100F3000500207C020E090915C0203C020E0909135
:100F400068028091C9019817D9F417C081309105C2
:100F500049F08230910551F0892B89F420E090917D
:100F6000500207C020E090915C0203C020E0909105
:100F700068028091C901981719F021E001C020E0B2
:100F8000822F0895FC01DB0140E0208131818D91A9
:100F90009C912817390709F441E0842F0895FC013A
:100FA000DB0140E0208131818D919C912817390728
:100FB0000CF441E0842F0895DC01FB0140E0208126
:100FC00031818D919C91281739070CF041E0842FD5
:100FD0000895FC01DB0140E0208131818D919C91DD
:100FE0002817390709F041E0842F0895FC01DB013F
:100FF00040E0208131818D919C91281739070CF0B8
:1010000041E0842F0895DC01FB0140E02081318123
:101010008D919C91281739070CF441E0842F089595
:10102000FC01DB0120E090818C91981708F021E011
:10103000822F0895FC01DB0120E090818C919817AC
:1010400008F421E0822F0895FC01DB0120E090816B
:101050008C91981709F421E0822F0895FC01DB019F
:1010600020E090818C91981321E0822F0895FC015B
:1010700080EC91E091838083CF010E94F014089569
:10108000FC0184EB91E091838083CF010E94F014F6
:101090000895FC0188EA91E091838083CF010E944A
:1010A000F0140895FC0180ED91E091838083CF01DD
:1010B0000E94F0140895FC0180ED91E091838083FB
:1010C000CF010E94F0140895FC0180ED91E091831E
:1010D0008083CF010E94F0140895FC0182E791E023
:1010E00091838083CF010E94F0140895FC0186E66D
:1010F00091E091838083CF010E94F01408950F93B3
:101100001F938C0180EC91E0F80191838083C801EA
:101110000E94F014C8010E94101C1F910F910895A5
:101120000F931F938C0184EB91E0F80191838083EE
:10113000C8010E94F014C8010E94101C1F910F9159
:1011400008950F931F938C0188EA91E0F801918331
:101150008083C8010E94F014C8010E94101C1F91D6
:101160000F9108950F931F938C0180ED91E0F8018A
:1011700091838083C8010E94F014C8010E94101C52
:101180001F910F9108950F931F938C0180ED91E0B3
:10119000F80191838083C8010E94F014C8010E9465
:1011A000101C1F910F9108950F931F938C0180EDD8
:1011B00091E0F80191838083C8010E94F014C80176
:1011C0000E94101C1F910F9108950F931F938C0183
:1011D00082E791E0F80191838083C8010E94F014B6
:1011E000C8010E94101C1F910F9108950F931F9327
:1011F0008C0186E691E0F80191838083C8010E940A
:10120000F014C8010E94101C1F910F9108958130A5
:10121000910509F06AC06F5F7F4F09F08BC08CE4C5
:1012200092E068E670E04FE10E94EC1980EC91E0FA
:1012300090934D0280934C0288E592E06FE670E057
:101240004FE10E94EC1984EB91E090935902809356
:10125000580284E692E065E770E04FE10E94EC19E5
:1012600088EA91E0909365028093640280E792E0BF
:101270006BE770E00E94031A8AE991E09093710293
:10128000809370028CE792E068E870E00E94031A95
:101290008CE891E090937D0280937C0288E892E054
:1012A00064E970E00E94031A8EE791E0909389024E
:1012B0008093880284E992E063EA70E04FE10E9443
:1012C000EC1982E791E0909395028093940280EA72
:1012D00092E068EA70E04FE10E94EC1986E691E046
:1012E0009093A1028093A0020895892B19F56F5F56
:1012F0007F4F01F580EA92E00E94760884E992E04F
:101300000E946D0888E892E00E9464088CE792E0F1
:101310000E945B0880E792E00E94520884E692E017
:101320000E94490888E592E00E9440088CE492E01F
:101330000E943708089580E090E06FEF7FEF0E94F1
:101340000709089581E090E06FEF7FEF0E940709A1
:1013500008954F925F926F927F928F929F92AF9279
:10136000BF92CF92DF92EF92FF920F931F93CF9392
:10137000DF93EC014B012A013901F701C901B501E5
:101380000995F82E882349F48091B2029091B30216
:101390000097B1F00E94E71413C080915E0185FFB1
:1013A000ADC080915F0185FD1DC0E091B202F0915A
:1013B000B302309709F4A2C0838585FD13C09EC097
:1013C00080915E0184FF9AC080915F0184FD0AC014
:1013D000E091B202F091B302309709F48FC0838597
:1013E00084FF8CC08091600190916101BE010E94D8
:1013F0003D1C809160019091610161E872E00E9462
:101400003D1C8091600190916101B4014AE050E07F
:101410000E942E1D80916001909161016CE772E045
:101420000E943D1C8091600190916101FF2019F0A4
:1014300067E772E002C062E772E00E943D1C8091A3
:1014400060019091610168E672E00E943D1C80910C
:10145000600190916101B2010E943D1C8091600188
:101460009091610166E672E00E943D1C80916001EE
:1014700090916101F30160814AE050E00E943F1DBC
:10148000809160019091610163E672E00E943D1CD1
:101490008091600190916101B8010E943D1C809192
:1014A00060019091610160E672E00E943D1C8091B4
:1014B000600190916101B6010E943D1C8091600124
:1014C000909161016EE572E00E943D1C8091600187
:1014D00090916101F50160814AE050E00E943F1D5A
:1014E00080916001909161016CE572E00E943D1C69
:1014F00080916001909161010E94731C8F2DDF919A
:10150000CF911F910F91FF90EF90DF90CF90BF9000
:10151000AF909F908F907F906F905F904F900895C5
:101520009F92AF92BF92CF92DF92EF92FF920F9372
:101530001F93CF93DF93EC018091BA029091BB028D
:101540002091B6023091B702820F931F019620912D
:10155000B8023091B902820F931F2091B4023091EA
:10156000B5028217930709F0D4C09090C901809109
:1015700050028915D9F08FE492E06BE871E044E302
:1015800052E020E532E001E312E0B4E2EB2EB8E0F5
:10159000FB2EA1E2CA2EA2E0DA2EFAECAF2EF1E089
:1015A000BF2E0E94A909882309F4B3C080915C0270
:1015B0008915D9F084E192E06CE871E04AEF51E0DE
:1015C0002CE532E007EF11E0E4E2EE2EE8E0FE2E3B
:1015D000B7EECB2EB1E0DB2EABECAA2EA1E0BA2EFB
:1015E0000E94A909882309F494C08AED91E06DE86E
:1015F00071E040EC51E028E632E00DEB11E0F4E25E
:10160000EF2EF8E0FF2EEDEACE2EE1E0DE2EB9EC73
:10161000AB2EB1E0BB2E0E94A909882309F479C042
:10162000809174028915B9F080EA91E06EE871E06A
:101630004FE751E024E732E00CE711E0ACE6CA2EB8
:10164000A1E0DA2EFAECAF2EF1E0BF2E0E94A9093C
:10165000882309F45EC0809180028915D9F08FE556
:1016600091E06FE871E04FE351E020E832E00CE3F5
:1016700011E0E4E2EE2EE8E0FE2EBCE2CB2EB1E07B
:10168000DB2EAAECAA2EA1E0BA2E0E94A90988237B
:1016900009F43FC080918C028915D1F08FE191E06F
:1016A00060E971E04CEF50E02CE832E009EF10E027
:1016B000F4E2EF2EF8E0FF2EE9EECE2EE0E0DE2E93
:1016C000BAECAB2EB1E0BB2E0E94A909882309F128
:1016D000809198028915D1F08CED90E061E971E07C
:1016E00043EC50E028E932E000EC10E0A4E2EA2EFE
:1016F000A8E0FA2EF0EBCF2EF0E0DF2EEAECAE2ED3
:10170000E1E0BE2E0E94A909882319F0CE010E94B3
:10171000E314DF91CF911F910F91FF90EF90DF9035
:10172000CF90BF90AF909F900895AF92BF92CF920D
:10173000DF92EF92FF920F931F936330710509F4CC
:10174000E2C0643071055CF46130710509F459C080
:10175000623071050CF096C0672B91F026C265309F
:10176000710509F456C1653071050CF411C166307C
:10177000710509F493C16730710509F016C2CFC134
:1017800081309105C1F08230910541F10097C9F592
:101790008BEE97E060E471E040ED57E020E532E049
:1017A0000DEC17E0A0E1EA2EA8E0FA2EFDEBCF2E1B
:1017B000F7E0DF2EF4C180EB97E061E471E046E9E9
:1017C00057E02CE532E003E917E0E0E1EE2EE8E037
:1017D000FE2EB3E8CB2EB7E0DB2EE1C186E797E023
:1017E00062E471E04CE557E028E632E009E517E0F5
:1017F000A0E1EA2EA8E0FA2EF9E4CF2EF7E0DF2EE2
:10180000CEC181309105C1F08230910541F1009740
:10181000C9F58CE397E066E471E041E257E020E52A
:1018200032E00FE117E0EAE1EE2EE8E0FE2EBFE045
:10183000CB2EB7E0DB2EB3C182E097E067E471E026
:1018400048EE56E02CE532E006EE16E0AAE1EA2E7C
:10185000A8E0FA2EF6EDCF2EF6E0DF2EA0C189EC3F
:1018600096E068E471E04FEA56E028E632E00DEADF
:1018700016E0EAE1EE2EE8E0FE2EBDE9CB2EB6E062
:10188000DB2E8DC181309105C1F08230910541F18F
:101890000097C9F580E996E06CE471E045E756E011
:1018A00020E532E002E716E0A4E2EA2EA8E0FA2EF4
:1018B000F2E6CF2EF6E0DF2E66C085E596E06DE419
:1018C00071E04BE356E02CE532E008E316E0E4E299
:1018D000EE2EE8E0FE2EB8E2CB2EB6E0DB2E53C0B3
:1018E0008BE196E06EE471E041E056E028E632E0FC
:1018F0000EEF15E0A4E2EA2EA8E0FA2EFEEECF2EBF
:10190000F5E0DF2E40C081309105C1F082309105B5
:1019100041F10097E9F581EE95E062E571E046EC72
:1019200055E020E532E003EC15E0EEE2EE2EE8E0D3
:10193000FE2EB3EBCB2EB5E0DB2E25C086EA95E07C
:1019400063E571E04CE855E02CE532E009E815E08C
:10195000AEE2EA2EA8E0FA2EF9E7CF2EF5E0DF2E70
:1019600012C08CE695E064E571E042E555E028E6BA
:1019700032E00FE415E0EEE2EE2EE8E0FE2EBFE3EB
:10198000CB2EB5E0DB2EAAECAA2EA1E0BA2E0BC11D
:1019900081309105C1F08230910541F10097C9F580
:1019A00082E395E068E571E047E155E020E532E04B
:1019B00004E115E0F4E2EF2EF8E0FF2EE4E0CE2E95
:1019C000E5E0DE2E66C087EF94E069E571E04DED5D
:1019D00054E02CE532E00AED14E0B4E2EB2EB8E07E
:1019E000FB2EAAECCA2EA4E0DA2E53C08DEB94E0B5
:1019F0006AE571E043EA54E028E632E000EA14E0E8
:101A0000F4E2EF2EF8E0FF2EE0E9CE2EE4E0DE2E49
:101A100040C081309105C1F08230910541F10097BD
:101A2000E9F583E894E06EE571E048E654E020E5EE
:101A300032E005E614E0BEE2EB2EB8E0FB2EA5E5B1
:101A4000CA2EA4E0DA2E25C088E494E06FE571E0A8
:101A50004EE254E02CE532E00BE214E0FEE2EF2E21
:101A6000F8E0FF2EEBE1CE2EE4E0DE2E12C08EE099
:101A700094E060E671E044EF53E028E632E001EFE5
:101A800013E0BEE2EB2EB8E0FB2EA1EECA2EA3E0DF
:101A9000DA2EFBECAF2EF1E0BF2E85C08130910530
:101AA000C1F08230910541F10097C9F584ED93E0D2
:101AB00064E671E049EB53E020E532E006EB13E029
:101AC000E4E2EE2EE8E0FE2EB6EACB2EB3E0DB2E0B
:101AD00066C089E993E065E671E04FE753E02CE5E5
:101AE00032E00CE713E0A4E2EA2EA8E0FA2EFCE6CE
:101AF000CF2EF3E0DF2E53C08FE593E066E671E072
:101B000045E453E028E632E002E413E0E4E2EE2E9E
:101B1000E8E0FE2EB2E3CB2EB3E0DB2E40C08130F6
:101B20009105C1F08230910541F1892BF1F585E2F3
:101B300093E06AE671E04AE053E020E532E007E036
:101B400013E0AEE2EA2EA8E0FA2EF7EFCF2EF2E095
:101B5000DF2E25C08AEE92E06BE671E040ED52E0A8
:101B60002CE532E00DEC12E0EEE2EE2EE8E0FE2E87
:101B7000BDEBCB2EB2E0DB2E12C080EB92E06CE628
:101B800071E046E952E028E632E003E912E0AEE215
:101B9000EA2EA8E0FA2EF3E8CF2EF2E0DF2EE9ECF1
:101BA000AE2EE1E0BE2E0E94A9091F910F91FF9079
:101BB000EF90DF90CF90BF90AF900895CF92DF92DB
:101BC000EF92FF920F931F93CF93DF937C010E94BC
:101BD000EF1D2091AC023091AD024091AE025091C8
:101BE000AF02621773078407950708F448C00E9484
:101BF000EF1D6C507E4F8F4F9F4F6093AC027093E0
:101C0000AD028093AE029093AF02D090C801C09015
:101C1000CB0100E010E020C0C801BE010E94950B7E
:101C2000C801BE010E94E206F7019481882319F0E1
:101C30009D1539F002C09C1521F0C7010E94E714E0
:101C40001EC0F701D4822196C830D10529F70F5F55
:101C50001F4F0330110519F0C0E0D0E0DDCF8091B7
:101C6000AC029091AD02A091AE02B091AF02805D46
:101C70009740A040B04018F0C7010E94E314DF91E4
:101C8000CF911F910F91FF90EF90DF90CF9008952B
:101C9000CF93DF93EC010E94EF1D695E734080409B
:101CA000904018F0CE010E94E714DF91CF91089583
:101CB000CF93DF93EC010E94EF1D695E734080407B
:101CC000904018F0CE010E94E314DF91CF91089567
:101CD0004F925F926F927F928F929F92AF92BF923C
:101CE000CF92DF92EF92FF920F931F93CF93DF93E8
:101CF000EC013B012A014901F701C901B501099530
:101D0000F82E882349F48091B2029091B302009793
:101D1000B1F00E94E71413C080915E0185FFABC053
:101D200080915F0185FD1DC0E091B202F091B30288
:101D3000309709F4A0C0838585FD13C09CC08091B5
:101D40005E0184FF98C080915F0184FD0AC0E0912C
:101D5000B202F091B302309709F48DC0838584FFFD
:101D60008AC08091600190916101BE010E943D1C7A
:101D7000809160019091610163E978E00E943D1CCF
:101D80008091600190916101B3014AE050E00E94AE
:101D90002E1D80916001909161016EE878E00E94B3
:101DA0003D1C8091600190916101FF2019F069E86C
:101DB00078E002C064E878E00E943D1C80916001F8
:101DC000909161016AE778E00E943D1C809160017A
:101DD00090916101B2010E943D1C8091600190913F
:101DE000610168E778E00E943D1CF4016081718127
:101DF00080916001909161010E94A41D8091600119
:101E00009091610165E778E00E943D1C809160013E
:101E100090916101B8010E943D1C809160019091F8
:101E2000610162E778E00E943D1C80916001909121
:101E30006101B6010E943D1C809160019091610199
:101E400060E778E00E943D1CF5016081718180911E
:101E50006001909161010E94A41D809160019091A8
:101E600061016EE678E00E943D1C809160019091D6
:101E700061010E94731C8F2DDF91CF911F910F91F3
:101E8000FF90EF90DF90CF90BF90AF909F908F909A
:101E90007F906F905F904F900895AF92BF92CF92D6
:101EA000DF92EF92FF920F931F93DF93CF9300D0B7
:101EB00000D0CDB7DEB79A8389837C836B834230B1
:101EC000510509F440C04330510544F44115510512
:101ED00091F04130510509F08CC021C044305105CA
:101EE00009F459C0443051050CF441C04530510546
:101EF00009F07FC064C081E698E068EE70E04FE5CD
:101F000058E09E012F5F3F4F0DE518E0B6EFEB2E36
:101F1000B5E1FB2EABE5CA2EA8E0DA2E63C08EE455
:101F200098E069EE70E04CE458E09E012F5F3F4F6F
:101F300009E418E0F7EEEF2EF5E1FF2EE7E4CE2EF0
:101F4000E8E0DE2E4FC08AE398E06AEE70E048E3F6
:101F500058E09E012F5F3F4F05E318E0B9EDEB2EEF
:101F6000B5E1FB2EA3E3CA2EA8E0DA2E3BC086E241
:101F700098E06BEE70E044E258E09E012F5F3F4F27
:101F800001E218E0FBECEF2EF5E1FF2EEFE1CE2EA3
:101F9000E8E0DE2E27C082E198E06CEE70E040E1E0
:101FA00058E09E012F5F3F4F0DE018E0BCEBEB2E99
:101FB000B5E1FB2EABE0CA2EA8E0DA2E13C08EEFFF
:101FC00097E06DEE70E04CEF57E09E012F5F3F4FC2
:101FD0000AEF17E0FDEAEF2EF5E1FF2EE8EFCE2E37
:101FE000E7E0DE2EB3E0AB2EB12CAC0EBD1E0E949E
:101FF000680E0F900F900F900F90CF91DF911F916F
:102000000F91FF90EF90DF90CF90BF90AF90089529
:102010004230510501F1433051053CF44115510561
:1020200071F041305105B1F50EC04430510509F150
:1020300044305105BCF04530510561F522C00E9485
:102040009206892F1AC00E9492069C0180E0121607
:10205000130604F11DC00E9492069C0180E0232B10
:10206000C9F416C00E9492069C0180E0232B91F0D7
:102070000FC00E949206892F8095881F8827881F8D
:1020800008950E9492069C0180E01216130614F433
:1020900081E008950895AF92BF92CF92DF92EF92C0
:1020A000FF920F931F93CF93DF936C01B090C80101
:1020B000A090CB01EE24FF2434C0F80180819181EF
:1020C000A7010E944D0F68817981F801808191817B
:1020D000A7010E940810F6019481882319F09B152E
:1020E00039F002C09A1521F0C6010E94E7141CC005
:1020F000F601B48222966881798161157105E9F64D
:102100000E5F1F4FF80180819181892B19F0C4E582
:10211000D1E0F1CF0894E11CF11CF6E0EF16F104D8
:1021200019F004E511E0EECFDF91CF911F910F91EF
:10213000FF90EF90DF90CF90BF90AF9008954F92B7
:102140005F926F927F928F929F92AF92BF92CF9247
:10215000DF92EF92FF920F931F93CF93DF93EC01E7
:102160003B012A014901F701C901B5010995F82E82
:10217000882349F48091B2029091B3020097B1F0A4
:102180000E94E71413C080915E0185FFAFC080916B
:102190005F0185FD1DC0E091B202F091B30230975E
:1021A00009F4A4C0838585FD13C0A0C080915E01A1
:1021B00084FF9CC080915F0184FD0AC0E091B2025F
:1021C000F091B302309709F491C0838584FF8EC0EB
:1021D0008091600190916101BE010E943D1C80913F
:1021E00060019091610160E379E00E943D1C809163
:1021F000600190916101B3014AE050E00E942E1D00
:1022000080916001909161016BE279E00E943D1C38
:102210008091600190916101FF2019F066E279E000
:1022200002C061E279E00E943D1C809160019091C2
:10223000610167E179E00E943D1C8091600190910D
:102240006101B2010E943D1C809160019091610189
:1022500065E179E00E943D1CF4016081718180910B
:102260006001909161014AE050E00E94911D8091CF
:1022700060019091610162E179E00E943D1C8091D2
:10228000600190916101B8010E943D1C8091600144
:10229000909161016FE079E00E943D1C80916001A6
:1022A00090916101B6010E943D1C80916001909166
:1022B00061016DE079E00E943D1CF5016081718152
:1022C00080916001909161014AE050E00E94911D6F
:1022D00080916001909161016BE079E00E943D1C6A
:1022E00080916001909161010E94731C8F2DDF919C
:1022F000CF911F910F91FF90EF90DF90CF90BF9003
:10230000AF909F908F907F906F905F904F900895C7
:10231000AF92BF92CF92DF92EF92FF920F931F93F3
:10232000DF93CF9300D000D0CDB7DEB79A838983F7
:102330007C836B834230510509F440C04330510522
:1023400044F44115510591F04130510509F08CC01C
:1023500021C04430510509F459C0443051050CF4F2
:1023600041C04530510509F07FC064C08EEF98E050
:102370006AEB70E04CEF58E09E012F5F3F4F0AEF91
:1023800018E0EFECEE2EE7E0FE2EB8EFCB2EB8E033
:10239000DB2E63C08BEE98E06BEB70E049EE58E00B
:1023A0009E012F5F3F4F06EE18E0ACEDEA2EA7E04E
:1023B000FA2EF4EECF2EF8E0DF2E4FC087ED98E036
:1023C0006CEB70E045ED58E09E012F5F3F4F02ED52
:1023D00018E0E2ECEE2EE7E0FE2EB0EDCB2EB8E0FA
:1023E000DB2E3BC083EC98E06DEB70E041EC58E0F5
:1023F0009E012F5F3F4F0EEB18E0A9EEEA2EA7E0FB
:10240000FA2EFCEBCF2EF8E0DF2E27C08FEA98E003
:102410006EEB70E04DEA58E09E012F5F3F4F0AEAF5
:1024200018E0E6EFEE2EE7E0FE2EB8EACB2EB8E09D
:10243000DB2E13C08BE998E06FEB70E049E958E0C0
:102440009E012F5F3F4F07E918E0A3E0EA2EA8E0C6
:10245000FA2EF5E9CF2EF8E0DF2EE3E0AE2EB12C18
:10246000AC0EBD1E0E949F100F900F900F900F900A
:10247000CF91DF911F910F91FF90EF90DF90CF9060
:10248000BF90AF900895AF92BF92CF92DF92EF923C
:10249000FF920F931F93CF93DF936C01B090C8010D
:1024A000A090CB01EE24FF242CC0C801BE01A701DF
:1024B0000E948811C801BE01A7010E94A906F60169
:1024C0009481882319F09B1539F002C09A1521F0E8
:1024D000C6010E94E71418C0F601B4822196C230EA
:1024E000D10519F70F5F1F4F0230110519F0CFEF1B
:1024F000DFEFDBCF0894E11CF11CF6E0EF16F104EE
:1025000019F00FEF1FEFF3CFDF91CF911F910F91D4
:10251000FF90EF90DF90CF90BF90AF900895AF9273
:10252000BF92CF92DF92EF92FF920F931F93DF93B0
:10253000CF93CDB7DEB728970FB6F894DEBF0FBEA6
:10254000CDBF6115710521F061307105E1F51DC048
:1025500089831A8281E090E09C838B8381E599E0F6
:1025600064E970E04FE459E09E012F5F3F4F0CE4B7
:1025700019E0A2ECEA2EA7E0FA2EF8E4CF2EF9E05B
:10258000DF2EE3E0AE2EB12C1AC08D831E8218869A
:102590001F828BE399E065E970E049E359E09E0111
:1025A0002B5F3F4F06E319E0B2ECEB2EB7E0FB2EBA
:1025B000A2E3CA2EA9E0DA2EF7E0AF2EB12CAC0EC2
:1025C000BD1E0E949F1028960FB6F894DEBF0FBE66
:1025D000CDBFCF91DF911F910F91FF90EF90DF90D2
:1025E000CF90BF90AF9008959F92AF92BF92CF923D
:1025F000DF92EF92FF920F931F93CF93DF936C01C3
:10260000B090C801A090CB01C0E0D0E09924939491
:102610002CC0012F10E0E114F10409F011E0812F2A
:10262000BE010E948F12209731F0C130D10511F008
:10263000102F01C01925F6018481112319F08B1583
:1026400039F002C08A1521F0C6010E94E71411C0BA
:10265000F601B4820894E11CF11CF2E0EF16F104DB
:10266000C1F62196C230D10521F0012FEE24FF24BE
:10267000D1CFDF91CF911F910F91FF90EF90DF901D
:10268000CF90BF90AF909F900895CF93DF93EC01D0
:102690000E94EF1D695E73408040904018F0CE01AB
:1026A0000E94EB14DF91CF910895CF93DF93BC018B
:1026B000EC0109900020E9F72197C81BD90B8CEF9A
:1026C00091E0AE010E949B06009711F080E009C0E6
:1026D000C450DE4F4881403219F080E0442309F4B1
:1026E00081E0DF91CF91089580E091E00E94551341
:1026F0008823E9F020E030E002C02F5F3F4FF9016E
:10270000E450FE4FE081E03221F4F901E450FE4F45
:1027100005C0EE2391F7F9CF2F5F3F4F81918032B3
:10272000D9F3C90184509E4F0E943919089588E059
:1027300091E00E9455138823E9F020E030E002C0C8
:102740002F5F3F4FF901E450FE4FE081E03221F46A
:10275000F901E450FE4F05C0EE2391F7F9CF2F5F4A
:102760003F4F81918032D9F3C90184509E4F0E941E
:102770001719089580E191E00E945513882381F193
:1027800020E030E002C02F5F3F4FF901E450FE4FE0
:10279000E081E03221F4F901E450FE4F05C0EE2360
:1027A00091F7F9CF2F5F3F4F81918032D9F3F90133
:1027B000E450FE4F20E030E00BC0220F331F80E0DA
:1027C00090E0413311F481E090E0280F391F3196F9
:1027D0004081842F8053823080F320935E010895DE
:1027E0008EE191E00E945513882381F120E030E0D2
:1027F00002C02F5F3F4FF901E450FE4FE081E0320D
:1028000021F4F901E450FE4F05C0EE2391F7F9CF12
:102810002F5F3F4F81918032D9F3F901E450FE4F91
:1028200020E030E00BC0220F331F80E090E0413306
:1028300011F481E090E0280F391F31964081842FF8
:102840008053823080F320935F0108958CE291E001
:102850000E945513882319F010925301089584E4BF
:1028600093E060E371E00E94A41D84E493E06CEFC8
:1028700071E00E94A41D84E493E063E471E00E948F
:10288000A41D84E493E00E94731C08950F931F938A
:10289000CF93DF9384E493E062E679E00E943D1CED
:1028A00000E010E084E493E00E941A1B892BD1F32E
:1028B00084E493E00E944B1BEC011816190694F770
:1028C0008F37910561F40115110561F384E493E0FC
:1028D0006EE579E00E943D1C01501040E3CF8A3044
:1028E000910591F08D30910579F084E493E06C2F9F
:1028F0000E94601C0035110520F4F801E450FE4FE1
:10290000C0830F5F1F4FCECFF8010035110510F0C7
:10291000EFE4F0E0E450FE4F108284E493E00E9484
:10292000731CDF91CF911F910F9108950F931F9307
:1029300004E413E0C80167EF79E00E94931CC8012A
:102940006AED79E00E94931CC80166EC79E00E9470
:10295000931CC80162EB79E00E94931CC80162E9F4
:1029600079E00E94931CC80162E779E00E94931C01
:10297000C8016CE679E00E94931C1F910F910895A5
:1029800084E493E040E855E260E070E00E94941A2D
:102990000E94961404C00E9446140E9474138091F1
:1029A00053018823C1F70895CF93DF930E94FD1D43
:1029B0000E94C014C6E4DAE10E941A172097E1F3DE
:1029C0000E94461AF9CF23E0FC012483089524E0F5
:1029D000FC012483089522E0FC01248308950895D6
:1029E000CF93DF93EC018EED91E099838883E091A2
:1029F000B002F091B102A0EBB2E00DC022813381B0
:102A0000EC17FD0721F42C9311963C9306C0DF01CF
:102A10001296C901FC01309789F7DF91CF91089593
:102A2000CF93DF93EC018EED91E099838883E09161
:102A3000B002F091B102A0EBB2E00DC0228133816F
:102A4000EC17FD0721F42C9311963C9306C0DF018F
:102A50001296C901FC01309789F7DF91CF91089553
:102A6000CF93DF93EC01E881F9810084F185E02DBB
:102A700009958C81813011F483E08C83DF91CF91B3
:102A80000895CF93DF93EC018EED91E099838883D5
:102A9000E091B002F091B102A0EBB2E00DC0EC17F2
:102AA000FD0729F4828193818D939C9307C0DF01F8
:102AB00012960280F381E02D309789F7DF91CF9154
:102AC0000895CF93DF93DC018EED91E011969C93F6
:102AD0008E93E091B002F091B102C0EBD2E00FC052
:102AE000EA17FB0739F412968D919C9113979983FD
:102AF000888307C0EF0122960280F381E02D309792
:102B000079F7CD010E94101CDF91CF910895CF93EA
:102B1000DF93DC018EED91E011969C938E93E09112
:102B2000B002F091B102C0EBD2E00FC0EA17FB0790
:102B300039F412968D919C9113979983888307C0DD
:102B4000EF0122960280F381E02D309779F7CD01D5
:102B50000E94101CDF91CF910895DC01FB01608180
:102B600071818D919C910E9492069C0180E01216C9
:102B700013060CF481E00895DC01FB016081718192
:102B80008D919C910E949206292F2095822F881F5B
:102B90008827881F0895DC01FB01608171818D9178
:102BA0009C910E9492069C0180E0232B09F081E019
:102BB0000895DC01FB01608171818D919C910E94DF
:102BC00092069C0180E0232B09F481E00895DC014A
:102BD000FB01608171818D919C910E9492069C0104
:102BE00080E0121613060CF081E00895DC01FB0171
:102BF000608171818D919C910E949206892F881F1E
:102C00008827881F0895FF920F931F93CF93DF9318
:102C1000EC01E091B202F091B3028481FF24833091
:102C200011F4FF24F39400E0843009F401E010E093
:102C3000823009F411E0FF2029F4002371F41123FC
:102C4000C1F479C08091B6029091B7020196909339
:102C5000B7028093B602002349F08091B8029091A8
:102C6000B90201969093B9028093B802112309F436
:102C7000D4C08091BA029091BB0201969093BB029E
:102C80008093BA0280915E0183FFC7C080915F018B
:102C900083FD23C0309709F4C0C0838583FD1DC028
:102CA000BCC080915E0182FFBBC080915F0182FD4C
:102CB00014C0309709F4B4C0838582FD0EC0B0C043
:102CC00080915E0181FF37C080915F0181FD05C069
:102CD000309789F1838581FF2EC0809160019091AA
:102CE000610166E77AE00E943D1C259680916001B3
:102CF00090916101BE010E94681C112341F08091F6
:102D00006001909161016CE67AE00E94931CFF20C3
:102D100041F0809160019091610163E67AE00E9448
:102D2000931C002341F080916001909161016AE55C
:102D30007AE00E94931C8091B0029091B102892B9D
:102D400009F072C080915E0180FF6EC080915F01CA
:102D500080FD0AC0E091B202F091B302309709F40D
:102D600063C0838580FF60C08091600190916101A4
:102D70006BE47AE00E943D1C6091B6027091B7024C
:102D800080916001909161014AE050E00E942E1D07
:102D9000809160019091610161E47AE00E943D1CA4
:102DA0006091B8027091B9028091600190916101C7
:102DB0004AE050E00E942E1D8091600190916101D7
:102DC00063E37AE00E943D1C6091BA027091BB02FD
:102DD00080916001909161014AE050E00E942E1DB7
:102DE000809160019091610161E27AE00E943D1C56
:102DF0006091B4027091B50280916001909161017F
:102E00004AE050E00E942E1D809160019091610186
:102E100067E17AE00E94931C07C0FF2009F041CFD0
:102E2000002309F488CF4CCFDF91CF911F910F91F0
:102E3000FF9008951F93CF93DF93C0EBD2E011E092
:102E40003AC0B093B302A093B20214968C91149737
:102E5000813049F4ED91FC9111970280F381E02DCE
:102E6000CD01099512C0882381F4ED91FC91119751
:102E70000190F081E02DCD010995E091B202F09131
:102E8000B3028481882309F41483E091B202F091A3
:102E9000B3028481E881F981813059F08281938184
:102EA000998388838091B2029091B3020E940316A5
:102EB00002C0EF012296A881B981109711F6DF9127
:102EC000CF911F910895FC01228133814481558166
:102ED00057FF05C0CB01B9010E943D1C0895CB01ED
:102EE000B9010E94A41D0895FC0182819381A481EF
:102EF000B581B7FF04C00E947906DC0108C0FC015F
:102F0000DC010D900020E9F71197AE1BBF0BCD013E
:102F10000895FC0182819381A481B581480F591FD6
:102F2000B7FF07C0CB01BA01422F50E00E947006E4
:102F30000895CB01BA01422F50E00E948206089505
:102F40002F923F924F925F926F927F928F929F92B9
:102F5000AF92BF92CF92DF92EF92FF920F931F93A7
:102F6000DF93CF93CDB7DEB761970FB6F894DEBF8E
:102F70000FBECDBF9D878C874B012DB73EB73F87D6
:102F80002E87DB010D900020E9F711973A2F361BB1
:102F900039870E947417782E7985672F70E07B87B8
:102FA0006A87AB014E5F5F4F20E0CA018770907067
:102FB000892B09F021E033E0559547953A95E1F7E3
:102FC000322E340E832D90E0ADB7BEB7A81BB90BDF
:102FD0000FB6F894BEBF0FBEADBF0DB71EB70F5FE3
:102FE0001F4FEDB7FEB7E81BF90B0FB6F894FEBF05
:102FF0000FBEEDBFEDB6FEB60894E11CF11C580102
:10300000C80160E070E0432D50E00E948B0681E033
:10301000D8018C9391E041E050E013C0892F869550
:1030200086958695F801E80FF11D27703070BA017A
:1030300002C0660F771F2A95E2F78081862B808376
:103040009F5F292F30E0F401E20FF31F3197808159
:103050008A3221F3CC24DD24472C5524C201019669
:10306000998B888B272C239491E0692E712CA9C011
:103070008601077010700115110591F488899989EE
:103080008C199D09089714F028E002C0222D2C19F4
:103090008C859D85BE016F5F7F4FA6010E948917B9
:1030A000A1E0B0E0AC0FBD1F0A0F1B1FF80110819B
:1030B000C70160E070E0432D50E00E948B0640E0C5
:1030C00050E061E0FA0183E0F595E7958A95E1F734
:1030D000EA0DFB1D808190E09A012770307002C0DC
:1030E000959587952A95E2F780FF5CC0F401E40F7F
:1030F000F51FE081EA3231F5842F242F269526959D
:103100002695F701E20FF11D8770930102C0220F8F
:10311000331F8A95E2F7C9012081282B2083862F4F
:10312000869586958695F701E80FF11D862F8770A5
:10313000D30102C0AA0FBB1F8A95E2F720812A2B78
:10314000208330C0E11771F5862F86958695869588
:10315000F701E80FF11D862F8770930102C0220F3F
:10316000331F8A95E2F7C9012081282B2083362F4F
:1031700013C03F5F832F869586958695F701E80FEC
:10318000F11D832F8770D30102C0AA0FBB1F8A9540
:10319000E2F720812A2B2083F401E30FF11D8081C7
:1031A0008A3239F34F5F5F4F6F5FEA85FB85E41723
:1031B000F5070CF087CF0894C11CD11CC50157013D
:1031C0007C014C145D040CF053CF29852F5F822FB6
:1031D000869586958695A80EB11CD5018C9190E0B8
:1031E000277002C0959587952A95E2F78170EE8544
:1031F000FF850FB6F894FEBF0FBEEDBF61960FB608
:10320000F894DEBF0FBECDBFCF91DF911F910F911C
:10321000FF90EF90DF90CF90BF90AF909F908F90F6
:103220007F906F905F904F903F902F900895FF9206
:103230000F931F93CF93DF938C01C091B002D09175
:10324000B10242E0F42E0DC08C81882339F4CE0106
:103250000596B8010E94A0178111FC820A80DB81CB
:10326000C02D209789F7DF91CF911F910F91FF908B
:1032700008950F931F93CF93DF938C01C091B002F9
:10328000D091B1020DC08C81823039F4CE01059607
:10329000B8010E94A01781111C820A80DB81C02D19
:1032A000209789F7DF91CF911F910F9108956F9229
:1032B0007F928F929F92AF92BF92CF92DF92FF92B6
:1032C0000F931F93DF93CF93CDB7DEB728970FB639
:1032D000F894DEBF0FBECDBF5C016B0100E010E0D3
:1032E0003E010894611C711C65E0862E912C8C0EA9
:1032F0009D1E53E0F52EF02261F4C501B301A80133
:1033000024E00E948917C601B401A80124E00E94AC
:103310008917EF2DF0E0D301AE0FBF1FAC91E80D80
:10332000F91DE081AE1758F0EA1710F481E008C0EB
:10333000AA2311F480E004C00F5F1F4FDACF8FEF94
:1033400028960FB6F894DEBF0FBECDBFCF91DF91A8
:103350001F910F91FF90DF90CF90BF90AF909F9003
:103360008F907F906F900895EF92FF920F931F932D
:10337000CF93DF938C01FC01148275E0E72EF12CD2
:10338000E80EF91EC0EBD2E00BC06B5F7F4FC701A8
:103390000E94571918164CF40990D881C02D229616
:1033A000688179816115710581F788819981F801BA
:1033B00093838283198308838091B4029091B5022C
:1033C00001969093B5028093B402DF91CF911F9143
:1033D0000F91FF90EF900895FC012EED31E03183C5
:1033E00020832AEE31E036832583882777FD809578
:1033F000982F906867837087818792874387CF0172
:103400000E94B41908950F931F938C014FE10E94FD
:10341000EC1980ED91E0F801918380831F910F9169
:10342000089508951F920F920FB60F9211242F93B3
:103430003F934F938F939F93EF93FF934091C600D9
:103440002091FC023091FD022F5F3F4F2F733070AF
:103450008091FE029091FF022817390759F0E09100
:10346000FC02F091FD02E454FD4F40833093FD02D5
:103470002093FC02FF91EF919F918F914F913F918B
:103480002F910F900FBE0F901F901895E091500351
:10349000F0915103E05CFF4F819191912081318146
:1034A000821B930B8F739070892B11F00E94111A5D
:1034B00008951F920F920FB60F9211242F933F93EE
:1034C0008F939F93EF93FF9320914003309141039B
:1034D00080914203909143032817390731F480917A
:1034E000C1008F7D8093C10014C0E0914203F09130
:1034F0004303E050FD4F20818091420390914303AC
:1035000001968F73907090934303809342032093AE
:10351000C600FF91EF919F918F913F912F910F9056
:103520000FBE0F901F901895AF92BF92DF92EF924F
:10353000FF920F931F93CF93DF93EC017A018B01DE
:10354000DD24403081EE580780E0680780E078078E
:1035500011F0DD24D39491E0A92EB12CEC89FD89E2
:10356000DD2069F0C5010E8C02C0880F991F0A94F6
:10357000E2F7808360E079E08DE390E005C010829F
:1035800060E874E88EE190E0A80197010E94571E60
:1035900021503040404050405695479537952795EB
:1035A00080E12030380720F0DD2011F0DD24D6CF77
:1035B000E889F9893083EA89FB892083EE89FF89CC
:1035C000408121E030E0C9010A8C02C0880F991FB8
:1035D0000A94E2F7482B4083EE89FF894081C901B4
:1035E0000B8C02C0880F991F0A94E2F7482B408386
:1035F000EE89FF894081C9010C8C02C0880F991F98
:103600000A94E2F7482B4083EE89FF8980810D8C74
:1036100002C0220F331F0A94E2F72095282320834B
:10362000DF91CF911F910F91FF90EF90DF90BF90AE
:10363000AF900895DC011C96ED91FC911D97E05C24
:10364000FF4F2191319180819181281B390B2F737C
:103650003070C9010895DC011C96ED91FC911D9715
:10366000E05CFF4F20813181E054F040DF01AE5B30
:10367000BF4F8D919C9111972817390719F42FEF9F
:103680003FEF07C08D919C91E80FF91F8081282F93
:1036900030E0C9010895DC011C96ED91FC911D9765
:1036A000E05CFF4F20813181E054F040DF01AE5BF0
:1036B000BF4F8D919C9111972817390719F42FEF5F
:1036C0003FEF10C08D919C911197E80FF91F208159
:1036D0008D919C91119701968F73907011969C9388
:1036E0008E9330E0C9010895FC0186859785DC0141
:1036F000A05CBF4FFC01EE5BFF4F2D913C911197F9
:103700008081918128173907C1F70895CF93DF93FE
:10371000EC01EE85FF85E05CFF4F20813181E054B4
:10372000F0402F5F3F4F2F733070DF01AE5BBF4F14
:103730008D919C91119728173907D1F3E05CFF4FC9
:1037400080819181E054F040E80FF91F6083EE859D
:10375000FF85E05CFF4F31832083EE89FF89208164
:1037600081E090E00D8C02C0880F991F0A94E2F767
:10377000282B208381E090E0DF91CF910895109273
:1037800047031092460388EE93E0A0E0B0E08093F8
:10379000480390934903A0934A03B0934B0380EFEF
:1037A00091E090934503809344038CEB92E09093D7
:1037B00051038093500380E093E0909353038093F0
:1037C000520385EC90E0909355038093540384EC6E
:1037D00090E0909357038093560380EC90E0909391
:1037E00059038093580381EC90E090935B0380939E
:1037F0005A0386EC90E090935D0380935C0384E031
:1038000080935E0383E080935F0387E0809360038F
:1038100085E08093610381E08093620308950895B9
:103820000E9415060895CF92DF92EF92FF920F93B8
:103830001F93CF93DF937C016B018A01C0E0D0E03E
:103840000FC0D6016D916D01D701ED91FC910190F2
:10385000F081E02DC7010995C80FD91F0150104014
:103860000115110571F7CE01DF91CF911F910F91D5
:10387000FF90EF90DF90CF900895EF92FF920F931B
:103880001F93CF93DF937C018B01C0E0D0E0F80160
:103890000F5F1F4F6491662359F0D701ED91FC91A2
:1038A0000190F081E02DC7010995C80FD91FEFCF16
:1038B000CE01DF91CF911F910F91FF90EF9008956E
:1038C000DC01ED91FC910190F081E02D09950895C6
:1038D0009C01DB01ED91FC910190F081E02DCB0189
:1038E000B90109950895EF92FF920F931F938C01F0
:1038F000DC01ED91FC910190F081E02D6DE00995E6
:103900007C01D801ED91FC910190F081E02DC8017E
:103910006AE009959C012E0D3F1DC9011F910F9171
:10392000FF90EF900895EF92FF920F931F937C0109
:103930000E943D1C8C01C7010E94731C9C01200F3A
:10394000311FC9011F910F91FF90EF900895CF9300
:10395000DF93DB010D900020E9F71197A61BB70B51
:10396000EC01E881F9810280F381E02DAD01099538
:10397000DF91CF9108954F925F927F928F929F92A5
:10398000AF92BF92CF92DF92EF92FF920F931F936D
:10399000DF93CF93CDB7DEB7A1970FB6F894DEBF14
:1039A0000FBECDBF2C01742ECB01223008F42AE0CB
:1039B00019A231E2C32ED12CCC0EDD1E822E992409
:1039C000AA24BB24672D752FA50194010E94571EC0
:1039D00079018A01C801B701A50194010E94381E2E
:1039E000472D461B0894C108D1084A3010F4405DA9
:1039F00001C0495CF6014083E114F10401051105A1
:103A000021F07E2C5F2DC801DDCFC201B6010E94DE
:103A1000A71CA1960FB6F894DEBF0FBECDBFCF9105
:103A2000DF911F910F91FF90EF90DF90CF90BF90AB
:103A3000AF909F908F907F905F904F900895DC01A2
:103A40002115310541F4ED91FC910190F081E02DBB
:103A5000642F099508950E94BB1C0895EF92FF9270
:103A60000F931F939A017B0100E010E0B801A701BA
:103A70000E941F1D1F910F91FF90EF900895EF92EC
:103A8000FF920F931F939A01E62EFF2400E010E0AF
:103A9000B801A7010E941F1D1F910F91FF90EF9089
:103AA0000895CF92DF92EF92FF920F931F93CF93DF
:103AB000DF93EC016A017B012115310541F4E881B6
:103AC000F9810190F081E02D642F09951FC02A3003
:103AD0003105D1F477FF17C0E881F9810190F081B9
:103AE000E02D6DE209958C0144275527BA014C1948
:103AF0005D096E097F09CE012AE00E94BB1C980176
:103B0000280F391F04C02AE00E94BB1C9C01C90178
:103B1000DF91CF911F910F91FF90EF90DF90CF90A9
:103B20000895EF92FF920F931F937B019A01002754
:103B3000F7FC0095102FB801A7010E94511D1F919D
:103B40000F91FF90EF9008950E94A71C08951F9277
:103B50000F920FB60F9211242F933F938F939F9341
:103B6000AF93BF938091670390916803A09169031D
:103B7000B0916A0330916B030196A11DB11D232FF3
:103B80002D5F2D3720F02D570196A11DB11D2093DB
:103B90006B038093670390936803A0936903B093CA
:103BA0006A038091630390916403A0916503B091CF
:103BB00066030196A11DB11D809363039093640376
:103BC000A0936503B0936603BF91AF919F918F91CE
:103BD0003F912F910F900FBE0F901F9018958FB7A8
:103BE000F8942091670330916803409169035091E4
:103BF0006A038FBFB901CA010895789484B58260C1
:103C000084BD84B5816084BD85B5826085BD85B580
:103C1000816085BDEEE6F0E0808181608083E1E82F
:103C2000F0E0108280818260808380818160808367
:103C3000E0E8F0E0808181608083E1EBF0E080816A
:103C400084608083E0EBF0E0808181608083EAE73C
:103C5000F0E08081846080838081826080838081C5
:103C6000816080838081806880831092C100089584
:103C7000629FD001739FF001829FE00DF11D649F50
:103C8000E00DF11D929FF00D839FF00D749FF00DDC
:103C9000659FF00D9927729FB00DE11DF91F639F7D
:103CA000B00DE11DF91FBD01CF0111240895A1E25E
:103CB0001A2EAA1BBB1BFD010DC0AA1FBB1FEE1FA6
:103CC000FF1FA217B307E407F50720F0A21BB30BF1
:103CD000E40BF50B661F771F881F991F1A9469F76D
:103CE00060957095809590959B01AC01BD01CF01C9
:103CF0000895EE0FFF1F0590F491E02D09941AE04E
:103D0000C0E8DAE004C0FE010E947B1E2296C238A1
:083D1000D107C9F7F894FFCFB9
:103D1800696E636C756465006578636C75646500CD
:103D28006D61785F766572626F73697479006D6929
:103D38006E5F766572626F736974790072756E0072
:103D4800756E6B6E6F776E20636F6D6D616E643A22
:103D580020270027000061006161006200200070D8
:103D6800030000014501460148014B0100003F01E5
:103D7800440300000000EF14900A7608F6080000DB
:103D88000000EF14DE0D6D08E50800000000EF14D8
:103D980030156408D4084B1000000000EF143015EB
:103DA8005B08C308431200000000EF1430155208E6
:103DB800B208F41200000000EF1445134908A108E6
:103DC80000000000EF14480E4008900800000000B2
:103DD800EF14580E37087F080102030400000000A2
:103DE800EF143015411587150F1C00000000EF1463
:103DF8000F1C10156115000000006317000000007B
:0C3E0800861B131C1A1B4B1B2B1B741B6E
:00000001FF
