:100000000C9480050C94AD050C94AD050C94AD05D5
:100010000C94AD050C94AD050C94AD050C94AD0598
:100020000C94AD050C94AD050C94AD050C94AD0588
:100030000C94AD050C94AD050C94AD050C94AD0578
:100040000C94AD050C94AD050C94AD050C94AD0568
:100050000C94AD050C94AD050C94AD050C94BD212C
:100060000C94AD050C94401B0C94881C0C94AD05AD
:100070000C94AD050C94AD050C94AD050C94AD0538
:100080000C94AD050C94AD050C94AD050C94AD0528
:100090000C94801B0C94C71C0C94AD050C94AD05FE
:1000A0000C94AD050C94AD050C94AD050C94AD0508
:1000B0000C94AD050C94AD050C94AD050C94AD05F8
:1000C0000C94AD050C94AD050C94AD050C94C01BBF
:1000D0000C94061D0C94AD050C94001C0C94451D4D
:1000E0000C94AD05706173736573006661696C7320
:1000F00000736B697073006173736572745F626F14
:100100006F6C73006173736572745F696E747300F2
:100110006173736572745F737472696E6773006D77
:10012000657461006F766572616C6C005465737400
:100130003A3A444F4E455F50415353003D3D0074A1
:100140006573745F6D6574615F696E7374616E630E
:10015000652E7374617465006669726D776172658E
:100160002E696E6F00546573743A3A444F4E455F82
:1001700050415353003D3D00746573745F61737368
:100180006572745F737472696E67735F696E73749E
:10019000616E63652E7374617465006669726D7754
:1001A0006172652E696E6F00546573743A3A444FFC
:1001B0004E455F50415353003D3D00746573745F7D
:1001C0006173736572745F696E74735F696E737463
:1001D000616E63652E7374617465006669726D7714
:1001E0006172652E696E6F00546573743A3A444FBC
:1001F0004E455F50415353003D3D00746573745F3D
:100200006173736572745F626F6F6C735F696E7335
:1002100074616E63652E7374617465006669726DD6
:10022000776172652E696E6F00546573743A3A4453
:100230004F4E455F534B4950003D3D00746573740C
:100240005F736B6970735F696E7374616E63652E43
:100250007374617465006669726D776172652E6989
:100260006E6F00546573743A3A444F4E455F464191
:10027000494C003D3D00746573745F6661696C7341
:100280005F696E7374616E63652E7374617465006B
:100290006669726D776172652E696E6F0054657361
:1002A000743A3A444F4E455F50415353003D3D0030
:1002B000746573745F7061737365735F696E737473
:1002C000616E63652E7374617465006669726D7723
:1002D0006172652E696E6F0029003D00202800299B
:1002E00020003D00206173736572742028006661F0
:1002F000696C0070617373003A313A20003A00541F
:100300006573743A3A444F4E455F534B4950002150
:100310003D00746573745F736B6970735F696E73AE
:1003200074616E63652E7374617465006669726DC5
:10033000776172652E696E6F00546573743A3A4442
:100340004F4E455F534B495000213D007465737417
:100350005F6661696C735F696E7374616E63652E4D
:100360007374617465006669726D776172652E6978
:100370006E6F00546573743A3A444F4E455F534B69
:10038000495000213D00746573745F70617373653B
:10039000735F696E7374616E63652E7374617465E7
:1003A000006669726D776172652E696E6F005465C3
:1003B00073743A3A444F4E455F534B4950003D3DAC
:1003C00000746573745F736B6970735F696E7374C7
:1003D000616E63652E7374617465006669726D7712
:1003E0006172652E696E6F00546573743A3A444FBA
:1003F0004E455F534B4950003D3D00746573745F3B
:100400006661696C735F696E7374616E63652E7388
:1004100074617465006669726D776172652E696ECC
:100420006F00546573743A3A444F4E455F534B49DD
:1004300050003D3D00746573745F70617373657344
:100440005F696E7374616E63652E737461746500A9
:100450006669726D776172652E696E6F005465739F
:10046000743A3A444F4E455F4641494C00213D00A5
:10047000746573745F736B6970735F696E737461B5
:100480006E63652E7374617465006669726D776161
:1004900072652E696E6F00546573743A3A444F4E1C
:1004A000455F4641494C00213D00746573745F66A9
:1004B00061696C735F696E7374616E63652E7374CA
:1004C000617465006669726D776172652E696E6F21
:1004D00000546573743A3A444F4E455F4641494C67
:1004E00000213D00746573745F7061737365735FA1
:1004F000696E7374616E63652E73746174650066F2
:1005000069726D776172652E696E6F0054657374E0
:100510003A3A444F4E455F4641494C003D3D0074D8
:100520006573745F736B6970735F696E7374616E0A
:1005300063652E7374617465006669726D776172AC
:10054000652E696E6F00546573743A3A444F4E4598
:100550005F4641494C003D3D00746573745F6661C0
:10056000696C735F696E7374616E63652E73746119
:100570007465006669726D776172652E696E6F00D1
:10058000546573743A3A444F4E455F4641494C00B6
:100590003D3D00746573745F7061737365735F696B
:1005A0006E7374616E63652E737461746500666941
:1005B000726D776172652E696E6F00546573743A5F
:1005C0003A444F4E455F5041535300213D007465FE
:1005D00073745F736B6970735F696E7374616E635C
:1005E000652E7374617465006669726D77617265FA
:1005F0002E696E6F00546573743A3A444F4E455FEE
:100600005041535300213D00746573745F66616906
:100610006C735F696E7374616E63652E737461745D
:1006200065006669726D776172652E696E6F005440
:100630006573743A3A444F4E455F5041535300211D
:100640003D00746573745F7061737365735F696E89
:100650007374616E63652E7374617465006669728C
:100660006D776172652E696E6F00546573743A3AE6
:10067000444F4E455F50415353003D3D00746573F8
:10068000745F736B6970735F696E7374616E6365B9
:100690002E7374617465006669726D776172652E80
:1006A000696E6F00546573743A3A444F4E455F501B
:1006B000415353003D3D00746573745F6661696C1E
:1006C000735F696E7374616E63652E7374617465B4
:1006D000006669726D776172652E696E6F00546590
:1006E00073743A3A444F4E455F50415353003D3D79
:1006F00000746573745F7061737365735F696E73A3
:1007000074616E63652E7374617465006669726DE1
:10071000776172652E696E6F00546573743A3A445E
:100720004F4E455F534B4950003C00746573745FF6
:10073000736B6970735F696E7374616E63652E733A
:1007400074617465006669726D776172652E696E99
:100750006F00546573743A3A444F4E455F534B49AA
:1007600050003C00746573745F6661696C735F6907
:100770006E7374616E63652E73746174650066696F
:10078000726D776172652E696E6F00546573743A8D
:100790003A444F4E455F534B4950003C00746573DB
:1007A000745F7061737365735F696E7374616E6398
:1007B000652E7374617465006669726D7761726528
:1007C0002E696E6F00546573743A3A444F4E455F1C
:1007D000534B4950003E3D00746573745F736B6901
:1007E00070735F696E7374616E63652E7374617488
:1007F00065006669726D776172652E696E6F00546F
:100800006573743A3A444F4E455F534B4950003E2E
:100810003D00746573745F6661696C735F696E73C4
:1008200074616E63652E7374617465006669726DC0
:10083000776172652E696E6F00546573743A3A443D
:100840004F4E455F534B4950003E3D0074657374F5
:100850005F7061737365735F696E7374616E6365F6
:100860002E7374617465006669726D776172652EAE
:10087000696E6F0079003E0078006669726D77617D
:1008800072652E696E6F0079003E3D0078006669E2
:10089000726D776172652E696E6F007900213D007F
:1008A00078006669726D776172652E696E6F007986
:1008B000003D3D0078006669726D776172652E6952
:1008C0006E6F0079003C3D0078006669726D77615B
:1008D00072652E696E6F0079003C0078006669725F
:1008E0006D776172652E696E6F0029003D002028CA
:1008F000002920003D002061737365727420280078
:100900006661696C0070617373003A313A20003A95
:100910000079003E0078006669726D776172652E1D
:10092000696E6F0079003E3D0078006669726D77F0
:100930006172652E696E6F007900213D0078006656
:1009400069726D776172652E696E6F0079003D3D49
:100950000078006669726D776172652E696E6F004E
:1009600079003C3D0078006669726D776172652E92
:10097000696E6F0079003C0078006669726D77617E
:1009800072652E696E6F0029003D00202800292025
:10099000003D0020617373657274202800666169F0
:1009A0006C0070617373003A313A20003A0030787D
:1009B00030003D3D0078006669726D776172652E8A
:1009C000696E6F00307831003D3D007800666972D5
:1009D0006D776172652E696E6F0008200800636F85
:1009E0006D6D616E643E2000202072756E002020C7
:1009F0006D61785F766572626F73697479203C62AD
:100A0000696E617279206E756D6265723E0020209C
:100A10006D696E5F766572626F73697479203C628E
:100A2000696E617279206E756D6265723E0020207C
:100A30006578636C756465203C7061747465726E72
:100A40003E002020696E636C756465203C706174A3
:100A50007465726E3E00696E746572616374697666
:100A6000652074657374657220636F6D6D616E646B
:100A7000733A00546865206F766572616C6C2074FF
:100A80006573742073686F756C6420706173732E66
:100A90002E2E0020746573742873292E0020736B2A
:100AA00069707065642C206F7574206F662000205B
:100AB0006661696C65642C20616E64200020706141
:100AC000737365642C2000746573742073756D6D89
:100AD0006172793A2000206661696C65642E00209D
:100AE0007061737365642E0020736B697070656448
:100AF0002E00746573742000E609551AB51EDF09CF
:100B000011241FBECFEFD1E2DEBFCDBF00E00CBF8E
:100B100013E0A0E0B2E0E2E9F5E400E00BBF02C0C0
:100B200007900D92A23AB107D9F71BBE17E0A2EACF
:100B3000B3E001C01D92AB31B107E1F71AE0CEEF8F
:100B4000DAE004C02297FE010E94B822C83FD10714
:100B5000C9F70E9418150C94B1060C940000CF93AD
:100B6000DF93BC018230910510F462E070E0A09147
:100B70001907B0911A07ED01E0E0F0E040E050E025
:100B800021C0888199818617970769F48A819B81A2
:100B9000309719F09383828304C090931A0780934F
:100BA0001907FE0134C06817790738F4411551055B
:100BB00019F08417950708F4AC01FE018A819B8126
:100BC0009C01E9012097E9F641155105A9F1CA01F7
:100BD000861B970B049708F4BA01E0E0F0E02AC006
:100BE0008D919C91119784179507F9F464177507F7
:100BF00081F412968D919C911397309719F09383FD
:100C0000828304C090931A0780931907FD013296DE
:100C10004CC0CA01861B970BFD01E80FF91F6193B9
:100C2000719302978D939C9340C0FD0182819381C3
:100C30009C01D9011097A1F6809117079091180790
:100C4000892B41F48091E8029091E9029093180772
:100C5000809317074091EA025091EB02411551052C
:100C600041F44DB75EB78091E6029091E702481BD0
:100C7000590B2091170730911807CA01821B930B5B
:100C80008617970780F0AB014E5F5F4F841795077B
:100C900050F0420F531F5093180740931707F90164
:100CA0006193719302C0E0E0F0E0CF01DF91CF915A
:100CB0000895CF93DF93009709F450C0EC01229779
:100CC0001B821A82A0911907B0911A07109709F197
:100CD00040E050E0AC17BD0708F1BB83AA83FE01DA
:100CE00021913191E20FF31FAE17BF0779F48D9177
:100CF0009C911197280F391F2E5F3F4F398328830E
:100D000012968D919C9113979B838A83411551056F
:100D100071F4D0931A07C093190720C012968D91D1
:100D20009C911397AD01009711F0DC01D3CFFA012C
:100D3000D383C28321913191E20FF31FCE17DF07D6
:100D400069F488819981280F391F2E5F3F4FFA017E
:100D5000318320838A819B8193838283DF91CF912A
:100D60000895F8940C94BC22FB01DC0102C00590AC
:100D70000D9241505040D8F70895FC010590002095
:100D8000E9F7809590958E0F9F1F0895FB01DC0178
:100D900002C001900D9241505040D8F70895DC01F7
:100DA00001C06D9341505040E0F70895FB01DC0114
:100DB0008D91019080190110D9F3990B0895FB01D1
:100DC000DC014150504030F08D910190801919F4B0
:100DD0000020B9F7881B990B089542305105F1F0B6
:100DE000433051053CF44115510571F04130510536
:100DF00051F50FC044305105D9F0443051059CF0F5
:100E00004530510501F519C020E086179707E4F435
:100E100018C020E068177907BCF013C020E08617DF
:100E2000970791F40EC020E08617970751F40CC085
:100E300020E08617970744F004C020E06817790780
:100E40001CF421E001C00895822F089563307105DC
:100E500009F466C06430710554F46130710589F19C
:100E6000623071050CF046C0672B91F0CCC0653044
:100E7000710509F481C0653071050CF467C06630F6
:100E8000710509F48FC06730710509F0BCC0A2C0BC
:100E90008130910549F08230910551F0009789F435
:100EA00020E09091F60307C020E09091020403C077
:100EB00020E090910E0480916203981708F4A4C07A
:100EC000A0C08130910549F08230910579F00097FA
:100ED00089F420E09091F60303C020E09091020491
:100EE00080916203981708F08FC08BC020E090912A
:100EF0000E04F6CF8130910549F08230910551F012
:100F0000009771F420E09091F60307C020E09091E3
:100F1000020403C020E090910E048091630357C047
:100F20008130910549F08230910551F0009771F4BC
:100F300020E09091F60307C020E09091020403C0E6
:100F400020E090910E048091630359C08130910597
:100F500049F08230910551F0009771F420E09091B2
:100F6000F60307C020E09091020403C020E09091B6
:100F70000E04809164032BC08130910549F08230CA
:100F8000910551F0009771F420E09091F60307C0AD
:100F900020E09091020403C020E090910E04809123
:100FA00064032DC08130910549F08230910551F0E4
:100FB000009781F420E09091F60307C020E0909123
:100FC000020403C020E090910E0480916203981700
:100FD000D9F417C08130910549F08230910551F064
:100FE000892B89F420E09091F60307C020E09091CE
:100FF000020403C020E090910E04809162039817D0
:1010000019F021E001C020E0822F0895FC01DB01EE
:1010100040E0208131818D919C912817390709F496
:1010200041E0842F0895FC01DB0140E02081318103
:101030008D919C91281739070CF441E0842F089575
:10104000DC01FB0140E0208131818D919C912817CA
:1010500039070CF041E0842F0895FC01DB0140E0EA
:10106000208131818D919C912817390709F041E049
:10107000842F0895FC01DB0140E0208131818D91B6
:101080009C91281739070CF041E0842F0895DC016A
:10109000FB0140E0208131818D919C912817390717
:1010A0000CF441E0842F0895FC01DB0120E09081E5
:1010B0008C91981708F021E0822F0895FC01DB0144
:1010C00020E090818C91981708F421E0822F0895F8
:1010D000FC01DB0120E090818C91981709F421E05C
:1010E000822F0895FC01DB0120E090818C91981300
:1010F00021E0822F0895FC0189E593E091838083AC
:10110000CF010E9434150895FC018DE493E0918392
:101110008083CF010E9434150895FC0181E493E09F
:1011200091838083CF010E9434150895FC0189E6E4
:1011300093E091838083CF010E9434150895FC01D0
:1011400089E693E091838083CF010E94341508954E
:10115000FC0189E693E091838083CF010E943415DE
:101160000895FC018BE093E091838083CF010E947E
:1011700034150895FC018FEF92E091838083CF01B5
:101180000E94341508950F931F938C0189E593E015
:10119000F80191838083C8010E943415C8010E9420
:1011A000EC1F1F910F9108950F931F938C018DE4F5
:1011B00093E0F80191838083C8010E943415C8012F
:1011C0000E94EC1F1F910F9108950F931F938C01A4
:1011D00081E493E0F80191838083C8010E94341573
:1011E000C8010E94EC1F1F910F9108950F931F9348
:1011F0008C0189E693E0F80191838083C8010E9405
:101200003415C8010E94EC1F1F910F9108950F9390
:101210001F938C0189E693E0F80191838083C801D4
:101220000E943415C8010E94EC1F1F910F91089570
:101230000F931F938C0189E693E0F80191838083DB
:10124000C8010E943415C8010E94EC1F1F910F9124
:1012500008950F931F938C018BE093E0F801918325
:101260008083C8010E943415C8010E94EC1F1F91A1
:101270000F9108950F931F938C018FEF92E0F80167
:1012800091838083C8010E943415C8010E94EC1F1D
:101290001F910F9108958130910509F06AC06F5F29
:1012A0007F4F09F08BC082EF93E064EE70E04FE176
:1012B0000E94301A89E593E09093F3038093F20340
:1012C0008EEF93E06BEE70E04FE10E94301A8DE4F8
:1012D00093E09093FF038093FE038AE094E061EF34
:1012E00070E04FE10E94301A81E493E090930B0488
:1012F00080930A0486E194E067EF70E00E94471A49
:1013000083E393E0909317048093160482E294E0C1
:1013100064E071E00E94471A85E293E09093230411
:10132000809322048EE294E060E171E00E94471A0B
:1013300087E193E090932F0480932E048AE394E056
:101340006FE171E04FE10E94301A8BE093E09093DF
:101350003B0480933A0486E494E064E271E04FE158
:101360000E94301A8FEF92E09093470480934604D6
:101370000895892B19F56F5F7F4F01F586E494E09E
:101380000E94BA088AE394E00E94B1088EE294E0D9
:101390000E94A80882E294E00E949F0886E194E0FF
:1013A0000E9496088AE094E00E948D088EEF93E0F8
:1013B0000E94840882EF93E00E947B08089580E0F9
:1013C00090E06FEF7FEF0E944B09089581E090E07D
:1013D0006FEF7FEF0E944B0908954F925F926F92DB
:1013E0007F928F929F92AF92BF92CF92DF92EF92B5
:1013F000FF920F931F93CF93DF93EC014B012A01D0
:101400003901F701C901B5011995F82E882349F46E
:1014100080915804909159040097B1F00E942B15C7
:1014200013C08091F70285FFADC08091F80285FD61
:101430001DC0E0915804F0915904309709F4A2C0FE
:10144000858185FD13C09EC08091F70284FF9AC0FC
:101450008091F80284FD0AC0E0915804F09159048B
:10146000309709F48FC0858184FF8CC08091F90288
:101470009091FA02BE010E9419208091F902909188
:10148000FA026DEF72E00E9419208091F9029091AA
:10149000FA02B4014AE050E00E9412218091F90260
:1014A0009091FA0268EF72E00E9419208091F9028F
:1014B0009091FA02FF2019F063EF72E002C06EEE25
:1014C00072E00E9419208091F9029091FA0264EE74
:1014D00072E00E9419208091F9029091FA02B20103
:1014E0000E9419208091F9029091FA0262EE72E056
:1014F0000E9419208091F9029091FA02F301608113
:101500004AE050E00E9423218091F9029091FA0272
:101510006FED72E00E9419208091F9029091FA0219
:10152000B8010E9419208091F9029091FA026CEDA5
:1015300072E00E9419208091F9029091FA02B6019E
:101540000E9419208091F9029091FA026AED72E0EE
:101550000E9419208091F9029091FA02F5016081B0
:101560004AE050E00E9423218091F9029091FA0212
:1015700068ED72E00E9419208091F9029091FA02C0
:101580000E944F208F2DDF91CF911F910F91FF90DF
:10159000EF90DF90CF90BF90AF909F908F907F9013
:1015A0006F905F904F9008959F92AF92BF92CF92AD
:1015B000DF92EF92FF920F931F93CF93DF93EC0193
:1015C000809160049091610420915C0430915D04ED
:1015D000820F931F019620915E0430915F04820F69
:1015E000931F20915A0430915B048217930709F0EE
:1015F000D4C0909062038091F6038915D9F08BECEA
:1016000092E06BE871E040EB52E026EF33E00DEA48
:1016100012E0B8E6EB2EB8E0FB2EADE9CA2EA2E050
:10162000DA2EF3E6AF2EF3E0BF2E0E94ED098823F9
:1016300009F4B3C0809102048915D9F080E992E0E1
:101640006CE871E046E752E022E034E003E712E0A4
:10165000E8E6EE2EE8E0FE2EB3E6CB2EB2E0DB2E7F
:10166000A4E6AA2EA3E0BA2E0E94ED09882309F46D
:1016700094C086E592E06DE871E04CE352E02EE024
:1016800034E009E312E0F8E6EF2EF8E0FF2EE9E29D
:10169000CE2EE2E0DE2EB2E6AB2EB3E0BB2E0E94F1
:1016A000ED09882309F479C080911A048915B9F0ED
:1016B0008CE192E06EE871E04BEF51E02AE134E01A
:1016C00008EF11E0A8EECA2EA1E0DA2EF3E6AF2E65
:1016D000F3E0BF2E0E94ED09882309F45EC08091DB
:1016E00026048915D9F08BED91E06FE871E04BEBA2
:1016F00051E026E234E008EB11E0E8E6EE2EE8E007
:10170000FE2EB8EACB2EB1E0DB2EA3E6AA2EA3E094
:10171000BA2E0E94ED09882309F43FC0809132045B
:101720008915D1F08BE991E060E971E048E751E07B
:1017300022E334E005E711E0F8E6EF2EF8E0FF2EB3
:10174000E5E6CE2EE1E0DE2EB3E6AB2EB3E0BB2E17
:101750000E94ED09882309F180913E048915D1F09A
:1017600088E591E061E971E04FE351E02EE334E078
:101770000CE311E0A8E6EA2EA8E0FA2EFCE2CF2E58
:10178000F1E0DF2EE3E6AE2EE3E0BE2E0E94ED098F
:10179000882319F0CE010E942715DF91CF911F9168
:1017A0000F91FF90EF90DF90CF90BF90AF909F9000
:1017B0000895AF92BF92CF92DF92EF92FF920F9374
:1017C0001F936330710509F4E2C0643071055CF465
:1017D0006130710509F459C0623071050CF096C092
:1017E000672B91F026C26530710509F456C165304A
:1017F00071050CF411C16630710509F493C16730AD
:10180000710509F016C2CFC181309105C1F0823057
:10181000910541F10097C9F587E698E060E471E031
:101820004CE458E026EF33E009E418E0A4E5EA2EA2
:10183000A8E0FA2EF9E3CF2EF8E0DF2EF4C18CE217
:1018400098E061E471E042E158E022E034E00FE02A
:1018500018E0E4E5EE2EE8E0FE2EBFEFCB2EB7E079
:10186000DB2EE1C182EF97E062E471E048ED57E0E2
:101870002EE034E005ED17E0A4E5EA2EA8E0FA2E0C
:10188000F5ECCF2EF7E0DF2ECEC181309105C1F00F
:101890008230910541F10097C9F588EB97E066E445
:1018A00071E04DE957E026EF33E00BE917E0EEE594
:1018B000EE2EE8E0FE2EBBE8CB2EB7E0DB2EB3C168
:1018C0008EE797E067E471E044E657E022E034E019
:1018D00002E617E0AEE5EA2EA8E0FA2EF2E5CF2EFA
:1018E000F7E0DF2EA0C185E497E068E471E04BE209
:1018F00057E02EE034E009E217E0EEE5EE2EE8E0F6
:10190000FE2EB9E1CB2EB7E0DB2E8DC181309105E3
:10191000C1F08230910541F10097C9F58CE097E064
:101920006CE471E041EF56E026EF33E00EEE16E096
:10193000A8E6EA2EA8E0FA2EFEEDCF2EF6E0DF2E86
:1019400066C081ED96E06DE471E047EB56E022E081
:1019500034E004EB16E0E8E6EE2EE8E0FE2EB4EA12
:10196000CB2EB6E0DB2E53C087E996E06EE471E043
:101970004DE756E02EE034E00AE716E0A8E6EA2E4E
:10198000A8E0FA2EFAE6CF2EF6E0DF2E40C0813036
:101990009105C1F08230910541F10097E9F58DE59F
:1019A00096E062E571E042E456E026EF33E00FE3B3
:1019B00016E0E2E7EE2EE8E0FE2EBFE2CB2EB6E028
:1019C000DB2E25C082E296E063E571E048E056E058
:1019D00022E034E005E016E0A2E7EA2EA8E0FA2EC5
:1019E000F5EFCF2EF5E0DF2E12C088EE95E064E52E
:1019F00071E04EEC55E02EE034E00BEC15E0E2E750
:101A0000EE2EE8E0FE2EBBEBCB2EB5E0DB2EA3E600
:101A1000AA2EA3E0BA2E0BC181309105C1F082300D
:101A2000910541F10097C9F58EEA95E068E571E00E
:101A300043E955E026EF33E000E915E0F8E6EF2E44
:101A4000F8E0FF2EE0E8CE2EE5E0DE2E66C083E76C
:101A500095E069E571E049E555E022E034E006E50E
:101A600015E0B8E6EB2EB8E0FB2EA6E4CA2EA5E002
:101A7000DA2E53C089E395E06AE571E04FE155E065
:101A80002EE034E00CE115E0F8E6EF2EF8E0FF2E52
:101A9000ECE0CE2EE5E0DE2E40C081309105C1F0B5
:101AA0008230910541F10097E9F58FEF94E06EE502
:101AB00071E044EE54E026EF33E001EE14E0B2E7CB
:101AC000EB2EB8E0FB2EA1EDCA2EA4E0DA2E25C045
:101AD00084EC94E06FE571E04AEA54E022E034E0FF
:101AE00007EA14E0F2E7EF2EF8E0FF2EE7E9CE2E4A
:101AF000E4E0DE2E12C08AE894E060E671E040E7A0
:101B000054E02EE034E00DE614E0B2E7EB2EB8E04E
:101B1000FB2EADE5CA2EA4E0DA2EF4E6AF2EF3E0FC
:101B2000BF2E85C081309105C1F08230910541F111
:101B30000097C9F580E594E064E671E045E354E080
:101B400026EF33E002E314E0E8E6EE2EE8E0FE2EB6
:101B5000B2E2CB2EB4E0DB2E66C085E194E065E610
:101B600071E04BEF53E022E034E008EF13E0A8E629
:101B7000EA2EA8E0FA2EF8EECF2EF3E0DF2E53C0C7
:101B80008BED93E066E671E041EC53E02EE034E04B
:101B90000EEB13E0E8E6EE2EE8E0FE2EBEEACB2EDA
:101BA000B3E0DB2E40C081309105C1F08230910559
:101BB00041F1892BF1F581EA93E06AE671E046E8AC
:101BC00053E026EF33E003E813E0A2E7EA2EA8E0B3
:101BD000FA2EF3E7CF2EF3E0DF2E25C086E693E062
:101BE0006BE671E04CE453E022E034E009E413E0FA
:101BF000E2E7EE2EE8E0FE2EB9E3CB2EB3E0DB2EDB
:101C000012C08CE293E06CE671E042E153E02EE01A
:101C100034E00FE013E0A2E7EA2EA8E0FA2EFFEF8F
:101C2000CF2EF2E0DF2EE2E6AE2EE3E0BE2E0E94E3
:101C3000ED091F910F91FF90EF90DF90CF90BF9033
:101C4000AF900895CF92DF92EF92FF920F931F9380
:101C5000CF93DF937C010E940522209152043091A2
:101C6000530440915404509155046217730784073C
:101C7000950708F448C00E9405226C507E4F8F4F94
:101C80009F4F609352047093530480935404909335
:101C90005504D0906103C090640300E010E020C0C0
:101CA000C801BE010E94D90BC801BE010E942607CF
:101CB000F7019481882319F09D1539F002C09C1515
:101CC00021F0C7010E942B151EC0F701D482219676
:101CD000C830D10529F70F5F1F4F0330110519F0E8
:101CE000C0E0D0E0DDCF8091520490915304A091E8
:101CF0005404B0915504805D9740A040B04018F066
:101D0000C7010E942715DF91CF911F910F91FF907E
:101D1000EF90DF90CF900895CF93DF93EC010E9476
:101D20000522695E73408040904018F0CE010E9409
:101D30002B15DF91CF910895CF93DF93EC010E9493
:101D40000522695E73408040904018F0CE010E94E9
:101D50002715DF91CF9108954F925F926F927F92F6
:101D60008F929F92AF92BF92CF92DF92EF92FF92AB
:101D70000F931F93CF93DF93EC013B012A0149019D
:101D8000F701C901B5011995F82E882349F480910E
:101D90005804909159040097B1F00E942B1513C07C
:101DA0008091F70285FFABC08091F80285FD1DC0D0
:101DB000E0915804F0915904309709F4A0C085814E
:101DC00085FD13C09CC08091F70284FF98C080916C
:101DD000F80284FD0AC0E0915804F091590430974C
:101DE00009F48DC0858184FF8AC08091F9029091A9
:101DF000FA02BE010E9419208091F9029091FA0224
:101E00006FE079E00E9419208091F9029091FA0226
:101E1000B3014AE050E00E9412218091F9029091B2
:101E2000FA026AE079E00E9419208091F90290910B
:101E3000FA02FF2019F065E079E002C060E079E085
:101E40000E9419208091F9029091FA0266EF78E0E1
:101E50000E9419208091F9029091FA02B2010E9429
:101E600019208091F9029091FA0264EF78E00E94C3
:101E70001920F401608171818091F9029091FA0238
:101E80000E94A7218091F9029091FA0261EF78E017
:101E90000E9419208091F9029091FA02B8010E94E3
:101EA00019208091F9029091FA026EEE78E00E947A
:101EB00019208091F9029091FA02B6010E9419202E
:101EC0008091F9029091FA026CEE78E00E9419205C
:101ED000F501608171818091F9029091FA020E946E
:101EE000A7218091F9029091FA026AEE78E00E94AF
:101EF00019208091F9029091FA020E944F208F2DB3
:101F0000DF91CF911F910F91FF90EF90DF90CF90D5
:101F1000BF90AF909F908F907F906F905F904F9009
:101F20000895AF92BF92CF92DF92EF92FF920F93FC
:101F30001F93DF93CF9300D00F92CDB7DEB79A8374
:101F400089837C836B834230510509F440C0433060
:101F5000510544F44115510591F04130510509F006
:101F60008CC021C04430510509F459C0443051059A
:101F70000CF441C04530510509F07FC064C08DEDBF
:101F800098E068EE70E04BED58E09E012F5F3F4F08
:101F900009ED18E0BAE3EB2EB6E1FB2EA7EDCA2E51
:101FA000A8E0DA2E63C08AEC98E069EE70E048ECB5
:101FB00058E09E012F5F3F4F05EC18E0FBE2EF2E4B
:101FC000F6E1FF2EE3ECCE2EE8E0DE2E4FC086EBEE
:101FD00098E06AEE70E044EB58E09E012F5F3F4FBF
:101FE00001EB18E0BDE1EB2EB6E1FB2EAFEACA2E05
:101FF000A8E0DA2E3BC082EA98E06BEE70E040EA9F
:1020000058E09E012F5F3F4F0DE918E0FFE0EF2EF3
:10201000F6E1FF2EEBE9CE2EE8E0DE2E27C08EE8BB
:1020200098E06CEE70E04CE858E09E012F5F3F4F67
:1020300009E818E0B0E0EB2EB6E1FB2EA7E8CA2EC7
:10204000A8E0DA2E13C08AE798E06DEE70E048E76A
:1020500058E09E012F5F3F4F06E718E0F1EFEF2EAB
:10206000F5E1FF2EE4E7CE2EE8E0DE2EB3E0AB2E66
:10207000B12CAC0EBD1E0E94AC0E0F900F900F90B5
:102080000F90CF91DF911F910F91FF90EF90DF9014
:10209000CF90BF90AF9008954230510501F1433089
:1020A00051053CF44115510571F041305105B1F530
:1020B0000EC04430510509F144305105BCF04530A3
:1020C000510561F522C00E94D606892F1AC00E94D0
:1020D000D6069C0180E01216130604F11DC00E9472
:1020E000D6069C0180E0232BC9F416C00E94D606B8
:1020F0009C0180E0232B91F00FC00E94D606892F0F
:102100008095881F8827881F08950E94D6069C0105
:1021100080E01216130614F481E008950895AF923A
:10212000BF92CF92DF92EF92FF920F931F93CF93C4
:10213000DF936C01B0906103A0906403EE24FF2450
:1021400034C0F80180819181A7010E94910F6881BC
:102150007981F80180819181A7010E944C10F601DC
:102160009481882319F09B1539F002C09A1521F04B
:10217000C6010E942B151CC0F601B482229668810C
:10218000798161157105E9F60E5F1F4FF8018081B5
:102190009181892B19F0CDEED2E0F1CF0894E11CAA
:1021A000F11CF6E0EF16F10419F00DEE12E0EECF9F
:1021B000DF91CF911F910F91FF90EF90DF90CF9023
:1021C000BF90AF9008954F925F926F927F928F92DF
:1021D0009F92AF92BF92CF92DF92EF92FF920F93B6
:1021E0001F93CF93DF93EC013B012A014901F701D3
:1021F000C901B5011995F82E882349F48091580436
:10220000909159040097B1F00E942B1513C0809152
:10221000F70285FFAFC08091F80285FD1DC0E091F7
:102220005804F0915904309709F4A4C0858185FDC4
:1022300013C0A0C08091F70284FF9CC08091F80277
:1022400084FD0AC0E0915804F0915904309709F4D4
:1022500091C0858184FF8EC08091F9029091FA022D
:10226000BE010E9419208091F9029091FA026CEA55
:1022700079E00E9419208091F9029091FA02B3014D
:102280004AE050E00E9412218091F9029091FA02F6
:1022900067EA79E00E9419208091F9029091FA0290
:1022A000FF2019F062EA79E002C06DE979E00E944E
:1022B00019208091F9029091FA0263E979E00E9475
:1022C00019208091F9029091FA02B2010E9419201E
:1022D0008091F9029091FA0261E979E00E94192057
:1022E000F401608171818091F9029091FA024AE0D3
:1022F00050E00E9475218091F9029091FA026EE8F7
:1023000079E00E9419208091F9029091FA02B801B7
:102310000E9419208091F9029091FA026BE879E00D
:102320000E9419208091F9029091FA02B6010E9450
:1023300019208091F9029091FA0269E879E00E94EF
:102340001920F501608171818091F9029091FA0262
:102350004AE050E00E9475218091F9029091FA02C2
:1023600067E879E00E9419208091F9029091FA02C1
:102370000E944F208F2DDF91CF911F910F91FF90E1
:10238000EF90DF90CF90BF90AF909F908F907F9015
:102390006F905F904F900895AF92BF92CF92DF926F
:1023A000EF92FF920F931F93DF93CF9300D00F9282
:1023B000CDB7DEB79A8389837C836B834230510526
:1023C00009F440C04330510544F44115510591F0E2
:1023D0004130510509F08CC021C04430510509F449
:1023E00059C0443051050CF441C04530510509F045
:1023F0007FC064C08AE799E06AEB70E048E759E083
:102400009E012F5F3F4F06E719E0E3E1EE2EE8E083
:10241000FE2EB4E7CB2EB9E0DB2E63C087E699E051
:102420006BEB70E045E659E09E012F5F3F4F02E6FF
:1024300019E0A0E2EA2EA8E0FA2EF0E6CF2EF9E0AD
:10244000DF2E4FC083E599E06CEB70E041E559E089
:102450009E012F5F3F4F0EE419E0E6E0EE2EE8E02C
:10246000FE2EBCE4CB2EB9E0DB2E3BC08FE399E01F
:102470006DEB70E04DE359E09E012F5F3F4F0AE3A3
:1024800019E0ADE2EA2EA8E0FA2EF8E3CF2EF9E04B
:10249000DF2E27C08BE299E06EEB70E049E259E055
:1024A0009E012F5F3F4F06E219E0EAE3EE2EE8E0DF
:1024B000FE2EB4E2CB2EB9E0DB2E13C087E199E00B
:1024C0006FEB70E045E159E09E012F5F3F4F03E164
:1024D00019E0A7E4EA2EA8E0FA2EF1E1CF2EF9E008
:1024E000DF2EE3E0AE2EB12CAC0EBD1E0E94E31039
:1024F0000F900F900F900F90CF91DF911F910F9140
:10250000FF90EF90DF90CF90BF90AF900895AF9283
:10251000BF92CF92DF92EF92FF920F931F93CF93D0
:10252000DF936C01B0906103A0906403EE24FF245C
:102530002CC0C801BE01A7010E94CC11C801BE0178
:10254000A7010E94ED06F6019481882319F09B15DE
:1025500039F002C09A1521F0C6010E942B1518C04F
:10256000F601B4822196C230D10519F70F5F1F4FD3
:102570000230110519F0CFEFDFEFDBCF0894E11C3B
:10258000F11CF6E0EF16F10419F00FEF1FEFF3CF97
:10259000DF91CF911F910F91FF90EF90DF90CF903F
:1025A000BF90AF900895AF92BF92CF92DF92EF921B
:1025B000FF920F931F93DF93CF93CDB7DEB728978A
:1025C0000FB6F894DEBF0FBECDBF6115710521F0C7
:1025D00061307105E1F51DC089831A8281E090E0C8
:1025E0009C838B838DEC99E064E970E04BEC59E0BF
:1025F0009E012F5F3F4F08EC19E0A6E0EA2EA8E00D
:10260000FA2EF4ECCF2EF9E0DF2EE3E0AE2EB12C63
:102610001AC08D831E8218861F8287EB99E065E9B8
:1026200070E045EB59E09E012B5F3F4F02EB19E054
:10263000B6E0EB2EB8E0FB2EAEEACA2EA9E0DA2E09
:10264000F7E0AF2EB12CAC0EBD1E0E94E310289611
:102650000FB6F894DEBF0FBECDBFCF91DF911F91B3
:102660000F91FF90EF90DF90CF90BF90AF900895C3
:102670009F92AF92BF92CF92DF92EF92FF920F9311
:102680001F93CF93DF936C01B0906103A09064031C
:10269000C0E0D0E0992493942CC0012F10E0E11405
:1026A000F10409F011E0812FBE010E94D31220979E
:1026B00031F0C130D10511F0102F01C01925F601FC
:1026C0008481112319F08B1539F002C08A1521F08D
:1026D000C6010E942B1511C0F601B4820894E11CBA
:1026E000F11CF2E0EF16F104C1F62196C230D105DB
:1026F00021F0012FEE24FF24D1CFDF91CF911F9144
:102700000F91FF90EF90DF90CF90BF90AF909F9090
:102710000895CF93DF93EC010E940522695E734018
:102720008040904018F0CE010E942F15DF91CF918C
:102730000895CF93DF93BC01EC0109900020E9F7E5
:102740002197C81BD90B82EA93E0AE010E94DF06F5
:10275000009711F080E009C0CE55DC4F488140322F
:1027600019F080E0442309F481E0DF91CF910895CE
:1027700080E092E00E9499138823E9F020E030E0A5
:1027800002C02F5F3F4FF901EE55FC4FE081E03270
:1027900021F4F901EE55FC4F05C0EE2391F7F9CF76
:1027A0002F5F3F4F81918032D9F3C9018E559C4FE5
:1027B0000E947D19089588E092E00E949913882371
:1027C000E9F020E030E002C02F5F3F4FF901EE5505
:1027D000FC4FE081E03221F4F901EE55FC4F05C0D9
:1027E000EE2391F7F9CF2F5F3F4F81918032D9F3DC
:1027F000C9018E559C4F0E945B19089580E192E0BB
:102800000E949913882381F120E030E002C02F5FFD
:102810003F4FF901EE55FC4FE081E03221F4F90120
:10282000EE55FC4F05C0EE2391F7F9CF2F5F3F4FD8
:1028300081918032D9F3F901EE55FC4F20E030E070
:102840000BC0220F331F80E090E0413311F481E090
:1028500090E0280F391F31964081842F80538230B9
:1028600080F32093F70208958EE192E00E9499137D
:10287000882381F120E030E002C02F5F3F4FF90153
:10288000EE55FC4FE081E03221F4F901EE55FC4FAA
:1028900005C0EE2391F7F9CF2F5F3F4F8191803232
:1028A000D9F3F901EE55FC4F20E030E00BC0220FC8
:1028B000331F80E090E0413311F481E090E0280F75
:1028C000391F31964081842F8053823080F32093CA
:1028D000F80208958CE292E00E949913882319F07F
:1028E0001092EC02089586E896E060E372E00E94A0
:1028F000A72186E896E062EA73E00E94A72186E8B5
:1029000096E063E472E00E94A72186E896E00E94C8
:102910004F2008950F931F93CF93DF9386E896E09F
:102920006EED79E00E94192000E010E086E896E064
:102930000E940B1E892BD1F386E896E00E943C1E74
:10294000EC011816190694F78F37910561F40115FB
:10295000110561F386E896E06AED79E00E9419209E
:1029600001501040E3CF8A30910591F08D309105F0
:1029700079F086E896E06C2F0E943C200035110526
:1029800020F4F801EE55FC4FC0830F5F1F4FCECFF0
:10299000F8010035110510F0EFE4F0E0EE55FC4FC2
:1029A000108286E896E00E944F20DF91CF911F9120
:1029B0000F9108950F931F9306E816E0C80163E78F
:1029C0007AE00E946F20C80166E57AE00E946F20DD
:1029D000C80162E47AE00E946F20C8016EE27AE0EA
:1029E0000E946F20C8016EE07AE00E946F20C8014B
:1029F0006EEE79E00E946F20C80168EE79E00E94D7
:102A00006F201F910F91089586E896E040E855E207
:102A100060E070E00E94841D0E94DA1404C00E94ED
:102A20008A140E94B8138091EC028823C1F708959C
:102A3000CF93DF930E9413220E940415CFE3DCE1C1
:102A40000E945E172097E1F30E943F1CF9CF23E01C
:102A5000FC012483089524E0FC012483089522E0EE
:102A6000FC01248308950895CF93DF93EC0187E759
:102A700093E099838883E0915604F0915704A6E58A
:102A8000B4E00DC022813381EC17FD0721F42C93B3
:102A900011963C9306C0DF011296C901FC013097E4
:102AA00089F7DF91CF910895CF93DF93EC0187E70A
:102AB00093E099838883E0915604F0915704A6E54A
:102AC000B4E00DC022813381EC17FD0721F42C9373
:102AD00011963C9306C0DF011296C901FC013097A4
:102AE00089F7DF91CF910895CF93DF93EC01E881CF
:102AF000F9810084F185E02D19958C81813011F4E4
:102B000083E08C83DF91CF910895CF93DF93EC0125
:102B100087E793E099838883E0915604F091570406
:102B2000A6E5B4E00DC0EC17FD0729F4828193817E
:102B30008D939C9307C0DF0112960280F381E02DF4
:102B4000309789F7DF91CF910895CF93DF93DC0120
:102B500087E793E011969C938E93E0915604F09151
:102B60005704C6E5D4E00FC0EA17FB0739F4129604
:102B70008D919C9113979983888307C0EF012296CA
:102B80000280F381E02D309779F7CD010E94EC1F90
:102B9000DF91CF910895CF93DF93DC0187E793E036
:102BA00011969C938E93E0915604F0915704C6E5DC
:102BB000D4E00FC0EA17FB0739F412968D919C916F
:102BC00013979983888307C0EF0122960280F381CF
:102BD000E02D309779F7CD010E94EC1FDF91CF9166
:102BE0000895DC01FB01608171818D919C910E94AF
:102BF000D6069C0180E0121613060CF481E00895BD
:102C0000DC01FB01608171818D919C910E94D6064F
:102C1000292F2095822F881F8827881F0895DC017F
:102C2000FB01608171818D919C910E94D6069C016F
:102C300080E0232B09F081E00895DC01FB01608135
:102C400071818D919C910E94D6069C0180E0232B7E
:102C500009F481E00895DC01FB01608171818D91AF
:102C60009C910E94D6069C0180E0121613060CF07F
:102C700081E00895DC01FB01608171818D919C915F
:102C80000E94D606892F881F8827881F0895FF92E3
:102C90000F931F93CF93DF93EC01E0915804F091D1
:102CA00059048481FF24833011F4FF24F39400E05D
:102CB000843009F401E010E0823009F411E0FF20D3
:102CC00029F4002371F41123C1F479C080915C04CC
:102CD00090915D04019690935D0480935C040023C1
:102CE00049F080915E0490915F04019690935F0497
:102CF00080935E04112309F4D4C080916004909104
:102D00006104019690936104809360048091F702BE
:102D100083FFC7C08091F80283FD23C0309709F478
:102D2000C0C0858183FD1DC0BCC08091F70282FFB9
:102D3000BBC08091F80282FD14C0309709F4B4C082
:102D4000858182FD0EC0B0C08091F70281FF37C03F
:102D50008091F80281FD05C0309789F1858181FF5E
:102D60002EC08091F9029091FA0262EF7AE00E94FF
:102D7000192026968091F9029091FA02BE010E94D4
:102D80004420112341F08091F9029091FA0268EEFB
:102D90007AE00E946F20FF2041F08091F90290912B
:102DA000FA026FED7AE00E946F20002341F08091DB
:102DB000F9029091FA0266ED7AE00E946F2080910C
:102DC000560490915704892B09F072C08091F70244
:102DD00080FF6EC08091F80280FD0AC0E091580427
:102DE000F0915904309709F463C0858180FF60C079
:102DF0008091F9029091FA0267EC7AE00E94192022
:102E000060915C0470915D048091F9029091FA02E6
:102E10004AE050E00E9412218091F9029091FA025A
:102E20006DEB7AE00E94192060915E0470915F045E
:102E30008091F9029091FA024AE050E00E9412213A
:102E40008091F9029091FA026FEA7AE00E941920CB
:102E500060916004709161048091F9029091FA028E
:102E60004AE050E00E9412218091F9029091FA020A
:102E70006DE97AE00E94192060915A0470915B0418
:102E80008091F9029091FA024AE050E00E941221EA
:102E90008091F9029091FA0263E97AE00E946F2032
:102EA00007C0FF2009F041CF002309F488CF4CCFA1
:102EB000DF91CF911F910F91FF9008951F93CF93B2
:102EC000DF93C6E5D4E011E03AC0B0935904A09373
:102ED000580414968C911497813049F4ED91FC912B
:102EE00011970280F381E02DCD01199512C088233E
:102EF00081F4ED91FC9111970190F081E02DCD01CD
:102F00001995E0915804F09159048481882309F4BB
:102F10001483E0915804F09159048481E881F98187
:102F2000813059F0828193819983888380915804FC
:102F3000909159040E94471602C0EF012296A88181
:102F4000B981109711F6DF91CF911F910895FC017F
:102F5000228133814481558157FF05C0CB01B901DE
:102F60000E9419200895CB01B9010E94A72108955C
:102F7000FC0182819381A481B581B7FF04C00E94C6
:102F8000BD06DC0108C0FC01DC010D900020E9F762
:102F90001197AE1BBF0BCD010895FC018281938177
:102FA000A481B581480F591FB7FF07C0CB01BA01F3
:102FB000422F50E00E94B4060895CB01BA01422F7F
:102FC00050E00E94C60608952F923F924F925F9262
:102FD0006F927F928F929F92AF92BF92CF92DF9229
:102FE000EF92FF920F931F93DF93CF93CDB7DEB78E
:102FF00061970FB6F894DEBF0FBECDBF9D878C875B
:103000004B012DB73EB73F872E87DB010D90002087
:10301000E9F711973A2F361B39870E94B817782E97
:103020007985672F70E07B876A87AB014E5F5F4FC2
:1030300020E0CA0187709070892B09F021E033E00D
:10304000559547953A95E1F7322E340E832D90E051
:10305000ADB7BEB7A81BB90B0FB6F894BEBF0FBE75
:10306000ADBF0DB71EB70F5F1F4FEDB7FEB7E81B23
:10307000F90B0FB6F894FEBF0FBEEDBFEDB6FEB66E
:103080000894E11CF11C5801C80160E070E0432D78
:1030900050E00E94CF0681E0D8018C9391E041E09E
:1030A00050E013C0892F869586958695F801E80F24
:1030B000F11D27703070BA0102C0660F771F2A9584
:1030C000E2F78081862B80839F5F292F30E0F40117
:1030D000E20FF31F319780818A3221F3CC24DD2463
:1030E000472C5524C2010196998B888B272C239459
:1030F00091E0692E712CA9C086010770107001152E
:10310000110591F4888999898C199D09089714F003
:1031100028E002C0222D2C198C859D85BE016F5F91
:103120007F4FA6010E94CD17A1E0B0E0AC0FBD1FFC
:103130000A0F1B1FF8011081C70160E070E0432DEA
:1031400050E00E94CF0640E050E061E0FA0183E0E9
:10315000F595E7958A95E1F7EA0DFB1D808190E0F2
:103160009A012770307002C0959587952A95E2F7ED
:1031700080FF5CC0F401E40FF51FE081EA3231F515
:10318000842F242F269526952695F701E20FF11D11
:103190008770930102C0220F331F8A95E2F7C9019D
:1031A0002081282B2083862F869586958695F7018A
:1031B000E80FF11D862F8770D30102C0AA0FBB1F35
:1031C0008A95E2F720812A2B208330C0E11771F520
:1031D000862F869586958695F701E80FF11D862F37
:1031E0008770930102C0220F331F8A95E2F7C9014D
:1031F0002081282B2083362F13C03F5F832F869595
:1032000086958695F701E80FF11D832F8770D3010E
:1032100002C0AA0FBB1F8A95E2F720812A2B2083C8
:10322000F401E30FF11D80818A3239F34F5F5F4F64
:103230006F5FEA85FB85E417F5070CF087CF0894EC
:10324000C11CD11CC50157017C014C145D040CF05C
:1032500053CF29852F5F822F869586958695A80E58
:10326000B11CD5018C9190E0277002C0959587958F
:103270002A95E2F78170EE85FF850FB6F894FEBFC0
:103280000FBEEDBF61960FB6F894DEBF0FBECDBF87
:10329000CF91DF911F910F91FF90EF90DF90CF9032
:1032A000BF90AF909F908F907F906F905F904F9066
:1032B0003F902F900895FF920F931F93CF93DF932A
:1032C0008C01C0915604D091570442E0F42E0DC0F9
:1032D0008C81882339F4CE010696B8010E94E41748
:1032E0008111FC820A80DB81C02D209789F7DF9154
:1032F000CF911F910F91FF9008950F931F93CF933C
:10330000DF938C01C0915604D09157040DC08C817D
:10331000823039F4CE010696B8010E94E41781117B
:103320001C820A80DB81C02D209789F7DF91CF9125
:103330001F910F9108956F927F928F929F92AF92FB
:10334000BF92CF92DF92FF920F931F93DF93CF93A1
:10335000CDB7DEB728970FB6F894DEBF0FBECDBF4E
:103360005C016B0100E010E03E010894611C711CDF
:1033700065E0862E912C8C0E9D1E53E0F52EF022DA
:1033800061F4C501B301A80124E00E94CD17C60174
:10339000B401A80124E00E94CD17EF2DF0E0D30185
:1033A000AE0FBF1FAC91E80DF91DE081AE1758F0CC
:1033B000EA1710F481E008C0AA2311F480E004C0E9
:1033C0000F5F1F4FDACF8FEF28960FB6F894DEBF4E
:1033D0000FBECDBFCF91DF911F910F91FF90DF9076
:1033E000CF90BF90AF909F908F907F906F900895F7
:1033F000EF92FF920F931F93CF93DF938C01FC0109
:10340000148276E0E72EF12CE80EF91EC6E5D4E032
:103410000BC06A5F7F4FC7010E949B1918164CF4BE
:103420000990D881C02D2296688179816115710536
:1034300081F788819981F8019383828319830883B6
:1034400080915A0490915B04019690935B04809361
:103450005A04DF91CF911F910F91FF90EF90089543
:10346000FC0127E733E031832083458323E833E001
:1034700037832683882777FD8095982F906860870B
:10348000718782879387CF010E94F81908950F935F
:103490001F938C014FE10E94301A89E693E0F801F6
:1034A000918380831F910F91089589E893E0909311
:1034B00063048093620480E895E2909365048093AE
:1034C00064040895EF92FF920F931F937B0106E827
:1034D00016E0C8016DE472E00E94A721C7010E94B6
:1034E0002E1BBC01C8014AE050E00E947521C801B2
:1034F00069E572E00E94A721C7010E943B1BBC0145
:10350000C8014AE050E00E947521C80167E672E0F8
:103510000E94A721C7010E94371BBC01C8014AE0D5
:1035200050E00E9488211F910F91FF90EF90089525
:10353000CF92DF92EF92FF920F931F937B016A016C
:1035400006E816E0C80161E772E00E94A721F701D2
:1035500064817581C8010E94A721C80167E872E0F3
:103560000E94A721C801B6014AE050E00E948821CC
:103570001F910F91FF90EF90DF90CF9008958F9261
:103580009F92AF92BF92CF92DF92EF92FF920F93F2
:103590001F936B015A01490186E8E82E86E0F82E58
:1035A000C70162E972E00E94A721F601648175817A
:1035B000C7010E94A721C70167E872E00E94A72106
:1035C000C701B5014AE050E00E947521C70161EBD7
:1035D00072E00E94A721C701B4010E94A721C70180
:1035E0006EEB72E00E94A721C701B8010E94A721DB
:1035F000C7016AEC72E00E94AA211F910F91FF900F
:10360000EF90DF90CF90BF90AF909F908F900895F4
:10361000CF93DF93EB0186E896E06CEC72E00E94BA
:10362000A7218881882389F086E896E06FED72E013
:103630000E94A72186E896E0BE010E94A72186E8A5
:1036400096E06AEC72E00E94A72186E896E062EEBE
:1036500072E00E94AA21DF91CF910895FC0126819A
:10366000378184819581280F391FC9010895FC0194
:10367000868197810895FC0184819581089508953C
:103680001F920F920FB60F920BB60F9211242F9329
:103690003F934F938F939F93EF93FF938091C0003D
:1036A00082FD1DC04091C6002091A6043091A70460
:1036B0002F5F3F4F2F7330708091A8049091A90421
:1036C0002817390771F0E091A604F091A704EA5990
:1036D000FB4F40833093A7042093A60402C080913F
:1036E000C600FF91EF919F918F914F913F912F9144
:1036F0000F900BBE0F900FBE0F901F90189508955E
:103700001F920F920FB60F920BB60F9211242F93A8
:103710003F934F938F939F93EF93FF938091C800B4
:1037200082FD1DC04091CE0020912E0530912F05C5
:103730002F5F3F4F2F73307080913005909131058E
:103740002817390771F0E0912E05F0912F05E2510D
:10375000FB4F408330932F0520932E0502C08091AC
:10376000CE00FF91EF919F918F914F913F912F91BB
:103770000F900BBE0F900FBE0F901F9018950895DD
:103780001F920F920FB60F920BB60F9211242F9328
:103790003F934F938F939F93EF93FF938091D0002C
:1037A00082FD1DC04091D6002091B6053091B7052D
:1037B0002F5F3F4F2F7330708091B8059091B905FE
:1037C0002817390771F0E091B605F091B705EA586E
:1037D000FA4F40833093B7052093B60502C080911D
:1037E000D600FF91EF919F918F914F913F912F9133
:1037F0000F900BBE0F900FBE0F901F90189508955D
:103800001F920F920FB60F920BB60F9211242F93A7
:103810003F934F938F939F93EF93FF93809130014A
:1038200082FD1DC04091360120913E0630913F0639
:103830002F5F3F4F2F73307080914006909141066B
:103840002817390771F0E0913E06F0913F06E250EB
:10385000FA4F408330933F0620933E0602C080918A
:103860003601FF91EF919F918F914F913F912F9151
:103870000F900BBE0F900FBE0F901F901895E09108
:103880009206F0919306E05CFF4F81919191208127
:103890003181821B930B8F739070892B11F00E94E2
:1038A0003F1BE091B406F091B506E05CFF4F8191BB
:1038B000919120813181821B930B8F739070892BA2
:1038C00011F00E947F1BE091D606F091D706E05CD4
:1038D000FF4F8191919120813181821B930B8F73D6
:1038E0009070892B11F00E94BF1BE091F806F091B7
:1038F000F906E05CFF4F8191919120813181821B1B
:10390000930B8F739070892B11F00E94FF1B089509
:103910001F920F920FB60F920BB60F9211242F9396
:103920003F938F939F93EF93FF932091EA043091FD
:10393000EB048091EC049091ED042817390731F4E1
:103940008091C1008F7D8093C10014C0E091EC0490
:10395000F091ED04E655FB4F20818091EC049091AD
:10396000ED0401968F7390709093ED048093EC04B6
:103970002093C600FF91EF919F918F913F912F91DE
:103980000F900BBE0F900FBE0F901F9018951F92B7
:103990000F920FB60F920BB60F9211242F933F93F5
:1039A0008F939F93EF93FF9320917205309173054E
:1039B00080917405909175052817390731F480912D
:1039C000C9008F7D8093C90014C0E0917405F09107
:1039D0007505EE5CFA4F2081809174059091750514
:1039E00001968F7390709093750580937405209362
:1039F000CE00FF91EF919F918F913F912F910F906A
:103A00000BBE0F900FBE0F901F9018951F920F9234
:103A10000FB60F920BB60F9211242F933F938F93F3
:103A20009F93EF93FF932091FA053091FB058091CE
:103A3000FC059091FD052817390731F48091D100DC
:103A40008F7D8093D10014C0E091FC05F091FD05BD
:103A5000E654FA4F20818091FC059091FD05019676
:103A60008F7390709093FD058093FC052093D60092
:103A7000FF91EF919F918F913F912F910F900BBEEE
:103A80000F900FBE0F901F9018951F920F920FB6B8
:103A90000F920BB60F9211242F933F938F939F9306
:103AA000EF93FF93209182063091830680918406E4
:103AB000909185062817390731F4809131018F7D67
:103AC0008093310114C0E0918406F0918506EE5B8D
:103AD000F94F2081809184069091850601968F731D
:103AE0009070909385068093840620933601FF9111
:103AF000EF919F918F913F912F910F900BBE0F905F
:103B00000FBE0F901F901895AF92BF92DF92EF9269
:103B1000FF920F931F93CF93DF93EC017A018B01F8
:103B2000DD24403081EE580780E0680780E07807A8
:103B300011F0DD24D39491E0A92EB12CEC89FD89FC
:103B4000DD2069F0C50108A002C0880F991F0A9402
:103B5000E2F7808360E079E08DE390E005C01082B9
:103B600060E874E88EE190E0A80197010E94942239
:103B70002150304040405040569547953795279505
:103B800080E12030380720F0DD2011F0DD24D6CF91
:103B9000E889F9893083EA89FB89208319A2EE89B3
:103BA000FF89408121E030E0C9010C8C02C0880F00
:103BB000991F0A94E2F7482B4083EE89FF894081E0
:103BC000C9010D8C02C0880F991F0A94E2F7482B97
:103BD0004083EE89FF894081C9010E8C02C0880FA5
:103BE000991F0A94E2F7482B4083EE89FF89808170
:103BF0000F8C02C0220F331F0A94E2F7209528236E
:103C00002083DF91CF911F910F91FF90EF90DF9074
:103C1000BF90AF900895DC011C96ED91FC911D972B
:103C2000E05CFF4F2191319180819181281B390BFC
:103C30002F733070C9010895DC011C96ED91FC9141
:103C40001D97E05CFF4F20813181E054F040DF019F
:103C5000AE5BBF4F8D919C9111972817390719F4CE
:103C60002FEF3FEF07C08D919C91E80FF91F8081E6
:103C7000282F30E0C9010895DC011C96ED91FC91DC
:103C80001D97E05CFF4F20813181E054F040DF015F
:103C9000AE5BBF4F8D919C9111972817390719F48E
:103CA0002FEF3FEF10C08D919C911197E80FF91FF6
:103CB00020818D919C91119701968F739070119630
:103CC0009C938E9330E0C9010895DC0191968C910C
:103CD0009197882339F05496ED91FC915597808106
:103CE00086FFF9CF91961C920895CF93DF93EC0154
:103CF000EE85FF85E05CFF4F20813181E054F0408C
:103D00002F5F3F4F2F733070DF01AE5BBF4F8D9140
:103D10009C91119728173907D1F3E05CFF4F808100
:103D20009181E054F040E80FF91F6083EE85FF8534
:103D3000E05CFF4F31832083EE89FF89208181E0A1
:103D400090E00F8C02C0880F991F0A94E2F7282B8D
:103D5000208381E089A3EC89FD8980818064808350
:103D600081E090E0DF91CF9108951F931092890632
:103D70001092880628EE33E040E050E020938A0657
:103D800030938B0640938C0650938D0665E973E063
:103D9000709387066093860686E694E09093930678
:103DA000809392068AEA94E0909395068093940615
:103DB00085EC90E0909397068093960684EC90E0D3
:103DC000909399068093980680EC90E090939B06E0
:103DD00080939A0681EC90E090939D0680939C06D8
:103DE00082EC90E090939F0680939E0686EC90E094
:103DF0009093A1068093A00614E01093A206B3E06E
:103E0000B093A306A7E0A093A406F5E0F093A5065F
:103E1000E1E0E093A6061092AB061092AA0620936A
:103E2000AC063093AD064093AE065093AF06709348
:103E3000A9066093A8068EEE94E09093B506809351
:103E4000B40682E395E09093B7068093B6068DECB6
:103E500090E09093B9068093B8068CEC90E0909334
:103E6000BB068093BA0688EC90E09093BD068093E1
:103E7000BC0689EC90E09093BF068093BE068AEC66
:103E800090E09093C1068093C0068EEC90E09093F2
:103E9000C3068093C2061093C406B093C506A093D0
:103EA000C606F093C706E093C8061092CD0610929E
:103EB000CC062093CE063093CF064093D006509385
:103EC000D1067093CB066093CA0686E795E090937F
:103ED000D7068093D6068AEB95E09093D906809317
:103EE000D80685ED90E09093DB068093DA0684EDAA
:103EF00090E09093DD068093DC0680ED90E0909357
:103F0000DF068093DE0681ED90E09093E1068093DA
:103F1000E00682ED90E09093E3068093E20686ED62
:103F200090E09093E5068093E4061093E606B09344
:103F3000E706A093E806F093E906E093EA061092FC
:103F4000EF061092EE062093F0063093F1064093B0
:103F5000F2065093F3067093ED066093EC068EEF35
:103F600095E09093F9068093F80682E496E09093AA
:103F7000FB068093FA0685E391E09093FD0680931B
:103F8000FC0684E391E09093FF068093FE0680E3B5
:103F900091E0909301078093000781E391E0909373
:103FA00003078093020782E391E0909305078093D3
:103FB000040786E391E09093070780930607109328
:103FC0000807B0930907A0930A07F0930B07E09343
:103FD0000C071F91089508950E9459060895CF92E5
:103FE000DF92EF92FF920F931F93CF93DF937C01A9
:103FF0006B018A01C0E0D0E00FC0D6016D916D0168
:10400000D701ED91FC910190F081E02DC701199548
:10401000C80FD91F015010400115110571F7CE01CD
:10402000DF91CF911F910F91FF90EF90DF90CF9094
:104030000895EF92FF920F931F93CF93DF937C012C
:104040008B01C0E0D0E0F8010F5F1F4F6491662341
:1040500059F0D701ED91FC910190F081E02DC7015D
:104060001995C80FD91FEFCFCE01DF91CF911F91C6
:104070000F91FF90EF900895DC01ED91FC9101907C
:10408000F081E02D199508959C01DB01ED91FC91E3
:104090000190F081E02DCB01B90119950895EF92BF
:1040A000FF920F931F938C01DC01ED91FC91019025
:1040B000F081E02D6DE019957C01D801ED91FC9126
:1040C0000190F081E02DC8016AE019959C012E0D48
:1040D0003F1DC9011F910F91FF90EF900895EF923E
:1040E000FF920F931F937C010E9419208C01C7013E
:1040F0000E944F209C01200F311FC9011F910F9179
:10410000FF90EF900895CF93DF93EC016115710557
:1041100019F420E030E00FC0DB010D900020E9F73A
:104120001197A61BB70BE881F9810280F381E02D7E
:10413000AD0119959C01C901DF91CF9108954F926E
:104140005F927F928F929F92AF92BF92CF92DF92B7
:10415000EF92FF920F931F93DF93CF93CDB7DEB70C
:10416000A1970FB6F894DEBF0FBECDBF2C01742E01
:10417000CB01223008F42AE019A231E2C32ED12C5F
:10418000CC0EDD1E822E9924AA24BB24672D752F08
:10419000A50194010E94942279018A01C801B70106
:1041A000A50194010E947522472D461B0894C10861
:1041B000D1084A3010F4405D01C0495CF6014083EB
:1041C000E114F1040105110521F07E2C5F2DC801D9
:1041D000DDCFC201B6010E948320A1960FB6F894EC
:1041E000DEBF0FBECDBFCF91DF911F910F91FF902A
:1041F000EF90DF90CF90BF90AF909F908F907F9087
:104200005F904F900895DC012115310541F4ED9147
:10421000FC910190F081E02D642F199508950E9482
:104220009F200895EF92FF920F931F939A017B01B5
:1042300000E010E0B801A7010E9403211F910F9137
:10424000FF90EF900895EF92FF920F931F939A01C2
:10425000E62EFF2400E010E0B801A7010E94032130
:104260001F910F91FF90EF900895CF92DF92EF9200
:10427000FF920F931F93CF93DF93EC016A017B01B1
:104280002115310541F4E881F9810190F081E02D9B
:10429000642F19951FC02A303105D1F477FF17C05C
:1042A000E881F9810190F081E02D6DE219958C0192
:1042B00044275527BA014C195D096E097F09CE01C3
:1042C0002AE00E949F209801280F391F04C02AE08D
:1042D0000E949F209C01C901DF91CF911F910F91F6
:1042E000FF90EF90DF90CF900895EF92FF920F93A1
:1042F0001F937B019A010027F7FC0095102FB8014E
:10430000A7010E9435211F910F91FF90EF90089512
:10431000CF92DF92EF92FF920F931F936C017B017C
:104320009A010027F7FC0095102FB801A7010E9401
:1043300035218C01C6010E944F20080F191FC801AA
:104340001F910F91FF90EF90DF90CF9008950E9402
:1043500083200895EF92FF920F931F937C010E9498
:1043600083208C01C7010E944F20080F191FC8012C
:104370001F910F91FF90EF9008951F920F920FB62B
:104380000F9211242F933F938F939F93AF93BF93DB
:104390008091120790911307A0911407B09115070F
:1043A000309116070196A11DB11D232F2D5F2D37CA
:1043B00020F02D570196A11DB11D20931607809363
:1043C000120790931307A0931407B09315078091D9
:1043D0000E0790910F07A0911007B0911107019659
:1043E000A11DB11D80930E0790930F07A093100796
:1043F000B0931107BF91AF919F918F913F912F91F2
:104400000F900FBE0F901F9018958FB7F8942091C2
:1044100012073091130740911407509115078FBF71
:10442000B901CA010895789484B5826084BD84B5C9
:10443000816084BD85B5826085BD85B5816085BD9F
:10444000EEE6F0E0808181608083E1E8F0E01082B8
:10445000808182608083808181608083E0E8F0E0F9
:10446000808181608083E1EBF0E0808184608083E3
:10447000E0EBF0E0808181608083E1E9F0E0808121
:1044800082608083808181608083E0E9F0E08081C8
:1044900081608083E1EAF0E08081826080838081B6
:1044A00081608083E0EAF0E0808181608083E1E2E6
:1044B000F1E0808182608083808181608083E0E29E
:1044C000F1E0808181608083EAE7F0E080818460B0
:1044D000808380818260808380818160808380810D
:1044E000806880831092C1000895629FD001739FFD
:1044F000F001829FE00DF11D649FE00DF11D929F80
:10450000F00D839FF00D749FF00D659FF00D9927BE
:10451000729FB00DE11DF91F639FB00DE11DF91FE2
:10452000BD01CF0111240895A1E21A2EAA1BBB1BC5
:10453000FD010DC0AA1FBB1FEE1FFF1FA217B3076F
:10454000E407F50720F0A21BB30BE40BF50B661F85
:10455000771F881F991F1A9469F760957095809549
:1045600090959B01AC01BD01CF010895EE0FFF1F97
:104570000590F491E02D19941BE0CEEFDAE004C031
:10458000FE010E94B8222296C030D107C9F7F894E4
:02459000FFCF5B
:10459200696E636C756465006578636C756465004B
:1045A2006D61785F766572626F73697479006D69A7
:1045B2006E5F766572626F736974790072756E00F0
:1045C200756E6B6E6F776E20636F6D6D616E643AA0
:1045D20020270027000061006161006200546573BA
:1045E20074732072756E3A2000205375636365738D
:1045F2007366756C3A2000204661696C65643A20E6
:1046020000417373657274696F6E206661696C65CF
:104612006420696E20270027206F6E206C696E650A
:104622002000457175616C697479206173736572DC
:1046320074696F6E206661696C656420696E2027FB
:10464200003A20657870656374656420270027202E
:1046520062757420776173202700270052756E6E91
:10466200696E6720746573742073756974650020C0
:1046720027002E2E2E0020001B07000001450246B7
:104682000248024B0200003F018606000000003390
:1046920015D40ABA083A09000000003315220EB1F7
:1046A2000829090000000033157415A80818098F9D
:1046B2001000000000331574159F080709871200C7
:1046C200000000331574159608F608381300000030
:1046D20000331589138D08E5080000000033158C9E
:1046E2000E8408D4080000000033159C0E7B08C31A
:1046F200080102030400000000331574158515CB70
:1047020015EB1F000000003315EB1F5415A5150013
:10471200000000A71700000000081B981ABF1A62C9
:104722001A00000000751EEF1F0B1E3C1E1C1E65AA
:024732001E0067
:00000001FF
