:100000000C947F050C94AC050C94AC050C94AC05D9
:100010000C94AC050C94AC050C94AC050C94AC059C
:100020000C94AC050C94AC050C94AC050C94AC058C
:100030000C94AC050C94AC050C94AC050C94AC057C
:100040000C94AC050C94AC050C94AC050C94AC056C
:100050000C94AC050C94AC050C94AC050C94A0204D
:100060000C94AC050C94551A0C949D1B0C94AC0587
:100070000C94AC050C94AC050C94AC050C94AC053C
:100080000C94AC050C94AC050C94AC050C94AC052C
:100090000C94951A0C94DC1B0C94AC050C94AC05D8
:1000A0000C94AC050C94AC050C94AC050C94AC050C
:1000B0000C94AC050C94AC050C94AC050C94AC05FC
:1000C0000C94AC050C94AC050C94AC050C94D51AAE
:1000D0000C941B1C0C94AC050C94151B0C945A1C12
:1000E0000C94AC05706173736573006661696C7321
:1000F00000736B697073006173736572745F626F14
:100100006F6C73006173736572745F696E747300F2
:100110006173736572745F737472696E6773006D77
:10012000657461006F766572616C6C005465737400
:100130003A3A444F4E455F50415353003D3D0074A1
:100140006573745F6D6574615F696E7374616E630E
:10015000652E7374617465006669726D776172658E
:100160002E696E6F00546573743A3A444F4E455F82
:1001700050415353003D3D00746573745F61737368
:100180006572745F737472696E67735F696E73749E
:10019000616E63652E7374617465006669726D7754
:1001A0006172652E696E6F00546573743A3A444FFC
:1001B0004E455F50415353003D3D00746573745F7D
:1001C0006173736572745F696E74735F696E737463
:1001D000616E63652E7374617465006669726D7714
:1001E0006172652E696E6F00546573743A3A444FBC
:1001F0004E455F50415353003D3D00746573745F3D
:100200006173736572745F626F6F6C735F696E7335
:1002100074616E63652E7374617465006669726DD6
:10022000776172652E696E6F00546573743A3A4453
:100230004F4E455F534B4950003D3D00746573740C
:100240005F736B6970735F696E7374616E63652E43
:100250007374617465006669726D776172652E6989
:100260006E6F00546573743A3A444F4E455F464191
:10027000494C003D3D00746573745F6661696C7341
:100280005F696E7374616E63652E7374617465006B
:100290006669726D776172652E696E6F0054657361
:1002A000743A3A444F4E455F50415353003D3D0030
:1002B000746573745F7061737365735F696E737473
:1002C000616E63652E7374617465006669726D7723
:1002D0006172652E696E6F0029003D00202800299B
:1002E00020003D00206173736572742028006661F0
:1002F000696C0070617373003A313A20003A00541F
:100300006573743A3A444F4E455F534B4950002150
:100310003D00746573745F736B6970735F696E73AE
:1003200074616E63652E7374617465006669726DC5
:10033000776172652E696E6F00546573743A3A4442
:100340004F4E455F534B495000213D007465737417
:100350005F6661696C735F696E7374616E63652E4D
:100360007374617465006669726D776172652E6978
:100370006E6F00546573743A3A444F4E455F534B69
:10038000495000213D00746573745F70617373653B
:10039000735F696E7374616E63652E7374617465E7
:1003A000006669726D776172652E696E6F005465C3
:1003B00073743A3A444F4E455F534B4950003D3DAC
:1003C00000746573745F736B6970735F696E7374C7
:1003D000616E63652E7374617465006669726D7712
:1003E0006172652E696E6F00546573743A3A444FBA
:1003F0004E455F534B4950003D3D00746573745F3B
:100400006661696C735F696E7374616E63652E7388
:1004100074617465006669726D776172652E696ECC
:100420006F00546573743A3A444F4E455F534B49DD
:1004300050003D3D00746573745F70617373657344
:100440005F696E7374616E63652E737461746500A9
:100450006669726D776172652E696E6F005465739F
:10046000743A3A444F4E455F4641494C00213D00A5
:10047000746573745F736B6970735F696E737461B5
:100480006E63652E7374617465006669726D776161
:1004900072652E696E6F00546573743A3A444F4E1C
:1004A000455F4641494C00213D00746573745F66A9
:1004B00061696C735F696E7374616E63652E7374CA
:1004C000617465006669726D776172652E696E6F21
:1004D00000546573743A3A444F4E455F4641494C67
:1004E00000213D00746573745F7061737365735FA1
:1004F000696E7374616E63652E73746174650066F2
:1005000069726D776172652E696E6F0054657374E0
:100510003A3A444F4E455F4641494C003D3D0074D8
:100520006573745F736B6970735F696E7374616E0A
:1005300063652E7374617465006669726D776172AC
:10054000652E696E6F00546573743A3A444F4E4598
:100550005F4641494C003D3D00746573745F6661C0
:10056000696C735F696E7374616E63652E73746119
:100570007465006669726D776172652E696E6F00D1
:10058000546573743A3A444F4E455F4641494C00B6
:100590003D3D00746573745F7061737365735F696B
:1005A0006E7374616E63652E737461746500666941
:1005B000726D776172652E696E6F00546573743A5F
:1005C0003A444F4E455F5041535300213D007465FE
:1005D00073745F736B6970735F696E7374616E635C
:1005E000652E7374617465006669726D77617265FA
:1005F0002E696E6F00546573743A3A444F4E455FEE
:100600005041535300213D00746573745F66616906
:100610006C735F696E7374616E63652E737461745D
:1006200065006669726D776172652E696E6F005440
:100630006573743A3A444F4E455F5041535300211D
:100640003D00746573745F7061737365735F696E89
:100650007374616E63652E7374617465006669728C
:100660006D776172652E696E6F00546573743A3AE6
:10067000444F4E455F50415353003D3D00746573F8
:10068000745F736B6970735F696E7374616E6365B9
:100690002E7374617465006669726D776172652E80
:1006A000696E6F00546573743A3A444F4E455F501B
:1006B000415353003D3D00746573745F6661696C1E
:1006C000735F696E7374616E63652E7374617465B4
:1006D000006669726D776172652E696E6F00546590
:1006E00073743A3A444F4E455F50415353003D3D79
:1006F00000746573745F7061737365735F696E73A3
:1007000074616E63652E7374617465006669726DE1
:10071000776172652E696E6F00546573743A3A445E
:100720004F4E455F534B4950003C00746573745FF6
:10073000736B6970735F696E7374616E63652E733A
:1007400074617465006669726D776172652E696E99
:100750006F00546573743A3A444F4E455F534B49AA
:1007600050003C00746573745F6661696C735F6907
:100770006E7374616E63652E73746174650066696F
:10078000726D776172652E696E6F00546573743A8D
:100790003A444F4E455F534B4950003C00746573DB
:1007A000745F7061737365735F696E7374616E6398
:1007B000652E7374617465006669726D7761726528
:1007C0002E696E6F00546573743A3A444F4E455F1C
:1007D000534B4950003E3D00746573745F736B6901
:1007E00070735F696E7374616E63652E7374617488
:1007F00065006669726D776172652E696E6F00546F
:100800006573743A3A444F4E455F534B4950003E2E
:100810003D00746573745F6661696C735F696E73C4
:1008200074616E63652E7374617465006669726DC0
:10083000776172652E696E6F00546573743A3A443D
:100840004F4E455F534B4950003E3D0074657374F5
:100850005F7061737365735F696E7374616E6365F6
:100860002E7374617465006669726D776172652EAE
:10087000696E6F0079003E0078006669726D77617D
:1008800072652E696E6F0079003E3D0078006669E2
:10089000726D776172652E696E6F007900213D007F
:1008A00078006669726D776172652E696E6F007986
:1008B000003D3D0078006669726D776172652E6952
:1008C0006E6F0079003C3D0078006669726D77615B
:1008D00072652E696E6F0079003C0078006669725F
:1008E0006D776172652E696E6F0029003D002028CA
:1008F000002920003D002061737365727420280078
:100900006661696C0070617373003A313A20003A95
:100910000079003E0078006669726D776172652E1D
:10092000696E6F0079003E3D0078006669726D77F0
:100930006172652E696E6F007900213D0078006656
:1009400069726D776172652E696E6F0079003D3D49
:100950000078006669726D776172652E696E6F004E
:1009600079003C3D0078006669726D776172652E92
:10097000696E6F0079003C0078006669726D77617E
:1009800072652E696E6F0029003D00202800292025
:10099000003D0020617373657274202800666169F0
:1009A0006C0070617373003A313A20003A0030787D
:1009B00030003D3D0078006669726D776172652E8A
:1009C000696E6F00307831003D3D007800666972D5
:1009D0006D776172652E696E6F0008200800636F85
:1009E0006D6D616E643E2000202072756E002020C7
:1009F0006D61785F766572626F73697479203C62AD
:100A0000696E617279206E756D6265723E0020209C
:100A10006D696E5F766572626F73697479203C628E
:100A2000696E617279206E756D6265723E0020207C
:100A30006578636C756465203C7061747465726E72
:100A40003E002020696E636C756465203C706174A3
:100A50007465726E3E00696E746572616374697666
:100A6000652074657374657220636F6D6D616E646B
:100A7000733A00546865206F766572616C6C2074FF
:100A80006573742073686F756C6420706173732E66
:100A90002E2E0020746573742873292E0020736B2A
:100AA00069707065642C206F7574206F662000205B
:100AB0006661696C65642C20616E64200020706141
:100AC000737365642C2000746573742073756D6D89
:100AD0006172793A2000206661696C65642E00209D
:100AE0007061737365642E0020736B697070656448
:100AF0002E00746573742000E509CA1DDE091124F7
:100B00001FBECFEFD1E2DEBFCDBF00E00CBF12E0D1
:100B1000A0E0B2E0E8E5F3E400E00BBF02C007901C
:100B20000D92AC3FB107D9F71BBE16E0ACEFB2E0B7
:100B300001C01D92A137B107E1F71AE0CCEFDAE06E
:100B400004C02297FE010E949B21C83FD107C9F72C
:100B50000E9417150C94B0060C940000CF93DF93FD
:100B6000BC018230910510F462E070E0A0916F0644
:100B7000B0917006ED01E0E0F0E040E050E021C00F
:100B8000888199818617970769F48A819B813097BC
:100B900019F09383828304C09093700680936F064C
:100BA000FE0134C06817790738F44115510519F072
:100BB0008417950708F4AC01FE018A819B819C0192
:100BC000E9012097E9F641155105A9F1CA01861BF3
:100BD000970B049708F4BA01E0E0F0E02AC08D9189
:100BE0009C91119784179507F9F46417750781F4A0
:100BF00012968D919C911397309719F0938382836D
:100C000004C09093700680936F06FD0132964CC02D
:100C1000CA01861B970BFD01E80FF91F61937193C1
:100C200002978D939C9340C0FD01828193819C012A
:100C3000D9011097A1F680916D0690916E06892BCF
:100C400041F480914F029091500290936E068093F0
:100C50006D0640915102509152024115510541F4E7
:100C60004DB75EB780914D0290914E02481B590BD3
:100C700020916D0630916E06CA01821B930B861778
:100C8000970780F0AB014E5F5F4F8417950750F0D8
:100C9000420F531F50936E0640936D06F901619306
:100CA000719302C0E0E0F0E0CF01DF91CF910895B1
:100CB000CF93DF93009709F450C0EC0122971B8279
:100CC0001A82A0916F06B0917006109709F140E06A
:100CD00050E0AC17BD0708F1BB83AA83FE01219148
:100CE0003191E20FF31FAE17BF0779F48D919C91FC
:100CF0001197280F391F2E5F3F4F39832883129693
:100D00008D919C9113979B838A834115510571F4B2
:100D1000D0937006C0936F0620C012968D919C915F
:100D20001397AD01009711F0DC01D3CFFA01D38303
:100D3000C28321913191E20FF31FCE17DF0769F4CF
:100D400088819981280F391F2E5F3F4FFA01318327
:100D500020838A819B8193838283DF91CF91089541
:100D6000F8940C949F21FB01DC0102C005900D92C8
:100D700041505040D8F70895FC0105900020E9F754
:100D8000809590958E0F9F1F0895FB01DC0102C096
:100D900001900D9241505040D8F70895DC0101C0F8
:100DA0006D9341505040E0F70895FB01DC018D91B7
:100DB000019080190110D9F3990B0895FB01DC0112
:100DC0004150504030F08D910190801919F400206D
:100DD000B9F7881B990B089542305105F1F0433063
:100DE00051053CF44115510571F04130510551F563
:100DF0000FC044305105D9F0443051059CF04530C6
:100E0000510501F519C020E086179707E4F418C0D2
:100E100020E068177907BCF013C020E08617970719
:100E200091F40EC020E08617970751F40CC020E023
:100E30008617970744F004C020E0681779071CF470
:100E400021E001C00895822F08956330710509F4EF
:100E500066C06430710554F46130710589F1623007
:100E600071050CF046C0672B91F0CCC06530710560
:100E700009F481C0653071050CF467C066307105F6
:100E800009F48FC06730710509F0BCC0A2C0813081
:100E9000910549F08230910551F0009789F420E0E6
:100EA0009091500307C020E090915C0303C020E0C4
:100EB000909168038091C902981708F4A4C0A0C05B
:100EC0008130910549F08230910579F0009789F4DD
:100ED00020E09091500303C020E090915C0380914A
:100EE000C902981708F08FC08BC020E0909168036A
:100EF000F6CF8130910549F08230910551F000978D
:100F000071F420E09091500307C020E090915C03C1
:100F100003C020E0909168038091CA0257C08130DD
:100F2000910549F08230910551F0009771F420E06D
:100F30009091500307C020E090915C0303C020E033
:100F4000909168038091CA0259C08130910549F09F
:100F50008230910551F0009771F420E09091500398
:100F600007C020E090915C0303C020E090916803EB
:100F70008091CB022BC08130910549F082309105E0
:100F800051F0009771F420E09091500307C020E0E9
:100F900090915C0303C020E0909168038091CB02A4
:100FA0002DC08130910549F08230910551F00097B4
:100FB00081F420E09091500307C020E090915C0301
:100FC00003C020E0909168038091C9029817D9F47A
:100FD00017C08130910549F08230910551F0892B7D
:100FE00089F420E09091500307C020E090915C03C9
:100FF00003C020E0909168038091C902981719F00E
:1010000021E001C020E0822F0895FC01DB0140E0D7
:10101000208131818D919C912817390709F441E095
:10102000842F0895FC01DB0140E0208131818D9106
:101030009C91281739070CF441E0842F0895DC01B6
:10104000FB0140E0208131818D919C912817390767
:101050000CF041E0842F0895FC01DB0140E0208189
:1010600031818D919C912817390709F041E0842F37
:101070000895FC01DB0140E0208131818D919C913C
:10108000281739070CF041E0842F0895DC01FB019B
:1010900040E0208131818D919C91281739070CF413
:1010A00041E0842F0895FC01DB0120E090818C91C8
:1010B000981708F021E0822F0895FC01DB0120E061
:1010C00090818C91981708F421E0822F0895FC01FB
:1010D000DB0120E090818C91981709F421E0822FA8
:1010E0000895FC01DB0120E090818C91981321E0B0
:1010F000822F0895FC0180EC92E091838083CF01E0
:101100000E9433150895FC0184EB92E09183808363
:10111000CF010E9433150895FC0188EA92E0918383
:101120008083CF010E9433150895FC0180ED92E089
:1011300091838083CF010E9433150895FC0180EDD7
:1011400092E091838083CF010E9433150895FC01C2
:1011500080ED92E091838083CF010E943315089542
:10116000FC0182E792E091838083CF010E943315D6
:101170000895FC0186E692E091838083CF010E946E
:10118000331508950F931F938C0180EC92E0F801C2
:1011900091838083C8010E943315C8010E94011FFA
:1011A0001F910F9108950F931F938C0184EB92E090
:1011B000F80191838083C8010E943315C8010E9401
:1011C000011F1F910F9108950F931F938C0188EABF
:1011D00092E0F80191838083C8010E943315C80111
:1011E0000E94011F1F910F9108950F931F938C016F
:1011F00080ED92E0F80191838083C8010E9433154D
:10120000C8010E94011F1F910F9108950F931F9312
:101210008C0180ED92E0F80191838083C8010E94E7
:101220003315C8010E94011F1F910F9108950F935C
:101230001F938C0180ED92E0F80191838083C801B7
:101240000E943315C8010E94011F1F910F9108953C
:101250000F931F938C0182E792E0F80191838083C2
:10126000C8010E943315C8010E94011F1F910F91F0
:1012700008950F931F938C0186E692E0F801918305
:101280008083C8010E943315C8010E94011F1F916D
:101290000F9108958130910509F06AC06F5F7F4F0B
:1012A00009F08BC08CE493E064EE70E04FE10E94A3
:1012B0002F1A80EC92E090934D0380934C0388E5C5
:1012C00093E06BEE70E04FE10E942F1A84EB92E006
:1012D000909359038093580384E693E061EF70E0A4
:1012E0004FE10E942F1A88EA92E090936503809361
:1012F000640380E793E067EF70E00E94461A8AE992
:1013000092E090937103809370038CE793E064E024
:1013100071E00E94461A8CE892E090937D038093DE
:101320007C0388E893E060E171E00E94461A8EE752
:1013300092E0909389038093880384E993E06FE1BE
:1013400071E04FE10E942F1A82E792E0909395039B
:101350008093940380EA93E064E271E04FE10E949D
:101360002F1A86E692E09093A1038093A00308953C
:10137000892B19F56F5F7F4F01F580EA93E00E949A
:10138000B90884E993E00E94B00888E893E00E94DD
:10139000A7088CE793E00E949E0880E793E00E94F4
:1013A000950884E693E00E948C0888E593E00E940B
:1013B00083088CE493E00E947A08089580E090E02E
:1013C0006FEF7FEF0E944A09089581E090E06FEF90
:1013D0007FEF0E944A0908954F925F926F927F9229
:1013E0008F929F92AF92BF92CF92DF92EF92FF9235
:1013F0000F931F93CF93DF93EC014B012A01390127
:10140000F701C901B5011995F82E882349F4809197
:10141000B2039091B3030097B1F00E942A1513C054
:1014200080915E0285FFADC080915F0285FD1DC089
:10143000E091B203F091B303309709F4A2C0858123
:1014400085FD13C09EC080915E0284FF9AC080918A
:101450005F0284FD0AC0E091B203F091B3033097BC
:1014600009F48FC0858184FF8CC0809160029091C7
:101470006102BE010E942E1F809160029091610264
:101480006DEF72E00E942E1F8091600290916102C8
:10149000B4014AE050E00E942720809160029091C0
:1014A000610268EF72E00E942E1F809160029091AD
:1014B0006102FF2019F063EF72E002C06EEE72E08D
:1014C0000E942E1F809160029091610264EE72E092
:1014D0000E942E1F8091600290916102B2010E94D1
:1014E0002E1F809160029091610262EE72E00E9474
:1014F0002E1F8091600290916102F30160814AE0A9
:1015000050E00E94382080916002909161026FED5E
:1015100072E00E942E1F8091600290916102B801DA
:101520000E942E1F80916002909161026CED72E02A
:101530000E942E1F8091600290916102B6010E946C
:101540002E1F80916002909161026AED72E00E940C
:101550002E1F8091600290916102F50160814AE046
:1015600050E00E943820809160029091610268ED05
:1015700072E00E942E1F80916002909161020E9491
:10158000641F8F2DDF91CF911F910F91FF90EF90EE
:10159000DF90CF90BF90AF909F908F907F906F9093
:1015A0005F904F9008959F92AF92BF92CF92DF923B
:1015B000EF92FF920F931F93CF93DF93EC018091F3
:1015C000BA039091BB032091B6033091B703820F09
:1015D000931F01962091B8033091B903820F931F96
:1015E0002091B4033091B5038217930709F0D4C05A
:1015F0009090C902809150038915D9F08BEC92E04C
:101600006BE871E040EB52E020E533E00DEA12E0D8
:10161000B7E6EB2EB8E0FB2EADE9CA2EA2E0DA2E3B
:10162000FAECAF2EF2E0BF2E0E94EC09882309F4F9
:10163000B3C080915C038915D9F080E992E06CE831
:1016400071E046E752E02CE533E003E712E0E7E61D
:10165000EE2EE8E0FE2EB3E6CB2EB2E0DB2EABECB6
:10166000AA2EA2E0BA2E0E94EC09882309F494C0A5
:1016700086E592E06DE871E04CE352E028E633E065
:1016800009E312E0F7E6EF2EF8E0FF2EE9E2CE2EB6
:10169000E2E0DE2EB9ECAB2EB2E0BB2E0E94EC09EC
:1016A000882309F479C0809174038915B9F08CE11D
:1016B00092E06EE871E04BEF51E024E733E008EF91
:1016C00011E0A8EECA2EA1E0DA2EFAECAF2EF2E07D
:1016D000BF2E0E94EC09882309F45EC0809180032C
:1016E0008915D9F08BED91E06FE871E04BEB51E09B
:1016F00020E833E008EB11E0E7E6EE2EE8E0FE2E0E
:10170000B8EACB2EB1E0DB2EAAECAA2EA2E0BA2ECC
:101710000E94EC09882309F43FC080918C0389154D
:10172000D1F08BE991E060E971E048E751E02CE805
:1017300033E005E711E0F7E6EF2EF8E0FF2EE5E6EF
:10174000CE2EE1E0DE2EBAECAB2EB2E0BB2E0E9434
:10175000EC09882309F1809198038915D1F088E577
:1017600091E061E971E04FE351E028E933E00CE3F7
:1017700011E0A7E6EA2EA8E0FA2EFCE2CF2EF1E077
:10178000DF2EEAECAE2EE2E0BE2E0E94EC098823AA
:1017900019F0CE010E942615DF91CF911F910F9174
:1017A000FF90EF90DF90CF90BF90AF909F90089503
:1017B000AF92BF92CF92DF92EF92FF920F931F935F
:1017C0006330710509F4E2C0643071055CF4613086
:1017D000710509F459C0623071050CF096C0672B91
:1017E00091F026C26530710509F456C16530710566
:1017F0000CF411C16630710509F493C167307105AD
:1018000009F016C2CFC181309105C1F08230910537
:1018100041F10097C9F587E698E060E471E04CE497
:1018200058E020E533E009E418E0A3E5EA2EA8E05B
:10183000FA2EF9E3CF2EF8E0DF2EF4C18CE298E027
:1018400061E471E042E158E02CE533E00FE018E09C
:10185000E3E5EE2EE8E0FE2EBFEFCB2EB7E0DB2E69
:10186000E1C182EF97E062E471E048ED57E028E6DD
:1018700033E005ED17E0A3E5EA2EA8E0FA2EF5EC3B
:10188000CF2EF7E0DF2ECEC181309105C1F082303E
:10189000910541F10097C9F588EB97E066E471E0A6
:1018A0004DE957E020E533E00BE917E0EDE5EE2EDA
:1018B000E8E0FE2EBBE8CB2EB7E0DB2EB3C18EE70F
:1018C00097E067E471E044E657E02CE533E002E698
:1018D00017E0ADE5EA2EA8E0FA2EF2E5CF2EF7E00C
:1018E000DF2EA0C185E497E068E471E04BE257E0A9
:1018F00028E633E009E217E0EDE5EE2EE8E0FE2E03
:10190000B9E1CB2EB7E0DB2E8DC181309105C1F05E
:101910008230910541F10097C9F58CE097E06CE4C5
:1019200071E041EF56E020E533E00EEE16E0A7E669
:10193000EA2EA8E0FA2EFEEDCF2EF6E0DF2E66C0EE
:1019400081ED96E06DE471E047EB56E02CE533E085
:1019500004EB16E0E7E6EE2EE8E0FE2EB4EACB2E2E
:10196000B6E0DB2E53C087E996E06EE471E04DE708
:1019700056E028E633E00AE716E0A7E6EA2EA8E0FC
:10198000FA2EFAE6CF2EF6E0DF2E40C08130910528
:10199000C1F08230910541F10097E9F58DE596E0BF
:1019A00062E571E042E456E020E533E00FE316E043
:1019B000E1E7EE2EE8E0FE2EBFE2CB2EB6E0DB2E16
:1019C00025C082E296E063E571E048E056E02CE550
:1019D00033E005E016E0A1E7EA2EA8E0FA2EF5EFE5
:1019E000CF2EF5E0DF2E12C088EE95E064E571E0C1
:1019F0004EEC55E028E633E00BEC15E0E1E7EE2E87
:101A0000E8E0FE2EBBEBCB2EB5E0DB2EAAECAA2E37
:101A1000A2E0BA2E0BC181309105C1F08230910550
:101A200041F10097C9F58EEA95E068E571E043E978
:101A300055E020E533E000E915E0F7E6EF2EF8E0A9
:101A4000FF2EE0E8CE2EE5E0DE2E66C083E795E0CF
:101A500069E571E049E555E02CE533E006E515E080
:101A6000B7E6EB2EB8E0FB2EA6E4CA2EA5E0DA2EF0
:101A700053C089E395E06AE571E04FE155E028E65F
:101A800033E00CE115E0F7E6EF2EF8E0FF2EECE096
:101A9000CE2EE5E0DE2E40C081309105C1F08230CF
:101AA000910541F10097E9F58FEF94E06EE571E063
:101AB00044EE54E020E533E001EE14E0B1E7EB2E14
:101AC000B8E0FB2EA1EDCA2EA4E0DA2E25C084ECEE
:101AD00094E06FE571E04AEA54E02CE533E007EA70
:101AE00014E0F1E7EF2EF8E0FF2EE7E9CE2EE4E078
:101AF000DE2E12C08AE894E060E671E040E754E030
:101B000028E633E00DE614E0B1E7EB2EB8E0FB2E5B
:101B1000ADE5CA2EA4E0DA2EFBECAF2EF2E0BF2E2C
:101B200085C081309105C1F08230910541F1009767
:101B3000C9F580E594E064E671E045E354E020E512
:101B400033E002E314E0E7E6EE2EE8E0FE2EB2E238
:101B5000CB2EB4E0DB2E66C085E194E065E671E053
:101B60004BEF53E02CE533E008EF13E0A7E6EA2E55
:101B7000A8E0FA2EF8EECF2EF3E0DF2E53C08BED67
:101B800093E066E671E041EC53E028E633E00EEBCB
:101B900013E0E7E6EE2EE8E0FE2EBEEACB2EB3E041
:101BA000DB2E40C081309105C1F08230910541F1BA
:101BB000892BF1F581EA93E06AE671E046E853E0AB
:101BC00020E533E003E813E0A1E7EA2EA8E0FA2ECF
:101BD000F3E7CF2EF3E0DF2E25C086E693E06BE639
:101BE00071E04CE453E02CE533E009E413E0E1E775
:101BF000EE2EE8E0FE2EB9E3CB2EB3E0DB2E12C0D2
:101C00008CE293E06CE671E042E153E028E633E0D9
:101C10000FE013E0A1E7EA2EA8E0FA2EFFEFCF2EA7
:101C2000F2E0DF2EE9ECAE2EE2E0BE2E0E94EC09DF
:101C30001F910F91FF90EF90DF90CF90BF90AF90EA
:101C40000895CF92DF92EF92FF920F931F93CF935D
:101C5000DF937C010E94E8202091AC033091AD031A
:101C60004091AE035091AF03621773078407950745
:101C700008F448C00E94E8206C507E4F8F4F9F4F61
:101C80006093AC037093AD038093AE039093AF0366
:101C9000D090C802C090CB0200E010E020C0C80184
:101CA000BE010E94D80BC801BE010E942507F701A2
:101CB0009481882319F09D1539F002C09C1521F0FC
:101CC000C7010E942A151EC0F701D4822196C83090
:101CD000D10529F70F5F1F4F0330110519F0C0E040
:101CE000D0E0DDCF8091AC039091AD03A091AE0325
:101CF000B091AF03805D9740A040B04018F0C7019D
:101D00000E942615DF91CF911F910F91FF90EF90C8
:101D1000DF90CF900895CF93DF93EC010E94E820ED
:101D2000695E73408040904018F0CE010E942A15F1
:101D3000DF91CF910895CF93DF93EC010E94E820CB
:101D4000695E73408040904018F0CE010E942615D5
:101D5000DF91CF9108954F925F926F927F928F9211
:101D60009F92AF92BF92CF92DF92EF92FF920F932A
:101D70001F93CF93DF93EC013B012A014901F70147
:101D8000C901B5011995F82E882349F48091B20351
:101D90009091B3030097B1F00E942A1513C080916F
:101DA0005E0285FFABC080915F0285FD1DC0E091A2
:101DB000B203F091B303309709F4A0C0858185FD8B
:101DC00013C09CC080915E0284FF98C080915F0226
:101DD00084FD0AC0E091B203F091B303309709F497
:101DE0008DC0858184FF8AC08091600290916102DC
:101DF000BE010E942E1F80916002909161026FE0EF
:101E000079E00E942E1F8091600290916102B301DF
:101E10004AE050E00E942720809160029091610288
:101E20006AE079E00E942E1F809160029091610229
:101E3000FF2019F065E079E002C060E079E00E94DF
:101E40002E1F809160029091610266EF78E00E94FF
:101E50002E1F8091600290916102B2010E942E1F9C
:101E6000809160029091610264EF78E00E942E1FE1
:101E7000F4016081718180916002909161020E9401
:101E80009D20809160029091610261EF78E00E9454
:101E90002E1F8091600290916102B8010E942E1F56
:101EA00080916002909161026EEE78E00E942E1F98
:101EB0008091600290916102B6010E942E1F809174
:101EC0006002909161026CEE78E00E942E1FF50195
:101ED0006081718180916002909161020E949D20D9
:101EE00080916002909161026AEE78E00E942E1F5C
:101EF00080916002909161020E94641F8F2DDF919A
:101F0000CF911F910F91FF90EF90DF90CF90BF90F6
:101F1000AF909F908F907F906F905F904F900895BB
:101F2000AF92BF92CF92DF92EF92FF920F931F93E7
:101F3000DF93CF9300D00F92CDB7DEB79A8389831A
:101F40007C836B834230510509F440C04330510516
:101F500044F44115510591F04130510509F08CC010
:101F600021C04430510509F459C0443051050CF4E6
:101F700041C04530510509F07FC064C08DED98E047
:101F800068EE70E04BED58E09E012F5F3F4F09ED8A
:101F900018E0B9E3EB2EB6E1FB2EA7EDCA2EA8E0C0
:101FA000DA2E63C08AEC98E069EE70E048EC58E005
:101FB0009E012F5F3F4F05EC18E0FAE2EF2EF6E1AD
:101FC000FF2EE3ECCE2EE8E0DE2E4FC086EB98E04D
:101FD0006AEE70E044EB58E09E012F5F3F4F01EB4B
:101FE00018E0BCE1EB2EB6E1FB2EAFEACA2EA8E06A
:101FF000DA2E3BC082EA98E06BEE70E040EA58E0EF
:102000009E012F5F3F4F0DE918E0FEE0EF2EF6E155
:10201000FF2EEBE9CE2EE8E0DE2E27C08EE898E01A
:102020006CEE70E04CE858E09E012F5F3F4F09E8EE
:1020300018E0BFEFEB2EB5E1FB2EA7E8CA2EA8E013
:10204000DA2E13C08AE798E06DEE70E048E758E0BA
:102050009E012F5F3F4F06E718E0F0EFEF2EF5E10E
:10206000FF2EE4E7CE2EE8E0DE2EB3E0AB2EB12C5F
:10207000AC0EBD1E0E94AB0E0F900F900F900F90F4
:10208000CF91DF911F910F91FF90EF90DF90CF9054
:10209000BF90AF9008954230510501F14330510592
:1020A0003CF44115510571F041305105B1F50EC0B8
:1020B0004430510509F144305105BCF0453051051B
:1020C00061F522C00E94D506892F1AC00E94D5064C
:1020D0009C0180E01216130604F11DC00E94D50673
:1020E0009C0180E0232BC9F416C00E94D5069C01F8
:1020F00080E0232B91F00FC00E94D506892F809598
:10210000881F8827881F08950E94D5069C0180E0BB
:102110001216130614F481E008950895AF92BF9249
:10212000CF92DF92EF92FF920F931F93CF93DF93A3
:102130006C01B090C802A090CB02EE24FF2434C002
:10214000F80180819181A7010E94900F68817981B7
:10215000F80180819181A7010E944B10F6019481C2
:10216000882319F09B1539F002C09A1521F0C60199
:102170000E942A151CC0F601B482229668817981DA
:1021800061157105E9F60E5F1F4FF801808191819D
:10219000892B19F0C4E5D2E0F1CF0894E11CF11CC1
:1021A000F6E0EF16F10419F004E512E0EECFDF914E
:1021B000CF911F910F91FF90EF90DF90CF90BF9044
:1021C000AF9008954F925F926F927F928F929F92FD
:1021D000AF92BF92CF92DF92EF92FF920F931F9335
:1021E000CF93DF93EC013B012A014901F701C901BB
:1021F000B5011995F82E882349F48091B203909186
:10220000B3030097B1F00E942A1513C080915E02BB
:1022100085FFAFC080915F0285FD1DC0E091B203D4
:10222000F091B303309709F4A4C0858185FD13C0F4
:10223000A0C080915E0284FF9CC080915F0284FDFB
:102240000AC0E091B203F091B303309709F491C052
:10225000858184FF8EC08091600290916102BE01F1
:102260000E942E1F80916002909161026CEA79E0D9
:102270000E942E1F8091600290916102B3014AE09A
:1022800050E00E942720809160029091610267EAED
:1022900079E00E942E1F8091600290916102FF20E0
:1022A00019F062EA79E002C06DE979E00E942E1F20
:1022B000809160029091610263E979E00E942E1F93
:1022C0008091600290916102B2010E942E1F809164
:1022D00060029091610261E979E00E942E1FF40191
:1022E0006081718180916002909161024AE050E0CA
:1022F0000E948A2080916002909161026EE879E0EC
:102300000E942E1F8091600290916102B8010E948C
:102310002E1F80916002909161026BE879E00E942B
:102320002E1F8091600290916102B6010E942E1FC3
:10233000809160029091610269E879E00E942E1F0D
:10234000F5016081718180916002909161024AE0A3
:1023500050E00E948A20809160029091610267E8BB
:1023600079E00E942E1F80916002909161020E948C
:10237000641F8F2DDF91CF911F910F91FF90EF90F0
:10238000DF90CF90BF90AF909F908F907F906F9095
:102390005F904F900895AF92BF92CF92DF92EF92ED
:1023A000FF920F931F93DF93CF9300D00F92CDB77F
:1023B000DEB79A8389837C836B834230510509F4AD
:1023C00040C04330510544F44115510591F041306E
:1023D000510509F08CC021C04430510509F459C0A1
:1023E000443051050CF441C04530510509F07FC01F
:1023F00064C08AE799E06AEB70E048E759E09E0123
:102400002F5F3F4F06E719E0E2E1EE2EE8E0FE2EF7
:10241000B4E7CB2EB9E0DB2E63C087E699E06BEB27
:1024200070E045E659E09E012F5F3F4F02E619E05C
:10243000AFE1EA2EA8E0FA2EF0E6CF2EF9E0DF2E8B
:102440004FC083E599E06CEB70E041E559E09E01F7
:102450002F5F3F4F0EE419E0E5E0EE2EE8E0FE2EA0
:10246000BCE4CB2EB9E0DB2E3BC08FE399E06DEBF3
:1024700070E04DE359E09E012F5F3F4F0AE319E002
:10248000ACE2EA2EA8E0FA2EF8E3CF2EF9E0DF2E38
:1024900027C08BE299E06EEB70E049E259E09E01C3
:1024A0002F5F3F4F06E219E0E9E3EE2EE8E0FE2E53
:1024B000B4E2CB2EB9E0DB2E13C087E199E06FEBDD
:1024C00070E045E159E09E012F5F3F4F03E119E0C5
:1024D000A6E4EA2EA8E0FA2EF1E1CF2EF9E0DF2EF5
:1024E000E3E0AE2EB12CAC0EBD1E0E94E2100F90A8
:1024F0000F900F900F90CF91DF911F910F91FF9050
:10250000EF90DF90CF90BF90AF900895AF92BF92C1
:10251000CF92DF92EF92FF920F931F93CF93DF93AF
:102520006C01B090C802A090CB02EE24FF242CC016
:10253000C801BE01A7010E94CB11C801BE01A701BD
:102540000E94EC06F6019481882319F09B1539F05E
:1025500002C09A1521F0C6010E942A1518C0F60182
:10256000B4822196C230D10519F70F5F1F4F023098
:10257000110519F0CFEFDFEFDBCF0894E11CF11C60
:10258000F6E0EF16F10419F00FEF1FEFF3CFDF9134
:10259000CF911F910F91FF90EF90DF90CF90BF9060
:1025A000AF900895AF92BF92CF92DF92EF92FF92D9
:1025B0000F931F93DF93CF93CDB7DEB728970FB656
:1025C000F894DEBF0FBECDBF6115710521F06130FB
:1025D0007105E1F51DC089831A8281E090E09C833A
:1025E0008B838DEC99E064E970E04BEC59E09E013F
:1025F0002F5F3F4F08EC19E0A5E0EA2EA8E0FA2E85
:10260000F4ECCF2EF9E0DF2EE3E0AE2EB12C1AC0B1
:102610008D831E8218861F8287EB99E065E970E042
:1026200045EB59E09E012B5F3F4F02EB19E0B5E00F
:10263000EB2EB8E0FB2EAEEACA2EA9E0DA2EF7E0C8
:10264000AF2EB12CAC0EBD1E0E94E21028960FB624
:10265000F894DEBF0FBECDBFCF91DF911F910F91D8
:10266000FF90EF90DF90CF90BF90AF9008959F9232
:10267000AF92BF92CF92DF92EF92FF920F931F9390
:10268000CF93DF936C01B090C802A090CB02C0E062
:10269000D0E0992493942CC0012F10E0E114F104B0
:1026A00009F011E0812FBE010E94D212209731F073
:1026B000C130D10511F0102F01C01925F601848118
:1026C000112319F08B1539F002C08A1521F0C601CB
:1026D0000E942A1511C0F601B4820894E11CF11C75
:1026E000F2E0EF16F104C1F62196C230D10521F0D7
:1026F000012FEE24FF24D1CFDF91CF911F910F91B5
:10270000FF90EF90DF90CF90BF90AF909F90089593
:10271000CF93DF93EC010E94E820695E7340804014
:10272000904018F0CE010E942E15DF91CF910895B0
:10273000CF93DF93BC01EC0109900020E9F72197CA
:10274000C81BD90B8CEF92E0AE010E94DE06009709
:1027500011F080E009C0C450DD4F4881403219F0CB
:1027600080E0442309F481E0DF91CF91089580E077
:1027700092E00E9498138823E9F020E030E002C044
:102780002F5F3F4FF901E450FD4FE081E03221F42B
:10279000F901E450FD4F05C0EE2391F7F9CF2F5F0B
:1027A0003F4F81918032D9F3C90184509D4F0E94DF
:1027B0007C19089588E092E00E9498138823E9F03C
:1027C00020E030E002C02F5F3F4FF901E450FD4FA1
:1027D000E081E03221F4F901E450FD4F05C0EE2321
:1027E00091F7F9CF2F5F3F4F81918032D9F3C90123
:1027F00084509D4F0E945A19089580E192E00E94F2
:102800009813882381F120E030E002C02F5F3F4F12
:10281000F901E450FD4FE081E03221F4F901E45088
:10282000FD4F05C0EE2391F7F9CF2F5F3F4F819108
:102830008032D9F3F901E450FD4F20E030E00BC0C5
:10284000220F331F80E090E0413311F481E090E0EB
:10285000280F391F31964081842F8053823080F3B6
:1028600020935E0208958EE192E00E9498138823DF
:1028700081F120E030E002C02F5F3F4FF901E450CA
:10288000FD4FE081E03221F4F901E450FD4F05C035
:10289000EE2391F7F9CF2F5F3F4F81918032D9F32B
:1028A000F901E450FD4F20E030E00BC0220F331F50
:1028B00080E090E0413311F481E090E0280F391F6F
:1028C00031964081842F8053823080F320935F02C1
:1028D00008958CE292E00E949813882319F01092D8
:1028E000530208958CED95E060E372E00E949D2014
:1028F0008CED95E06CEF72E00E949D208CED95E0F0
:1029000063E472E00E949D208CED95E00E94641FBC
:1029100008950F931F93CF93DF938CED95E06EEDA9
:1029200079E00E942E1F00E010E08CED95E00E94FF
:10293000201D892BD1F38CED95E00E94511DEC01F7
:102940001816190694F78F37910561F401151105D2
:1029500061F38CED95E06AED79E00E942E1F015045
:102960001040E3CF8A30910591F08D30910579F0D8
:102970008CED95E06C2F0E94511F0035110520F45D
:10298000F801E450FD4FC0830F5F1F4FCECFF80119
:102990000035110510F0EFE4F0E0E450FD4F108237
:1029A0008CED95E00E94641FDF91CF911F910F91F4
:1029B00008950F931F930CED15E0C80163E77AE0CB
:1029C0000E94841FC80166E57AE00E94841FC80146
:1029D00062E47AE00E94841FC8016EE27AE00E94FD
:1029E000841FC8016EE07AE00E94841FC8016EEE69
:1029F00079E00E94841FC80168EE79E00E94841F7C
:102A00001F910F9108958CED95E040E855E260E04C
:102A100070E00E94991C0E94D91404C00E9489147D
:102A20000E94B713809153028823C1F70895CF9372
:102A3000DF930E94F6200E940315C4E5DBE10E94AB
:102A40005D172097E1F30E94541BF9CF23E0FC01AE
:102A50002483089524E0FC012483089522E0FC01EE
:102A6000248308950895CF93DF93EC018EED92E0D7
:102A700099838883E091B003F091B103A0EBB3E0B8
:102A80000DC022813381EC17FD0721F42C931196A0
:102A90003C9306C0DF011296C901FC01309789F70B
:102AA000DF91CF910895CF93DF93EC018EED92E00B
:102AB00099838883E091B003F091B103A0EBB3E078
:102AC0000DC022813381EC17FD0721F42C93119660
:102AD0003C9306C0DF011296C901FC01309789F7CB
:102AE000DF91CF910895CF93DF93EC01E881F981D5
:102AF0000084F185E02D19958C81813011F483E0FB
:102B00008C83DF91CF910895CF93DF93EC018EED0D
:102B100092E099838883E091B003F091B103A0EB38
:102B2000B3E00DC0EC17FD0729F4828193818D93EA
:102B30009C9307C0DF0112960280F381E02D30974D
:102B400089F7DF91CF910895CF93DF93DC018EED6C
:102B500092E011969C938E93E091B003F091B103B3
:102B6000C0EBD3E00FC0EA17FB0739F412968D9142
:102B70009C9113979983888307C0EF012296028066
:102B8000F381E02D309779F7CD010E94011FDF918D
:102B9000CF910895CF93DF93DC018EED92E01196F3
:102BA0009C938E93E091B003F091B103C0EBD3E01E
:102BB0000FC0EA17FB0739F412968D919C91139779
:102BC0009983888307C0EF0122960280F381E02D6C
:102BD000309779F7CD010E94011FDF91CF910895C1
:102BE000DC01FB01608171818D919C910E94D50671
:102BF0009C0180E0121613060CF481E00895DC01BC
:102C0000FB01608171818D919C910E94D506292FD5
:102C10002095822F881F8827881F0895DC01FB01DB
:102C2000608171818D919C910E94D5069C0180E00C
:102C3000232B09F081E00895DC01FB0160817181A3
:102C40008D919C910E94D5069C0180E0232B09F474
:102C500081E00895DC01FB01608171818D919C917F
:102C60000E94D5069C0180E0121613060CF081E04C
:102C70000895DC01FB01608171818D919C910E941E
:102C8000D506892F881F8827881F0895FF920F93E4
:102C90001F93CF93DF93EC01E091B203F091B30364
:102CA0008481FF24833011F4FF24F39400E0843006
:102CB00009F401E010E0823009F411E0FF2029F46A
:102CC000002371F41123C1F479C08091B60390916F
:102CD000B70301969093B7038093B603002349F09E
:102CE0008091B8039091B90301969093B9038093B2
:102CF000B803112309F4D4C08091BA039091BB03A7
:102D000001969093BB038093BA0380915E0283FF88
:102D1000C7C080915F0283FD23C0309709F4C0C013
:102D2000858183FD1DC0BCC080915E0282FFBBC057
:102D300080915F0282FD14C0309709F4B4C0858190
:102D400082FD0EC0B0C080915E0281FF37C08091CD
:102D50005F0281FD05C0309789F1858181FF2EC01A
:102D6000809160029091610262EF7AE00E942E1FD2
:102D700026968091600290916102BE010E94591FC7
:102D8000112341F0809160029091610268EE7AE037
:102D90000E94841FFF2041F08091600290916102A7
:102DA0006FED7AE00E94841F002341F08091600261
:102DB0009091610266ED7AE00E94841F8091B003D9
:102DC0009091B103892B09F072C080915E0280FF5F
:102DD0006EC080915F0280FD0AC0E091B203F09165
:102DE000B303309709F463C0858180FF60C0809190
:102DF00060029091610267EC7AE00E942E1F609160
:102E0000B6037091B70380916002909161024AE02D
:102E100050E00E94272080916002909161026DEB4A
:102E20007AE00E942E1F6091B8037091B9038091DF
:102E30006002909161024AE050E00E942720809158
:102E40006002909161026FEA7AE00E942E1F609109
:102E5000BA037091BB0380916002909161024AE0D5
:102E600050E00E94272080916002909161026DE9FC
:102E70007AE00E942E1F6091B4037091B503809197
:102E80006002909161024AE050E00E942720809108
:102E900060029091610263E97AE00E94841F07C09A
:102EA000FF2009F041CF002309F488CF4CCFDF91F8
:102EB000CF911F910F91FF9008951F93CF93DF93B0
:102EC000C0EBD3E011E03AC0B093B303A093B203D8
:102ED00014968C911497813049F4ED91FC911197DF
:102EE0000280F381E02DCD01199512C0882381F471
:102EF000ED91FC9111970190F081E02DCD01199594
:102F0000E091B203F091B3038481882309F4148320
:102F1000E091B203F091B3038481E881F9818130BB
:102F200059F082819381998388838091B203909133
:102F3000B3030E94461602C0EF012296A881B98110
:102F4000109711F6DF91CF911F910895FC01228116
:102F500033814481558157FF05C0CB01B9010E94DF
:102F60002E1F0895CB01B9010E949D200895FC01F8
:102F700082819381A481B581B7FF04C00E94BC0601
:102F8000DC0108C0FC01DC010D900020E9F711977D
:102F9000AE1BBF0BCD010895FC0182819381A481FA
:102FA000B581480F591FB7FF07C0CB01BA01422FA7
:102FB00050E00E94B3060895CB01BA01422F50E0C1
:102FC0000E94C50608952F923F924F925F926F9292
:102FD0007F928F929F92AF92BF92CF92DF92EF92A9
:102FE000FF920F931F93DF93CF93CDB7DEB7619717
:102FF0000FB6F894DEBF0FBECDBF9D878C874B0107
:103000002DB73EB73F872E87DB010D900020E9F7F3
:1030100011973A2F361B39870E94B717782E79857A
:10302000672F70E07B876A87AB014E5F5F4F20E0C0
:10303000CA0187709070892B09F021E033E0559523
:1030400047953A95E1F7322E340E832D90E0ADB7D7
:10305000BEB7A81BB90B0FB6F894BEBF0FBEADBF6D
:103060000DB71EB70F5F1F4FEDB7FEB7E81BF90B8B
:103070000FB6F894FEBF0FBEEDBFEDB6FEB60894D6
:10308000E11CF11C5801C80160E070E0432D50E0E4
:103090000E94CE0681E0D8018C9391E041E050E09F
:1030A00013C0892F869586958695F801E80FF11D46
:1030B00027703070BA0102C0660F771F2A95E2F7B9
:1030C0008081862B80839F5F292F30E0F401E20FFF
:1030D000F31F319780818A3221F3CC24DD24472CE1
:1030E0005524C2010196998B888B272C239491E05B
:1030F000692E712CA9C08601077010700115110589
:1031000091F4888999898C199D09089714F028E011
:1031100002C0222D2C198C859D85BE016F5F7F4FCB
:10312000A6010E94CC17A1E0B0E0AC0FBD1F0A0FB2
:103130001B1FF8011081C70160E070E0432D50E0D3
:103140000E94CE0640E050E061E0FA0183E0F59590
:10315000E7958A95E1F7EA0DFB1D808190E09A01E1
:103160002770307002C0959587952A95E2F780FF09
:103170005CC0F401E40FF51FE081EA3231F5842FE1
:10318000242F269526952695F701E20FF11D8770CD
:10319000930102C0220F331F8A95E2F7C9012081F3
:1031A000282B2083862F869586958695F701E80F34
:1031B000F11D862F8770D30102C0AA0FBB1F8A950D
:1031C000E2F720812A2B208330C0E11771F5862F8A
:1031D000869586958695F701E80FF11D862F8770F5
:1031E000930102C0220F331F8A95E2F7C9012081A3
:1031F000282B2083362F13C03F5F832F869586951B
:103200008695F701E80FF11D832F8770D30102C067
:10321000AA0FBB1F8A95E2F720812A2B2083F40195
:10322000E30FF11D80818A3239F34F5F5F4F6F5F8B
:10323000EA85FB85E417F5070CF087CF0894C11CDD
:10324000D11CC50157017C014C145D040CF053CF17
:1032500029852F5F822F869586958695A80EB11CAD
:10326000D5018C9190E0277002C0959587952A959D
:10327000E2F78170EE85FF850FB6F894FEBF0FBEB2
:10328000EDBF61960FB6F894DEBF0FBECDBFCF91F4
:10329000DF911F910F91FF90EF90DF90CF90BF9043
:1032A000AF909F908F907F906F905F904F903F90E6
:1032B0002F900895FF920F931F93CF93DF938C016C
:1032C000C091B003D091B10342E0F42E0DC08C81C7
:1032D000882339F4CE010696B8010E94E3178111C4
:1032E000FC820A80DB81C02D209789F7DF91CF9186
:1032F0001F910F91FF9008950F931F93CF93DF932A
:103300008C01C091B003D091B1030DC08C8182308B
:1033100039F4CE010696B8010E94E31781111C8290
:103320000A80DB81C02D209789F7DF91CF911F9113
:103330000F9108956F927F928F929F92AF92BF925A
:10334000CF92DF92FF920F931F93DF93CF93CDB76E
:10335000DEB728970FB6F894DEBF0FBECDBF5C0175
:103360006B0100E010E03E010894611C711C65E0F7
:10337000862E912C8C0E9D1E53E0F52EF02261F4CA
:10338000C501B301A80124E00E94CC17C601B40115
:10339000A80124E00E94CC17EF2DF0E0D301AE0F7E
:1033A000BF1FAC91E80DF91DE081AE1758F0EA1788
:1033B00010F481E008C0AA2311F480E004C00F5F7C
:1033C0001F4FDACF8FEF28960FB6F894DEBF0FBEEF
:1033D000CDBFCF91DF911F910F91FF90DF90CF90E4
:1033E000BF90AF909F908F907F906F900895EF92D5
:1033F000FF920F931F93CF93DF938C01FC011482F4
:1034000076E0E72EF12CE80EF91EC0EBD3E00BC0FE
:103410006A5F7F4FC7010E949A1918164CF40990F1
:10342000D881C02D2296688179816115710581F757
:1034300088819981F801938382831983088380911D
:10344000B4039091B50301969093B5038093B403B0
:10345000DF91CF911F910F91FF90EF900895FC01A4
:103460002EED32E03183208345832AEE32E037832C
:103470002683882777FD8095982F906860877187CD
:1034800082879387CF010E94F71908950F931F93A6
:103490008C014FE10E942F1A80ED92E0F801918398
:1034A00080831F910F91089508951F920F920FB678
:1034B0000F920BB60F9211242F933F934F938F933C
:1034C0009F93EF93FF938091C00082FD1DC04091B8
:1034D000C6002091FC033091FD032F5F3F4F2F73F7
:1034E00030708091FE039091FF032817390771F027
:1034F000E091FC03F091FD03E454FC4F40833093D2
:10350000FD032093FC0302C08091C600FF91EF9160
:103510009F918F914F913F912F910F900BBE0F90E4
:103520000FBE0F901F90189508951F920F920FB61F
:103530000F920BB60F9211242F933F934F938F93BB
:103540009F93EF93FF938091C80082FD1DC040912F
:10355000CE0020918404309185042F5F3F4F2F735C
:10356000307080918604909187042817390771F094
:10357000E0918404F0918504EC5BFB4F4083309331
:1035800085042093840402C08091CE00FF91EF91C6
:103590009F918F914F913F912F910F900BBE0F9064
:1035A0000FBE0F901F90189508951F920F920FB69F
:1035B0000F920BB60F9211242F933F934F938F933B
:1035C0009F93EF93FF938091D00082FD1DC04091A7
:1035D000D60020910C0530910D052F5F3F4F2F73C2
:1035E000307080910E0590910F052817390771F002
:1035F000E0910C05F0910D05E453FB4F40833093AF
:103600000D0520930C0502C08091D600FF91EF912B
:103610009F918F914F913F912F910F900BBE0F90E3
:103620000FBE0F901F90189508951F920F920FB61E
:103630000F920BB60F9211242F933F934F938F93BA
:103640009F93EF93FF938091300182FD1DC04091C5
:10365000360120919405309195052F5F3F4F2F73D0
:10366000307080919605909197052817390771F071
:10367000E0919405F0919505EC5AFA4F4083309310
:1036800095052093940502C080913601FF91EF913A
:103690009F918F914F913F912F910F900BBE0F9063
:1036A0000FBE0F901F901895E091E805F091E90585
:1036B000E05CFF4F8191919120813181821B930BBE
:1036C0008F739070892B11F00E94541AE0910A06B2
:1036D000F0910B06E05CFF4F819191912081318147
:1036E000821B930B8F739070892B11F00E94941A98
:1036F000E0912C06F0912D06E05CFF4F81919191B5
:1037000020813181821B930B8F739070892B11F074
:103710000E94D41AE0914E06F0914F06E05CFF4FF4
:103720008191919120813181821B930B8F739070D5
:10373000892B11F00E94141B08951F920F920FB64F
:103740000F920BB60F9211242F933F938F939F9359
:10375000EF93FF9320914004309141048091420403
:10376000909143042817390731F48091C1008F7D6F
:103770008093C10014C0E0914204F0914304E050F2
:10378000FC4F2081809142049091430401968F73F5
:10379000907090934304809342042093C600FF915D
:1037A000EF919F918F913F912F910F900BBE0F90B2
:1037B0000FBE0F901F9018951F920F920FB60F9289
:1037C0000BB60F9211242F933F938F939F93EF93F8
:1037D000FF932091C8043091C9048091CA0490914C
:1037E000CB042817390731F48091C9008F7D80936D
:1037F000C90014C0E091CA04F091CB04E857FB4F14
:1038000020818091CA049091CB0401968F739070AF
:103810009093CB048093CA042093CE00FF91EF9144
:103820009F918F913F912F910F900BBE0F900FBEE4
:103830000F901F9018951F920F920FB60F920BB614
:103840000F9211242F933F938F939F93EF93FF93A6
:10385000209150053091510580915205909153056A
:103860002817390731F48091D1008F7D8093D100E2
:1038700014C0E0915205F0915305E05FFA4F2081AA
:10388000809152059091530501968F73907090939B
:103890005305809352052093D600FF91EF919F919D
:1038A0008F913F912F910F900BBE0F900FBE0F90F5
:1038B0001F9018951F920F920FB60F920BB60F9292
:1038C00011242F933F938F939F93EF93FF93209116
:1038D000D8053091D9058091DA059091DB0528173C
:1038E000390731F4809131018F7D8093310114C00B
:1038F000E091DA05F091DB05E856FA4F20818091DE
:10390000DA059091DB0501968F7390709093DB053B
:103910008093DA0520933601FF91EF919F918F916B
:103920003F912F910F900BBE0F900FBE0F901F90E5
:103930001895AF92BF92DF92EF92FF920F931F9371
:10394000CF93DF93EC017A018B01DD24403081EECF
:10395000580780E0680780E0780711F0DD24D394F1
:1039600091E0A92EB12CEC89FD89DD2069F0C5011B
:1039700008A002C0880F991F0A94E2F7808360E0D4
:1039800079E08DE390E005C0108260E874E88EE194
:1039900090E0A80197010E947721215030404040DB
:1039A0005040569547953795279580E12030380748
:1039B00020F0DD2011F0DD24D6CFE889F9893083AD
:1039C000EA89FB89208319A2EE89FF89408121E0E1
:1039D00030E0C9010C8C02C0880F991F0A94E2F7ED
:1039E000482B4083EE89FF894081C9010D8C02C0BC
:1039F000880F991F0A94E2F7482B4083EE89FF89CC
:103A00004081C9010E8C02C0880F991F0A94E2F709
:103A1000482B4083EE89FF8980810F8C02C0220FE2
:103A2000331F0A94E2F7209528232083DF91CF915A
:103A30001F910F91FF90EF90DF90BF90AF9008958E
:103A4000DC011C96ED91FC911D97E05CFF4F2191EC
:103A5000319180819181281B390B2F733070C901FE
:103A60000895DC011C96ED91FC911D97E05CFF4FE1
:103A700020813181E054F040DF01AE5BBF4F8D917A
:103A80009C9111972817390719F42FEF3FEF07C0C2
:103A90008D919C91E80FF91F8081282F30E0C9019A
:103AA0000895DC011C96ED91FC911D97E05CFF4FA1
:103AB00020813181E054F040DF01AE5BBF4F8D913A
:103AC0009C9111972817390719F42FEF3FEF10C079
:103AD0008D919C911197E80FF91F20818D919C91F8
:103AE000119701968F73907011969C938E9330E08E
:103AF000C9010895DC0191968C919197882339F042
:103B00005496ED91FC915597808186FFF9CF91965F
:103B10001C920895CF93DF93EC01EE85FF85E05C66
:103B2000FF4F20813181E054F0402F5F3F4F2F73D2
:103B30003070DF01AE5BBF4F8D919C9111972817BC
:103B40003907D1F3E05CFF4F80819181E054F04070
:103B5000E80FF91F6083EE85FF85E05CFF4F31833E
:103B60002083EE89FF89208181E090E00F8C02C0E4
:103B7000880F991F0A94E2F7282B208381E089A3FC
:103B8000EC89FD8980818064808381E090E0DF9111
:103B9000CF9108951F931092DF051092DE0528EE55
:103BA00033E040E050E02093E0053093E10540939E
:103BB000E2055093E30560EF72E07093DD056093DA
:103BC000DC058CEB93E09093E9058093E80580E0B9
:103BD00094E09093EB058093EA0585EC90E0909358
:103BE000ED058093EC0584EC90E09093EF058093D5
:103BF000EE0580EC90E09093F1058093F00581EC68
:103C000090E09093F3058093F20582EC90E090931E
:103C1000F5058093F40586EC90E09093F70580938A
:103C2000F60514E01093F805B3E0B093F905A7E0AA
:103C3000A093FA05F5E0F093FB05E1E0E093FC05C5
:103C4000109201061092000620930206309303069C
:103C500040930406509305067093FF056093FE059C
:103C600084E494E090930B0680930A0688E894E03D
:103C700090930D0680930C068DEC90E090930F06C8
:103C800080930E068CEC90E09093110680931006C2
:103C900088EC90E0909313068093120689EC90E0F4
:103CA00090931506809314068AEC90E09093170683
:103CB000809316068EEC90E0909319068093180678
:103CC00010931A06B0931B06A0931C06F0931D06D2
:103CD000E0931E06109223061092220620932406DB
:103CE00030932506409326065093270670932106AD
:103CF000609320068CEC94E090932D0680932C0624
:103D000080E195E090932F0680932E0685ED90E05C
:103D1000909331068093300684ED90E090933306C3
:103D20008093320680ED90E09093350680933406C0
:103D300081ED90E0909337068093360682ED90E017
:103D4000909339068093380686ED90E090933B0679
:103D500080933A0610933C06B0933D06A0933E062E
:103D6000F0933F06E09340061092450610924406F9
:103D700020934606309347064093480650934906E1
:103D8000709343066093420684E595E090934F0656
:103D900080934E0688E995E09093510680935006F3
:103DA00085E391E0909353068093520684E391E07B
:103DB000909355068093540680E391E090935706C4
:103DC0008093560681E391E09093590680935806BC
:103DD00082E391E090935B0680935A0686E391E03C
:103DE00090935D0680935C0610935E06B0935F0629
:103DF000A0936006F0936106E09362061F91089518
:103E000008950E9458060895CF92DF92EF92FF9294
:103E10000F931F93CF93DF937C016B018A01C0E066
:103E2000D0E00FC0D6016D916D01D701ED91FC91ED
:103E30000190F081E02DC7011995C80FD91F0150DD
:103E400010400115110571F7CE01DF91CF911F913F
:103E50000F91FF90EF90DF90CF900895EF92FF9237
:103E60000F931F93CF93DF937C018B01C0E0D0E0D1
:103E7000F8010F5F1F4F6491662359F0D701ED9150
:103E8000FC910190F081E02DC7011995C80FD91F51
:103E9000EFCFCE01DF91CF911F910F91FF90EF9067
:103EA0000895DC01ED91FC910190F081E02D1995D0
:103EB00008959C01DB01ED91FC910190F081E02DD2
:103EC000CB01B90119950895EF92FF920F931F93BB
:103ED0008C01DC01ED91FC910190F081E02D6DE011
:103EE00019957C01D801ED91FC910190F081E02DB4
:103EF000C8016AE019959C012E0D3F1DC9011F9153
:103F00000F91FF90EF900895EF92FF920F931F9300
:103F10007C010E942E1F8C01C7010E94641F9C011E
:103F2000200F311FC9011F910F91FF90EF9008954D
:103F3000CF93DF93EC016115710519F420E030E0B7
:103F40000FC0DB010D900020E9F71197A61BB70BFE
:103F5000E881F9810280F381E02DAD0119959C0182
:103F6000C901DF91CF9108954F925F927F928F9216
:103F70009F92AF92BF92CF92DF92EF92FF920F93F8
:103F80001F93DF93CF93CDB7DEB7A1970FB6F89409
:103F9000DEBF0FBECDBF2C01742ECB01223008F442
:103FA0002AE019A231E2C32ED12CCC0EDD1E822EC6
:103FB0009924AA24BB24672D752FA50194010E9482
:103FC000772179018A01C801B701A50194010E94F6
:103FD0005821472D461B0894C108D1084A3010F4D7
:103FE000405D01C0495CF6014083E114F104010524
:103FF000110521F07E2C5F2DC801DDCFC201B60175
:104000000E94981FA1960FB6F894DEBF0FBECDBFD9
:10401000CF91DF911F910F91FF90EF90DF90CF90A4
:10402000BF90AF909F908F907F905F904F9008953A
:10403000DC012115310541F4ED91FC910190F081F5
:10404000E02D642F199508950E94B41F0895EF92F2
:10405000FF920F931F939A017B0100E010E0B801DB
:10406000A7010E9418201F910F91FF90EF900895D3
:10407000EF92FF920F931F939A01E62EFF2400E028
:1040800010E0B801A7010E9418201F910F91FF9026
:10409000EF900895CF92DF92EF92FF920F931F93CC
:1040A000CF93DF93EC016A017B012115310541F4C7
:1040B000E881F9810190F081E02D642F19951FC0EE
:1040C0002A303105D1F477FF17C0E881F9810190DA
:1040D000F081E02D6DE219958C0144275527BA0136
:1040E0004C195D096E097F09CE012AE00E94B41FB8
:1040F0009801280F391F04C02AE00E94B41F9C01B8
:10410000C901DF91CF911F910F91FF90EF90DF9048
:10411000CF900895EF92FF920F931F937B019A0126
:104120000027F7FC0095102FB801A7010E944A2034
:104130001F910F91FF90EF9008950E94981F08958E
:104140001F920F920FB60F9211242F933F938F93CC
:104150009F93AF93BF938091680690916906A09159
:104160006A06B0916B0630916C060196A11DB11DD7
:10417000232F2D5F2D3720F02D570196A11DB11D46
:1041800020936C068093680690936906A0936A0654
:10419000B0936B068091640690916506A0916606C7
:1041A000B09167060196A11DB11D8093640690939E
:1041B0006506A0936606B0936706BF91AF919F9185
:1041C0008F913F912F910F900FBE0F901F901895D8
:1041D0008FB7F894209168063091690640916A067D
:1041E00050916B068FBFB901CA010895789484B5C8
:1041F000826084BD84B5816084BD85B5826085BDE3
:1042000085B5816085BDEEE6F0E0808181608083C8
:10421000E1E8F0E0108280818260808380818160AB
:104220008083E0E8F0E0808181608083E1EBF0E072
:10423000808184608083E0EBF0E080818160808316
:10424000E1E9F0E080818260808380818160808309
:10425000E0E9F0E0808181608083E1EAF0E0808144
:1042600082608083808181608083E0EAF0E08081E9
:1042700081608083E1E2F1E08081826080838081DF
:1042800081608083E0E2F1E0808181608083EAE701
:10429000F0E080818460808380818260808380817F
:1042A000816080838081806880831092C10008953E
:1042B000629FD001739FF001829FE00DF11D649F0A
:1042C000E00DF11D929FF00D839FF00D749FF00D96
:1042D000659FF00D9927729FB00DE11DF91F639F37
:1042E000B00DE11DF91FBD01CF0111240895A1E218
:1042F0001A2EAA1BBB1BFD010DC0AA1FBB1FEE1F60
:10430000FF1FA217B307E407F50720F0A21BB30BAA
:10431000E40BF50B661F771F881F991F1A9469F726
:1043200060957095809590959B01AC01BD01CF0182
:104330000895EE0FFF1F0590F491E02D19941AE0F7
:10434000CCEFDAE004C0FE010E949B212296CE3F12
:08435000D107C9F7F894FFCF73
:10435800696E636C756465006578636C7564650087
:104368006D61785F766572626F73697479006D69E3
:104378006E5F766572626F736974790072756E002C
:10438800756E6B6E6F776E20636F6D6D616E643ADC
:104398002027002700006100616100620020007191
:1043A800060000014502460248024B0200003F0198
:1043B800DC05000000003215D30AB90839090000ED
:1043C80000003215210EB00828090000000032153F
:1043D8007315A70817098E10000000003215731511
:1043E8009E0806098612000000003215731595080C
:1043F800F508371300000000321588138C08E4080C
:104408000000000032158B0E8308D308000000005E
:1044180032159B0E7A08C20801020304000000004E
:10442800321573158415CA15001F000000003215D7
:10443800001F5315A41500000000A6170000000077
:0C4448008A1D041F201D511D311D7A1D0E
:00000001FF
